:10000000D82D002089020000850200008702000030
:1000100000000000000000000000000000000000E0
:100020000000000000000000000000008502000049
:100030000000000000000000850200007D020000BA
:100040008502000085020000850200008502000094
:100050008502000085020000850200008502000084
:100060008502000085020000850200008502000074
:100070008502000085020000850200008502000064
:100080008502000085020000850200008502000054
:100090008502000000000000000000008502000052
:1000A0008502000085020000850200008502000034
:1000B00000000000074B1A00197DC907FCD520215C
:1000C000FF31198304494008D8611980137DDB078B
:1000D000FCD570470040004102A5FFFF10B50400A9
:1000E000044B9C4200D910BD20000134FFF7E2FF11
:1000F000FF34F5E7FFFF0300002330B59A4200D13B
:1001000030BD9C000D5901330551F7E7F0B580254E
:10011000104B114E5C68114FAC435C60002A00D15B
:10012000F0BD1400102A00D91024121B1E801D7D62
:10013000ED07FCD5A400A44600240D590551043454
:100140006445FAD1001909191F801C7DE407FCD50C
:10015000E4E7C0460040004144A5FFFF04A5FFFFBF
:10016000802270B5002304000D005200E958E058C9
:10017000814203D104339342F8D170BD2000FFF7D0
:1001800099FF402229002000FFF7C0FFF5E700009B
:10019000024A53785BB2002BFBDB7047000C004037
:1001A00010230249CA681A42FCD070470008004078
:1001B0001E21F8B50226254A254C5368254D8B4350
:1001C00033435360A660FFF7E3FF234B6360FFF701
:1001D000DFFFAE84FFF7E4FF204B1B689B0E3F2B35
:1001E00000D1203B002602271D4A9B0213431D4AD3
:1001F000EA62AB62AE84FFF7D3FF1B4BAB84FFF721
:10020000CFFFAB8C3B43AB84FFF7CAFF3F22638831
:10021000934380221F4367806388D2011343638026
:10022000A660FFF7B5FF114B6360FFF7B1FFC02178
:100230000F4A104B10485360036A09061B021B0A41
:100240000B430362072396601360F8BD0040004132
:10025000000C0040000800400600010024608000FF
:10026000FF01000080BB0A1C2405000000070300FA
:1002700010E000E0E703000000ED00E010B500F042
:10028000D5F810BDFEE7FEE71E4A1F4B70B51F49AB
:100290009A4232D100211E4B1E4A934230D3FF2294
:1002A0001D4B032193431D4A0C2593600222082411
:1002B00030261B4B1B485A62C3788B431343C370D1
:1002C000C378AB432343C370174B987BB0430600FE
:1002D000202030439873987BA84304439C73987BF9
:1002E000884302439A738023104A51680B4353603A
:1002F00000F0AAFEFEE701CA01C38B42FBD3C9E7A7
:1003000002C3CAE7EC1C000000000020CC01002062
:10031000CC010020D40D00200000000000ED00E022
:10032000FC70004100500041004800410040004185
:10033000F0B5124E7388002B17D108241A0292B21E
:1003400015B2AC4667465500AAB2002F02DA0C4A35
:100350005540AAB2013CA4B2002CF1D15C0032534A
:100360008022013352009342E7D10B0A43405B00E5
:10037000F05A0902484080B2F0BDC046CC010020CE
:100380002110000070B5D318157801328024416027
:100390000326013EFDD12C4200D101600626013E1C
:1003A000FDD10160641004D0E4B20226013EFDD10B
:1003B000EDE79A4200D2E7E770BD012300029842C0
:1003C00000D87047C0460133F9E770B505001C241A
:1003D00000200F260B00E3403340002A09D1002BF8
:1003E00007D1002C0BD0002809D1043C231DF1D1EA
:1003F00070BD092B03DD37332B540130F5E7303363
:10040000FAE70000054B064A1A60BFF34F8F054B11
:10041000054ADA60BFF34F8FFEE7C046FC7F00203D
:10042000EF6916F000ED00E00400FA0510B5194A76
:1004300019491368013313600A68002A0CD0174861
:100440001018834203D180241548A402846193428A
:1004500001D100230B6010BD1248DBB20278002BE3
:1004600010D180210E4B8902996111000A39C9B25D
:100470000D4BF02902D91978494219701B78D2180E
:100480000270E8E79342E6D18022054B92025A615E
:10049000E1E7C046CC030020D003002018FCFFFF9A
:1004A000004400410100002000000020074B084AE2
:1004B0001B681168994207D2FA21C9005B181360C2
:1004C0008022044B92025A617047C046CC03002040
:1004D000D0030020004400418022024B92029A6027
:1004E0009A6170470044004137B5802501AC030A8A
:1004F0002370030C63700E4BED05A0709D6001200E
:100500005D61FFF75AFFEFF31083002B08D172B63D
:100510000848033322002900FFF734FF62B637BDD5
:100520000323220029000348FFF72CFFF7E7C0460A
:10053000004400411444004110B50020FFF7D4FFEF
:10054000054B064A1A60BFF34F8F054B054ADA6028
:10055000BFF34F8FFEE7C046FC7F0020EF6926F017
:1005600000ED00E00400FA0510B50B4A1368002BFB
:100570000ED10A4911600A490A6801320A60094924
:100580000868002806D0824204D30B60FFF7D4FF2E
:10059000013B136010BDC046D4030020DC05000001
:1005A000000A0020040A0020202370B5354A0F20DD
:1005B000D1690B43D361012233490B7813430B708C
:1005C000324B19788143197006211C782143197028
:1005D0002F490C7822430A701A7802401A70602260
:1005E00019780A431A702B4B2B4A5A805A78D20931
:1005F000FCD12A4B013219780A431A709A78D20733
:10060000FCD41F2026490A68520B0240824200D1C6
:1006100005221C8D234D024092012C4022431A8555
:100620000A68920C02401F2A00D1023A1F24188D3A
:100630002240A043024307201A850A68D20D0240D7
:10064000824200D10322198D024017481203014053
:100650000A437F211A851A7814480A401A70042226
:1006600019780A430C211A7058621A898A431A8130
:100670001A890B398A431A8180220021520001F025
:1006800018FA70BD00040040584400413C44004149
:1006900059440041000C0040064000000050004159
:1006A000246080003FF8FFFFFF8FFFFF4C0A00200F
:1006B000F7B51C00314B06005B6A0F001500019373
:1006C000002C05D1443454432D4BE418FFF74CFF64
:1006D00063782278934210D2D51ABD4200D93D00EA
:1006E000002E08D0211DC9182A00300001F0D8F9C9
:1006F00063785B1963702800FEBD019BA1786A01D5
:10070000D318002911D1211D196059681D48890B82
:10071000890359605968014059601B4955184021A7
:100720002879014329710121A1701449002551182C
:10073000019116495218127AD207DCD55D68A27869
:10074000EDB22570022A04D11968201D2A0001F09B
:10075000A7F9BD4200D93D00002E0CD06570211DC7
:100760002A00300001F09CF90122019BFF331A722C
:100770000023A370BFE76670F6E7C0460050004153
:100780004C0B0020FF3F00F000510041FF500041A2
:1007900010B50023FFF78CFF10BDF8B505000C0065
:1007A00016001F00002C00D1F8BD210028003B00DE
:1007B0003200FFF77DFF241A2D18F3E7F8B50E007D
:1007C0001F4955014C6A2C19002B1BD063695B0033
:1007D0005B08636120616369B2049B0B920C9B030D
:1007E000134363616369174A1748134063612A180A
:1007F000022380211500137291712A7A1A42FCD0CB
:100800003000F8BD012163695B005B0F0333994041
:10081000B14208D8043A531E9A416369D2075B007B
:100820005B081343D5E744275743084A0437BF18EA
:1008300001003200380001F033F93800CAE7C04641
:1008400000500041FF3F00F0FF5000414C0B0020E2
:1008500010B50023FFF7B2FF10BD000010B5054B27
:100860001B888B4200D90B0000221900FFF7F0FF14
:1008700010BDC046FA03002007B500226B461100E8
:10088000D81DFFF7E5FF07BDF0B59BB0FFF76CFE85
:100890000822C04CA38B1A400392039BBE4A002B34
:1008A0002ED00823A383802311214020A372C024CB
:1008B000517090715371B94BB94D5968A4052940D5
:1008C00021435960596929400C43B6495C6119605C
:1008D000B549B64C196159680C4080218902214301
:1008E00059605968890B8903596050710022B04BD7
:1008F0001A70AF4B1878431E9841C0B21BB0F0BDC0
:100900001021137A8C460B42F3D01172A949A94DDC
:100910008979A84B0191A7490198CF799B88390221
:10092000014309B2029169460989A2480091067AF9
:10093000C07AAD7A000228439E499F4D497A2880AB
:10094000402509020E439D4836B2B1B2557183422B
:1009500000D1B4E13AD881204000834200D1C3E104
:1009600017D8822B00D191E108D8802B00D188E1E3
:10097000812B00D185E120239371BAE780214900C2
:100980008B42F8D00221FF318B42F4D1FFF774FF84
:10099000AFE78B48834204D00BD8A221FF318B42B2
:1009A000E9D10021082208A801F083F8082108A84D
:1009B000CDE0C02080008342DDD0E7D840388342BC
:1009C000D9D10729D7D1A3317E48C0E07E498B42D7
:1009D000DCD000D99AE07D498B4214D801398B4292
:1009E00000D3ADE07A498B42DBD06031FF318B42DE
:1009F000C1D1FFF741FF8023029A5B421343654A4E
:100A0000DBB2937275E78821694809018B4200D1F6
:100A1000A2E180318B42AED1029B30270370FFF7F9
:100A20002BFFA02303225B00E254C0225B4B5C49F6
:100A3000586C92050840104358644620FF302554F6
:100A4000644880261864902040002754586B084062
:100A5000104358639220400026545F488026186354
:100A6000B02040002554586F08405867B22040001D
:100A7000265403263C302654FC3884469C44604669
:100A800006680E4016430660A626FF36A5551E00D2
:100A90005248A0363060C0267600A7551F00943714
:100AA0003E6880200E4016433E60C2267600A05568
:100AB0001E004B4F90363760E02644277600A7553E
:100AC0000436A555A055C42084469C44604606685B
:100AD0000E4016430660D42084469C446046066857
:100AE0000E4016430660F02680207600A755043697
:100AF000A555A0551C00E4342068F4330840104389
:100B00002060186801400A431A60F2E635498B42BA
:100B100000D13BE705D834498B4200D136E7334951
:100B200032E733498B4200D130E732498B4200D162
:100B30000FE131498B4200D01DE708212F4806E024
:100B4000802300995B00994204D112212C48FFF7C1
:100B500085FECEE6802300999B00994202D199211F
:100B60002848F4E7032F7CD1019B032B00D902E72F
:100B700008AC48220021200000F09BFF019B677019
:100B8000002B43D1043323701F4B63802178200056
:100B9000DDE7C04600500041FF5000414C0A0020F4
:100BA000FFFFFF8F0C0A0020500B0020FF3F00F0DA
:100BB000D8030020080A0020FA03002002030000E6
:100BC000A1020000F00000202109000081060000C1
:100BD000A1030000D80B0020940B0020A40C0020DF
:100BE000600C002021200000210A0000210B0000E1
:100BF00021220000A1FE0000A1210000E800002049
:100C0000E01A0000400000200904000004AE320099
:100C1000524B23CB23C200252F001B681360AB006F
:100C20004F4AF358D01919680122FFF7CEFB01355E
:100C30003F18042DF3D10023494AD355494B4A4A62
:100C40009B799B009D58280000F03BFF230001305A
:100C5000400020702A7802330135002A96D01A709D
:100C6000F8E70F2F02D13921404870E7212F02D138
:100C700009213F486BE7222F00D07CE621213D4827
:100C800065E7002308A80380022160E7039B08A80A
:100C900003800823194200D06DE60733194008315C
:100CA000413349011E4205D0334BC9188B799B064D
:100CB000DB0FE8E7304BC9188B79DB06F8E70F2329
:100CC0000B4000D157E6082001400098084300D0AF
:100CD00051E60833284A5B019B18320602D52022D0
:100CE0005A7153E66246FBE70F230B4000D142E600
:100CF000082001400098084300D03CE65B01320622
:100D000013D51E491C4A9A185B182021D87908422D
:100D100000D13BE659711B7A2B4200D136E6130015
:100D20004022FF331A723E3ADAE760461349124A0C
:100D30009A185B18D979014200D127E62021587111
:100D40001B7A0B4200D121E61300FF3319720122F6
:100D5000C6E7002308A803800121F8E6D01A0000A6
:100D6000D9030020080A0020301B000004000020E6
:100D7000DC000020F41A000000500041FF50004148
:100D800010B5FFF711FC0022034B1A700223034A2F
:100D900011780B43137010BDD803002000500041A0
:100DA00010B50C000122FFF753FD200010BD10B557
:100DB0000C000122FFF74CFD200010BD70B50400AF
:100DC0000D00FFF761FD03000020834204D00222E2
:100DD00029002000FFF7DCFC70BD70B505000C0099
:100DE000FFF752FD002807D000230222210028002F
:100DF000FFF7D3FC200070BD0400FBE730B50023F3
:100E00002025934200DB30BD0C78002C03D001314B
:100E1000C4540133F5E72C00FAE70000F8B580224E
:100E20000C00050092000021200000F042FE002D81
:100E30000CD13E224449200000F032FEFF2355220F
:100E40005B00E254414B9218E254F8BD402D24D887
:100E50006B1E1F2B00D9203B002B11D01B02581CEE
:100E60003B4D3C4EFF301A1F591CAA4203D8B342D7
:100E700011D08BB223800B0002348142F3D1E4E71E
:100E8000F0222100FF2022700A31621C9142E5D03D
:100E900010700132FAE7304BECE7442D2AD8412D8F
:100EA000D3D129490B222B312000FFF7A7FF802740
:100EB00028232A4EE3723F3D3F03F3682034380075
:100EC000002B02D0180000F0FCFD030A6377030C2E
:100ED0002077A377000E2B0AA5760135E077310045
:100EE000E3760B222000ADB2FFF788FF1036052D08
:100EF000E3D1AAE72B00453B012B0CD8174A1B0175
:100F0000D318DD68280000F0DCFD29000200200075
:100F100000F0C6FD99E7124B473D2902994200D9DE
:100F200093E7104B104A2360104B20006360FE23B0
:100F30005B00E25080238022DB0052006561A361E8
:100F4000E16022612030E3E7401B0000FF01000068
:100F5000FF03000003040000FFFF0000FC1B000073
:100F6000FFFF03005546320A306FB10A57515D9EAC
:100F700070B516001C000A682B4B0D009A424AD12E
:100F80002A4B4A689A4246D1FE225200284B8A5880
:100F90009A4240D18B68DB0710D480230A695B003A
:100FA0009A420BD1C868C3B2002B07D1214B224A09
:100FB000C318934202D82031FFF7D2F8002C2BD06F
:100FC000AB69002B28D021681C4A8B4206D0934283
:100FD00001D8002901D001235B4223606B69934251
:100FE00019D80721012219408A40DB08E318197A31
:100FF000D2B20A4204D160680A4301301A726060BA
:10100000626823689A4206D3002E04D10C4B1B68F9
:101010001E330C4A136070BD002EFCD1084B1B68B8
:101020002D33FF33F5E7C0465546320A57515D9ED2
:10103000306FB10A00E0FFFFFFDF03006304000030
:10104000000A0020040A0020F8B5364D00AFAB6856
:10105000002B00D0FEE7FFF73FFA334B1E68334BFF
:10106000F218F8239B029A4214D8314B314A19687E
:10107000314C324B914233D11978314AC90702D4ED
:10108000216891422CD02F4B22601B682E4A2D33B1
:10109000FF331360FFF78CF8BFF35F8F62B6FFF783
:1010A0006FFE8020C002FFF71FFA0A230126274D9A
:1010B0002B70FFF7E9FB264C00280BD02378DBB21E
:1010C000002B06D18020204AC0001360FFF70CFAE5
:1010D0002E7026702378002BEBD000F0B5FAFCE7D9
:1010E0001B78DB07DB0F0DD0002380222360194B18
:1010F00092025A6180239B011A6882F30888AB60D0
:101100003047C7E72168144A914201D12360C1E703
:1011100021680B4B9942E7D0FA2022604000FFF78C
:101120004CF9E1E700ED00E00420000000E0FFFFE3
:10113000B42000007CB0EE87FC7F00203804004023
:10114000EF6926F0000A0020040A002000000020B9
:10115000FC03002000440041EF6916F010B5054C77
:1011600012220021200000F0A4FCF0232370E63BB3
:10117000E37110BD3B060020F8B505000E00170016
:101180000024AB68A34200D8F8BD8021AA783300C0
:101190008900E868FFF701FB80235B01E01801226A
:1011A0003B00E968FFF7E4FE0134EAE770B513009D
:1011B00006000C00150000200A000121FFF778FA54
:1011C0000023984206D02B0022001F213000FFF799
:1011D0006FFA0123180070BD10B504220D210248DA
:1011E000FFF736FB10BDC0469A01002010B50B4832
:1011F0000B494279037912021A4383791B041A437B
:10120000C3791B0613431A0A0B714A711A0C1B0E81
:101210008A71CB71FFF7E0FF10BDC0461C060020AD
:101220009A01002070B504220D00FFF711FB164C47
:1012300085420FD0FFF792FF012304222373134B43
:101240009A700022DA701A715A719A711A735A736D
:10125000FFF7CCFFFFF782FF00232373637A217A25
:101260001B020B43A17A09040B43E17A09061943D7
:10127000491B0B0A217263720B0C090EA372E172F7
:10128000FFF7B4FF70BDC0469A0100203B06002066
:1012900070B5184C142205000021200000F009FC54
:1012A000154A002D1FD021000823D07D08313F268C
:1012B000527C32401C2A01D0B24205D10F4A0C3375
:1012C0000A800522DBB2CA70191C834200D9011CB6
:1012D000C9B2002D0BD0023B9BB21B022380200021
:1012E000FFF7A0FF70BDD07C211D0423DFE7013B89
:1012F0002370F4E7000600201C0600201C0A0000F2
:10130000F0B5070000242B4B85B0597C03AAD1709F
:10131000997C9170D97C5170197D1170997D02AAC8
:10132000D170DB7D937053880193019BA34208D851
:10133000FFF714FF0022204B1A73FFF757FF05B089
:10134000F0BDFFF7A1FA0028F9D0039B1B4EE5186A
:10135000002F1FD031002800FFF760FD80210422FC
:1013600089003000FFF774FA134A0134517A137A76
:1013700009021943937A1B041943D37A1B060B43C2
:101380000F495B18190A13725172190C1B0E9172D6
:10139000D372CAE780213B00300005228900FFF7A5
:1013A000FCF9084B3A0031002800FFF7E1FDFFF798
:1013B0007DF8D9E71C0600209A01002000040020D7
:1013C00000FEFFFF50060020F0B585B000F038FBAE
:1013D000454E002205213000FFF7E8FE002858D0D6
:1013E000737A357A1B022B43B57A404C2D042B437C
:1013F000F57A00272D061D432B0A63722B0CA3726E
:101400002B0E2572E372F37B1E2B1BD021D8122BDF
:1014100041D013D8BB4215D0032B31D0FFF79EFE2D
:10142000012305222373324B9A700022DA701A715D
:101430005A719A711A7320325A7307E01A2B39D0F5
:101440001B2BEBD1FFF78AFE00232373FFF7CEFEA1
:101450001FE0282B34D00BD8232B35D0252BDDD102
:10146000802324489B024360234B082103600EE045
:101470002F2BE7D05A2B21D02A2BCFD1380020E0B8
:10148000F37C191C122B00D912211948C9B2FFF79D
:10149000C9FE05B0F0BD194C1949200018220830CA
:1014A000FFF7ACFCF37C191C242B00D92421C9B212
:1014B0002000ECE73800FFF7EBFEEAE70120FAE74F
:1014C0000120FFF71DFFE4E70C260E49320001A8BA
:1014D00000F0E6FAB54203D926726772A772E77286
:1014E0000C2101A8D3E7C0461C0600209A01002069
:1014F0003B0600201406002000001F3FA80100202A
:101500001E1B0000A51C000072B6BFF35F8F044BCA
:10151000044A9A829A830022034B9A607047C0461D
:1015200000500041FF03000000ED00E0F0B5C7B03F
:101530000FAF0400FFF7E8FF44220021380000F05D
:10154000B8FA9822002120A800F0B3FA02230F2154
:10155000BB70A37862780B40A37063680A4008935D
:10156000002307AD264E627009932B73012220AB36
:10157000E16824480796FFF7FBFC20AA3900200009
:10158000FFF7FAFD627801230D212800FFF716F915
:101590000196002607ADA1783A002800FFF706FE65
:1015A000002823D0019B03AE03936B687360AB6884
:1015B000B36000233373EB7B002B10D02A2B1CD19C
:1015C000ED8A02AB6DBA5D80ADB2A56020AA39008C
:1015D0002000FFF7D1FDB3686D025D1BB560627836
:1015E00001230D213000FFF7E9F8D2E7064B9E42B8
:1015F00001D9FEF7A1FF0136CCE7FEF703FFEEE7C6
:1016000053425355FF0F0000F8240100B0B500AF5E
:10161000EFF30883054C2360036883F3088845686B
:10162000A847236883F30888BD46B0BDC80D0020D5
:1016300007B5010001226846FEF7C7FE082168468B
:10164000FFF7AEFB07BD0000F7B57A230022804C00
:10165000804922600B7000920193FFF7B5FE7E4D2A
:1016600040212800FFF7AAFB7C4B1860009B2B54FD
:10167000002801D0FEF71AFF794B009A1D60794BC4
:101680001A607848754B02681F68BA42E5D2744DFB
:1016900029680B78FF2B37D0734E232B00D0B4E092
:1016A0006C4B1B78532B34D133680132013102600B
:1016B0002960BA1A9A4200D91A006C4D20682A6033
:1016C00000F0EEF9674829680368654ACB18013BCA
:1016D000036010684B1EC3181360FF23644D29700C
:1016E0001940614B1B688B4203D9591A2068FFF7D8
:1016F00074FBC046574B019A1A705B4B009A1A60F4
:10170000574A136801331360564A13680133136054
:10171000B7E7522B04D131682068FFF748FBE9E7AF
:101720004F2B03D1336822681370E3E7482B03D1B2
:10173000336822681380DDE7572B0AD14D4B2268AE
:101740009A4202D10020FEF7CFFE236832681A6069
:10175000D0E76F2B04D101212068FFF721FBC9E7F7
:10176000682B05D1022123681B8833603000F4E721
:10177000772B04D1236804211B683360F6E7472BDD
:1017800009D13068FFF742FF3B4B1B78002BB1D0EB
:1017900001213A48E1E7542BACD04E2BAAD0562B6E
:1017A00002D12A213648D8E7582B05D13068FEF7F8
:1017B00095FC03213348D0E7592B0DD132682068BE
:1017C000314B002A03D1186003213048C5E7920845
:1017D0001968FEF79BFCF7E75A2B8BD13768002678
:1017E0002568EF19AF4209D101212948FFF7D8FA3E
:1017F0003000FFF71DFF03212648AEE728783100AF
:10180000FEF796FD01350600ECE71A00303AD1B23A
:10181000092904D833681B011343336070E71A00A9
:10182000413A052A03D83268373B1201F4E71A001F
:10183000613A052A03D83268573B1201ECE72C2B9A
:1018400003D133682360009BE7E7024A1370FAE78D
:10185000C40D0020780D0020800D0020700D0020A8
:10186000740D00207C0D0020CC0D0020D00D002038
:101870006C0D00200CED00E0E8060020DB1C0000F1
:10188000B11C0000DD1C0000EC060020E11C000083
:10189000E51C0000E71C0000F8B503004733040016
:1018A0001A78402103000020FEF702FF002801D132
:1018B0000020F8BD0023257923706BB2002BF7DBE5
:1018C0003F272000A61DF38F2F404830C018611D10
:1018D0003A0000F0E5F83F23F08F9D43C01980B235
:1018E000002D01D1F087E3E70023F387E1E7F0B5AE
:1018F00006000C001F0093B001923F25AC4203DCB0
:101900002500002F00D140373B0002AA2B43137063
:1019100002AB31002A00581C00F0C2F86B4640218F
:101920001A7902A80123FEF749FF7619641BE4D156
:1019300013B0F0BD030010B547331A7804314830B6
:101940000023FFF7D4FF10BDF7B50400FFF7A4FF95
:1019500000283FD0230048339A88A06C1A800022C8
:1019600001385A80082863D800F090F81505212521
:101970002328453C3500304E300000F0A2F8050029
:10198000200031004C302A0000F08AF829002000A5
:10199000FFF7D0FF1EE00123E364FF3323658023BC
:1019A000DB006365A0235B00A3651021EFE7FEF772
:1019B000C3FD0021EBE7FEF725FDFAE7200000213B
:1019C000FFF7B8FF206D1D4B984203D92100543119
:1019D000FEF7C6FBF7BD2100626D5831206DFEF7A2
:1019E0008BFBE6E72000656D216D4C302A00FEF789
:1019F00083FBA900CBE70027236D666D5D1CFF35D7
:101A0000BE4201DC7100C2E700216B1EFF3B5A1C85
:101A100018780192FEF78CFC019B0100AB42F6D1D5
:101A200023007A004C33013598520137FF35E7E740
:101A300001225A80BDE7C0462C1C0000FF1F000099
:101A400007480622030010B547331A70FFF77CFFE2
:101A500004480722030047331A70FFF775FF10BDD3
:101A6000F00600207808002010B5E2B00400FFF76F
:101A70004BFDC42200215200684600F01AF84723AB
:101A80006B441C706846FFF75FFFFBE702B47146CA
:101A900049084900095C49008E4402BC7047C046B1
:101AA000002310B59A4200D110BDCC5CC454013360
:101AB000F8E703001218934200D170471970013300
:101AC000F9E70023C25C0133002AFBD1581E70479E
:101AD0000CA0800040A0800044A0800048A08000AE
:101AE00012011002EF0201404F1B150001420102DA
:101AF000030100000697FF0901A101150026FF0060
:101B000075089540090181029540090191029501EE
:101B10000901B102C0537061726B66756E00526547
:101B200064426F61726420547572626F000000003D
:101B300000000000151B00001E1B0000D903002040
:101B4000EB3C905546322055463220000201010000
:101B50000240003E1FF820000100010000000000CC
:101B60000000000000002942004200535041524B47
:101B700046554E00000046415431362020203C217D
:101B8000646F63747970652068746D6C3E0A3C689C
:101B9000746D6C3E3C626F64793E3C736372697035
:101BA000743E0A6C6F636174696F6E2E7265706C3F
:101BB000616365282268747470733A2F2F77777782
:101BC0002E737061726B66756E2E636F6D2F7072FF
:101BD0006F64756374732F313438313222293B0AB4
:101BE0003C2F7363726970743E3C2F626F64793E60
:101BF0003C2F68746D6C3E0A00000000494E464F51
:101C00005F554632545854002C1C0000494E444540
:101C10005820202048544D007E1B0000435552524E
:101C2000454E5420554632000000000055463220F3
:101C3000426F6F746C6F616465722076322E302E45
:101C4000302D61646166727569742E342D31322DC8
:101C500067326434656337332D6469727479205355
:101C6000464857524F0D0A4D6F64656C3A205265D5
:101C700064426F61726420547572626F0D0A426F24
:101C80006172642D49443A20526564426F61726406
:101C90002D547572626F2D537061726B66756E2D67
:101CA00076300D0A000000000800001F400200020C
:101CB0000076312E31205B41726475696E6F3A583F
:101CC000595A5D204A616E20313520323031392039
:101CD00031323A30353A30310A0D000600580A0DDB
:0C1CE00000590A0D005A00230A0D0000F4
:101CEC0001C80000050F3900021810050038B608AD
:101CFC0034A909A0478BFDA0768815B665000101B3
:101D0C00001C100500DF60DDD88945C74C9CD265EE
:101D1C009D9E648A9F00000306AA0002000000003A
:101D2C000902990005010080FA080B000202020169
:101D3C000009040000010202010005240010010446
:101D4C00240206052406000105240103010705836E
:101D5C00030800FF09040100020A000000070581C6
:101D6C0002400000070502024000000904020002C4
:101D7C0008065000070584024000000705050240D4
:101D8C000000090403000203000000092100010007
:101D9C0001222100070586034000010705060340C8
:101DAC0000010904040002FF2A0100070587034013
:101DBC0000010705070340000100000009040300AF
:101DCC00020300000300000000C201000000080034
:101DDC000A00000000000306AA000800020004002C
:101DEC00A0001400030057494E5553420000000058
:101DFC000000000000008400040007002A004400DA
:101E0C006500760069006300650049006E0074008F
:101E1C0065007200660061006300650047005500B4
:101E2C00490044007300000050007B003900320070
:101E3C004300450036003400360032002D003900D6
:101E4C004300370037002D003400360046004500B3
:101E5C002D0039003300330042002D0033003100D7
:101E6C00430042003900430035004100410033007B
:101E7C00420039007D000000000053425355000021
:101E8C0000000000000000000080020220000000A2
:101E9C000000000000000000000000000000000036
:0C1EAC000000000000000000312E30306B
:101FF00000000000691A00002D1500002C1C0000D4
:00000001FF
