:107000005FC0000078C0000076C0000074C00000BF
:1070100072C0000070C000006EC000006CC00000B4
:107020006AC0000068C00000DAC4000064C000004C
:1070300062C0000060C000005EC000005CC00000D4
:107040005AC000009DC0000056C0000054C000009F
:1070500052C0000050C000004EC000004CC00000F4
:107060004AC0000048C0000046C0000044C0000004
:1070700042C0000040C000003EC000003CC0000014
:107080003AC0000038C0000036C0000034C0000024
:1070900032C0000030C000002EC000002CC0000034
:1070A0002AC0000028C0000026C00000573E703EE5
:1070B000143F703E143FA53EC73E143FE73EF93EE5
:1070C00011241FBECFEFDAE0DEBFCDBF11E0A0E09C
:1070D000B1E0E2EBFEE702C005900D92A23BB107E2
:1070E000D9F721E0A2EBB1E001C01D92AB3CB207A1
:1070F000E1F720D3DCC684CF84E08093E90080915F
:10710000E80085FD0EC08091E8008B778093E80051
:107110008091E80082FDF3CF8EB38111F9CF80E03A
:1071200008958091F100089593E09093E900909183
:10713000E80095FF0AC08093F1005D9884E690E036
:107140009093B9018093B80108959091E8009E77DB
:107150009093E8009091E80090FDEDCF9EB39111DF
:10716000F9CF0895F89410926F001092810081E099
:1071700085BF15BE47985D9A289A0C940000089523
:107180001F920F920FB60F9211242F938F939F93FC
:10719000EF93FF9310928500109284008091B801C4
:1071A0009091B901009741F001979093B9018093B4
:1071B000B801892B09F45D9A8091B6019091B701CD
:1071C000009741F001979093B7018093B601892B06
:1071D00009F4289A8091B2019091B301019690939D
:1071E000B3018093B201E0E0F0E0859194910196C3
:1071F00049F08091B4019091B50101969093B50149
:107200008093B401FF91EF919F918F912F910F90F7
:107210000FBE0F901F90189542E061EC82E05AD3A8
:1072200042E161E883E056D342E160E884E052C382
:107230008091C301982F9F77913239F59091C401C5
:10724000903291F0913209F5813AF9F48091E80099
:10725000877F8093E80067E070E082E091E06DD482
:107260008091E8008B770FC0813279F48091E8003B
:10727000877F8093E80067E070E082E091E0B6D419
:107280008091E8008E778093E80008954F925F9296
:107290006F927F928F929F92AF92BF92CF92DF9226
:1072A000EF92FF92CF93DF9384E08093E900809187
:1072B000E80082FF30C2289884E690E09093B701FE
:1072C0008093B60119DFD82F853481F48CEA9DE0D4
:1072D0009093B5018093B40107B600FCFDCFF999F6
:1072E000FECF81E180935700E89503C0843521F4F7
:1072F00003DF8DE019DFE6C18C34D9F38035C9F3A3
:10730000843721F484E410DF80E0F4CF813611F477
:1073100089E5F0CF813491F4EFDEC82FEDDE90E007
:10732000880F991F2C2F30E0322F2227330F822B0A
:10733000932BAA2797FDA095BA2F98C1803711F4F7
:1073400083E5D8CF833549F4C9EAD1E08991ECDEF1
:1073500021E0C03BD207D1F7B5C1863521F481E3E6
:10736000E3DE80E3C7CF833731F487E8DDDE85E9EC
:10737000DBDE8EE1BFCF8536B9F4E0E0F0E083E0FC
:1073800095E080935700E89507B600FCFDCF9093F9
:107390005700E89507B600FCFDCFE058FF4FE11518
:1073A00020E7F20771F7A5CF823719F4E1E0F0E0AA
:1073B0000EC0863419F4E0E0F0E009C08E3419F410
:1073C000E3E0F0E004C0813539F4E2E0F0E089E088
:1073D0008093570084918ECF823631F489E5A4DE04
:1073E00080E0A2DE80E886CF823419F0873609F08B
:1073F000D5C01092B5011092B4017EDED82E7CDE8D
:10740000E82E7ADEC82F8BEB8C0F823010F08FE3E2
:1074100071CFF12CFD2810926F00D73609F045C0CE
:1074200081E180935700E8955701912CD1E0A11498
:10743000B10409F4AFC0C090BB01D090BC01E09092
:10744000BD01F090BE01C634B9F4E92DF0E0EC299D
:10745000FD29849169DE992069F082E0C80ED11C73
:10746000E11CF11CC092BB01D092BC01E092BD01B5
:10747000F092BE019D2615C0D701C601B695A7950D
:1074800097958795FED450DEE2E0CE0ED11CE11C2C
:10749000F11CC092BB01D092BC01E092BD01F09200
:1074A000BE01F1E0AF1AB108C2CF8090BB0190904D
:1074B000BC01A090BD01B090BE01C63421F0C12C2A
:1074C000D12CD1E030C083E0F40180935700E895DF
:1074D00007B600FCFDCFF3CFC63461F5DD2039F1EE
:1074E0004090BB015090BC016090BD017090BE0106
:1074F00003DE2C2D30E0382BF2010901D093570028
:10750000E8951124F2E04F0E511C611C711C409251
:10751000BB015092BC016092BD017092BE01DD269C
:1075200021E0E21AF108E114F104B1F627C0E4DD2C
:10753000C82EF5CFE1DD682F8091BB019091BC0191
:10754000A091BD01B091BE01B695A795979587957D
:10755000A0D44091BB015091BC016091BD017091DC
:10756000BE014E5F5F4F6F4F7F4F4093BB01509303
:10757000BC016093BD017093BE01D2CFC63441F40B
:1075800085E0F40180935700E89507B600FCFDCF35
:107590008DE0CADD82E080936F0094C0833471F483
:1075A000C091BB01D091BC01A7DD90E021E0FE01BC
:1075B0000C0120935700E89511249BCE833601F5EA
:1075C000C090BB01D090BC01E090BD01F090BE0125
:1075D00093DDF601E16090E021E00C01209357007B
:1075E000E8951124F2E0CF0ED11CE11CF11CC092F1
:1075F000BB01D092BC01E092BD01F092BE0179CEF8
:107600008D3661F4E091BB01F091BC0185E080937F
:107610005700E89507B600FCFDCF6BCE823551F4DC
:10762000E091BB01F091BC01C591D4918D2F7CDD1F
:107630008C2F60CE843419F55FDD682F8091BB01FB
:107640009091BC01A091BD01B091BE01B695A795E6
:10765000979587951ED48091BB019091BC01A09114
:10766000BD01B091BE010296A11DB11D8093BB0169
:107670009093BC01A093BD01B093BE013ACE843675
:10768000F1F4C090BB01D090BC01E090BD01F0903E
:10769000BE01D701C601B695A79597958795F1D3F9
:1076A00043DD22E0C20ED11CE11CF11CC092BB01E3
:1076B000D092BC01E092BD01F092BE0103C08B31BB
:1076C00009F0A5CE83E08093E9009091E8008091D5
:1076D000E8008E778093E80095FD11C08091E80066
:1076E00080FD04C08EB38111F9CF15C08091E800F0
:1076F0008E778093E80003C08EB3882361F0809179
:10770000E80080FFF9CF84E08093E9008091E800F1
:107710008B778093E800DF91CF91FF90EF90DF901F
:10772000CF90BF90AF909F908F907F906F905F9021
:107730004F900895CF93309100081092000824B71D
:1077400014BE88E10FB6F894809360001092600038
:107750000FBE90E080E80FB6F8948093610090939C
:1077600061000FBE81E085BF82E085BF3F9A209A0D
:10777000559A90E8909361001092610047985D9A45
:10778000289A109289009AEF9093880080936F0056
:1077900083E080938100E0E0F0E085919491019690
:1077A00019F081E08093BA0121FF20C0809100018F
:1077B0003817E1F0809300087894809101018823C4
:1077C00039F08091B2019091B30188379140C8F3AC
:1077D00010920101F8941092000881E08093010159
:1077E0008091BA01882371F0BDDC0CC020FF04C079
:1077F0008091BA018111F8CF23FF04C0809100016C
:107800003813EECFD4D078941092B5011092B40111
:10781000CEEF80910101882301F138DD1BD38091E7
:10782000B4019091B501813A9F4010F0109201018E
:107830008091BF019091C00101969093C001809307
:10784000BF01292F97FF02C02C2F291B220F2817B9
:1078500010F44798DECF479ADCCF8091E00081603A
:107860008093E0007FDC80E090E0CF910895292FA5
:1078700030E02230310539F02330310549F0213034
:10788000310561F410C08EE390E029E531E01EC0BF
:10789000882371F0813089F08230A1F080E090E09F
:1078A00020E030E013C082E190E027E931E00EC033
:1078B00084E090E025E531E009C08EE190E025E329
:1078C00031E004C08AE290E029E031E0FA0131833E
:1078D000208308958093E900EBEEF0E080818160E1
:1078E0008083EDEEF0E010826093EC0040838091A5
:1078F000EE00881F8827881F08958091C30187FDA7
:1079000005C08091E80080FF0DC010C08091E800A4
:1079100082FD04C08EB38111F9CF08958091E800F3
:107920008B7707C08EB38111ECCF08958091E8006A
:107930008E778093E80008950F931F93CF93DF9382
:1079400041D048D0C8EDD0E088818F778883888186
:107950008068888388818F7D888319BC1EBA1092C5
:10796000C10100EE10E0F80180818B7F8083888167
:107970008160888342E060E080E0ACDFE1EEF0E02F
:1079800080818E7F8083E2EEF0E080818160808361
:10799000808188608083F80180818E7F80838881E8
:1079A00080618883DF91CF911F910F910895E7ED5A
:1079B000F0E08081816080838AE482BF81E08093EF
:1079C000C201BACFE8EDF0E080818E7F8083109213
:1079D000E20008951092DA001092E10008951F92DB
:1079E0000F920FB60F9211242F933F934F935F93F3
:1079F0006F937F938F939F93AF93BF93EF93FF9377
:107A00008091DA0080FF19C08091D80080FF15C0F6
:107A10008091DA008E7F8093DA008091D90019BCC2
:107A200080FF09C082E089BD09B400FEFDCF81E07E
:107A30008EBB0FD202C01EBA0CD28091E10080FF33
:107A400017C08091E20080FF13C08091E2008E7F1A
:107A50008093E2008091E20080618093E200809157
:107A6000D80080628093D80019BC85E08EBBF1D12C
:107A70008091E10084FF2BC08091E20084FF27C049
:107A800019BC82E089BD09B400FEFDCF8091D80009
:107A90008F7D8093D8008091E1008F7E8093E100FC
:107AA0008091E2008F7E8093E2008091E20081600D
:107AB0008093E2008091C101811104C08091E300B4
:107AC00087FF02C084E001C081E08EBBC2D18091FB
:107AD000E10083FF21C08091E20083FF1DC08091FF
:107AE000E100877F8093E10082E08EBB1092C101AC
:107AF0008091E1008E7F8093E1008091E2008E7F93
:107B00008093E2008091E20080618093E20042E095
:107B100060E080E0DFDE9DD1FF91EF91BF91AF91FA
:107B20009F918F917F916F915F914F913F912F9195
:107B30000F900FBE0F901F9018952091C9013091A2
:107B4000CA012617370748F06115710539F42091ED
:107B5000E8002E772093E80001C0B901FC0120E085
:107B600061157105A1F18EB38823E1F18530E1F152
:107B70008091E80083FD34C08091E80082FF06C058
:107B80008091E80082FF26C080E008958091E8009F
:107B900080FFE6CF2091F3008091F20090E0922BDD
:107BA0006115710551F08830910538F421912093C9
:107BB000F100615071090196F3CF21E0089709F0B7
:107BC00020E08091E8008E778093E800C9CF2111F2
:107BD000CACFD6CF8EB3882329F0853089F604C06A
:107BE00081E0089582E0089583E0089561157105AC
:107BF00029F42091E8002B772093E80061157105A6
:107C000031F12EB3222361F1253061F12091E8009A
:107C100023FD22C02091E80022FFF3CFFC01CF0119
:107C20004091F3002091F20030E0342B232B09F334
:107C30008091F1008193CF01615071096115710547
:107C400071F7D7CF8EB3882359F0853059F08091E2
:107C5000E80080FFF7CF02C081E0089580E008953A
:107C600082E0089583E008950F931F93CF93DF93ED
:107C700000D0CDB7DEB7E3ECF1E08091F100819365
:107C800081E0EB3CF807C9F7D3DA8091E80083FF85
:107C9000CBC02091C3013091C401832F90E08A3082
:107CA000910508F0C1C0FC01EA5AF74CE4C0223843
:107CB00009F0BAC08091C70187708093E900909164
:107CC000EB001092E9008091E800877F8093E80044
:107CD00095FB882780F98093F1001092F10082C013
:107CE000822F8D7F09F0A0C0223009F09DC08091C5
:107CF000C501811124C02091C701277009F494C0E7
:107D00002093E9008091EB0080FF19C08091EB0087
:107D1000333011F4806211C080618093EB0081E008
:107D200090E0022E01C0880F0A94EAF78093EA00DF
:107D30001092EA008091EB0088608093EB00109233
:107D4000E9008091E800877F50C021116DC010913B
:107D5000C5011F770FB7F8948091E800877F809363
:107D6000E800CBDD8091E80080FFFCCF8091E3004C
:107D70008078812B8093E30080688093E300112357
:107D800011F083E001C082E08EBB0FBF4DC02058D0
:107D9000223008F049C0AE014F5F5F4F6091C701CC
:107DA0008091C5019091C60162DD009709F43CC045
:107DB0002091E800277F2093E800BC0189819A8107
:107DC000BCDE8091E8008B778093E8002DC02038DE
:107DD00059F58091E800877F8093E8008091C10188
:107DE0008093F1008091E8008E778093E80085DD34
:107DF0001BC0211119C09091C5019230A8F4809147
:107E0000E800877F8093E8009093C10176DD809140
:107E1000C101811104C08091E30087FF02C084E0AA
:107E200001C081E08EBBF8D98091E80083FF0AC0D1
:107E30008091EB0080628093EB008091E800877F67
:107E40008093E8000F900F90DF91CF911F910F91D9
:107E500008950895CF938EB3882359F0C091E90017
:107E6000C7701092E9008091E80083FDFDDEC093A9
:107E7000E900CF910895EE0FFF1F0590F491E02DDA
:107E80000994F999FECF92BD81BDF89A992780B5E2
:107E90000895262FF999FECF1FBA92BD81BD20BD4E
:107EA0000FB6F894FA9AF99A0FBE01960895F894CD
:027EB000FFCF02
:107EB2007701000000000000082A035300700061EF
:107EC2000072006B00460075006E00200045006CD9
:107ED2000065006300740072006F006E0069006349
:107EE20000730000001E0351006400750069006EFB
:107EF200006F0020004D0069006E00690020002024
:107F020000200000000403090409023E00020100EF
:107F12008032090400000102020100052400100160
:107F2200042402040524060001070582030800FF59
:107F320009040100020A0000000705040210000102
:107F42000705830210000112011001020000084F10
:107F52001B4D510100020100014341544552494E5B
:027F62004100DC
:040000030000700089
:00000001FF
