:100000000C9468000C9490000C9490000C94900058
:100010000C9490000C9490000C9490000C94900020
:100020000C9490000C9490000C9490000C94150388
:100030000C9490000C9490000C9490000C94900000
:100040000C94AE070C9492000C94C4000C94900095
:100050000C9490000C9490000C9490000C949000E0
:100060000C94EC050C949000000000002400270084
:100070002A0000000000250028002B0000000000DE
:1000800023002600290004040404040404040202DA
:100090000202020203030303030303030202010239
:1000A0000408102040800102040810200102040806
:1000B0001020408040800000000700020100000383
:1000C00004060000000000000000000000002905F8
:1000D00011241FBECFEFD8E0DEBFCDBF14E0A0E0FB
:1000E000B1E0ECE2F3E102C005900D92A03AB10755
:1000F000D9F715E0A0EAB4E001C01D92A83BB10712
:10010000E1F710E0C0EDD0E004C02297FE010E94AC
:100110009009CE3CD107C9F70E94DA080C949409E3
:100120000C9400001F920F920FB60F9211242F9380
:100130003F934F938F939F93EF93FF93F894E091A6
:10014000E004F091E10431969F012F7330703197F4
:100150004EB58091E2049091E3042817390739F0F5
:10016000E056FB4F40833093E1042093E004789401
:10017000FF91EF919F918F914F913F912F910F9010
:100180000FBE0F901F9018951F920F920FB60F92EF
:1001900011242F933F934F938F939F93EF93FF934C
:1001A000F894E091E004F091E10431969F012F73FF
:1001B000307031974091C6008091E2049091E30441
:1001C0002817390739F0E056FB4F40833093E1049C
:1001D0002093E0047894FF91EF919F918F914F913C
:1001E0003F912F910F900FBE0F901F901895CF93B6
:1001F000DF93C2E0D1E0899160E00E94860881E04F
:10020000C830D807C1F7C8E0D1E0899161E00E9409
:10021000860881E0C031D807C1F7DF91CF910895FA
:10022000EF92FF920F931F93CF93DF93082F162F18
:100230000E94F700E12EFF24F701EE5FFE4F808160
:1002400061E00E948608143091F489E061E00E9428
:1002500086088091E90484FF04C086E060E00E9483
:1002600086088091E90485FF41C087E03CC007FF14
:1002700018C0C0E0D0E010E0C8010C2E02C0959577
:1002800087950A94E2F780FF07C0FE01E85FFE4F02
:10029000808160E00E9486082196C730D10561F711
:1002A00017C087E0089F80011124005F1E4FC8E03F
:1002B000D1E0F8018081882321F0888160E00E94EC
:1002C00086080F5F1F4F2196F1E0CF30DF0789F7D7
:1002D0008091E90490E002C095958795EA94E2F751
:1002E00080FF04C086E160E00E948608DF91CF9124
:1002F0001F910F91FF90EF9008958F929F92AF9270
:10030000BF92CF92DF92EF92FF920F931F9387E6F7
:1003100090E09093C5008093C400FEEA8F2EF5E034
:100320009F2EC40162E070E047E60E94A207C4016C
:1003300063E070E040E00E94A20784E395E061E79B
:1003400070E00E94C005C40164E070E041E70E94D3
:10035000A20700D000D080ED97E0A0E0B0E0EDB7BC
:10036000FEB781839283A383B4836FEF70E080E054
:1003700090E020E030E040E050E0EFEFEE2EF12C96
:10038000012D112DAA24BB2465010E94E908709358
:100390000101609300010F900F900F900F90C40126
:1003A00060E070E04FEF0E94A2071F910F91FF9055
:1003B000EF90DF90CF90BF90AF909F908F90089577
:1003C0009F92AF92BF92CF92DF92EF92FF920F93E4
:1003D0001F938091E2049091E304FC01E056FB4FEF
:1003E000908001968F7390709093E3048093E20461
:1003F0008091E404882399F495E7991518F4E8E7C7
:100400009E1669F48091EA0490E0FC01EB51FB4FE9
:1004100090820196837090708093EA04FCC0F6E7A6
:100420009F1671F488E78093E5048093E604809337
:10043000E7048093E8041092E9041092EA04EBC008
:10044000882309F4E6C08C3709F4D2C08D3778F4DC
:10045000893709F4AEC08A3720F4873709F0D6C04F
:1004600019C08A37D1F08B3709F0D0C0BCC08F37A4
:1004700009F43FC0803838F48D3709F4BEC08E3798
:1004800009F0C4C0BFC0803809F499C0813809F0B0
:10049000BDC0A6C09092E904B9C000D000D0692DBB
:1004A00070E080E090E020ED37E040E050E0EDB714
:1004B000FEB7218332834383548320E030E040E061
:1004C00050E0AFEFEA2EF12C012D112DAA24BB2410
:1004D00065010E94E90870930101609300010F908B
:1004E0000F900F900F908EEA95E060E070E0492D3C
:1004F0005DC0F6E09F16C9F1F91590F083E09816FB
:1005000059F1891530F09920F1F091E09916F1F444
:1005100020C0E4E09E1619F1F5E09F16B9F422C060
:1005200089E0981659F1891538F097E0991601F18C
:10053000E8E09E1659F41FC0FAE09F1611F18BE017
:10054000981621F421C000EA11E020C007E610E06F
:100550001DC00FEC10E01AC004E410E017C003E364
:1005600010E014C009E110E011C000E110E00EC07D
:100570000CE010E00BC008E010E008C003E010E061
:1005800005C001E010E002C000E010E01093C500DB
:100590000093C4008EEA95E063E070E0412F0E9472
:1005A000A2078EEA95E062E070E0402F0E94A20769
:1005B0002DC093E0991550F19092EA0427C0892D3F
:1005C00081508E3718F58EEA95E064E070E0492D91
:1005D0000E94A20784E395E0692D0E94AC0516C035
:1005E0000E947D0113C0E0E89E2A9092E5040EC0AF
:1005F000F0E89F2A9092E60409C080E8982A909239
:10060000E70404C090E8992A9092E8041092E40468
:1006100002C09092E4041F910F91FF90EF90DF9041
:10062000CF90BF90AF909F9008951F920F920FB6FA
:100630000F9211242F933F934F935F936F937F9368
:100640008F939F93AF93BF93EF93FF93F894209171
:10065000E0043091E1048091E2049091E3042817D2
:10066000390711F00E94E0017894FF91EF91BF915A
:10067000AF919F918F917F916F915F914F913F913A
:100680002F910F900FBE0F901F9018958EEA95E056
:1006900064E070E00E949B07682F181644F08EEA11
:1006A00095E064E070E041E70E94A20761E784E31F
:1006B00095E00E94AC0584E395E068E974E00E944F
:1006C000240508958DE060E00E9447088BE060E01B
:1006D0000E9447088AE062E00E94470880EC8CBDD7
:1006E00008951F9380E060E00E94470882E08093B5
:1006F000C00080E98093C10086E08093C2008EEA4A
:1007000095E063E070E00E949B07182F8EEA95E069
:1007100062E070E00E949B07312F20E090E0822B86
:10072000932B21E0803A920719F18F3C910501F15A
:1007300087369105E9F084349105D1F08333910532
:10074000B9F082329105A1F08931910589F08031AB
:10075000910571F08C30910559F08830910541F088
:100760008330910529F08130910511F0009729F42B
:100770009093C5008093C40014C087E690E09093E6
:10078000C5008093C4008EEA95E062E070E047E621
:100790000E94A2078EEA95E063E070E040E00E94CC
:1007A000A2071F910895CF93DF93C0E0D0E0FE0130
:1007B000EB51FB4F80816C2F0E9410018091000152
:1007C0009091010101960E9402082196C530D10541
:1007D00071F70E94F70080910001909101012BEFC9
:1007E0003FEFAC01429FC001439F900D529F900D7F
:1007F00011248F5E984D0E940208DF91CF910895D9
:10080000AF92BF92CF92DF92EF92FF920F931F931E
:10081000CF93DF938AE061E00E9447088AE060E0BE
:100820000E94860881E090E00E9402088AE062E06F
:100830000E94470888E78093E5048093E60480934C
:10084000E7048093E8041092E9041092EA041092FD
:10085000E1041092E0041092E3041092E204C2E07A
:10086000D1E01991812F61E00E944708812F60E05B
:100870000E94860881E0C830D80799F7C8E0D1E027
:100880001991812F61E00E944708812F61E00E9449
:100890008608E1E0C031DE0799F78EEA95E060E076
:1008A00070E00E949B0700D000D090E0A0E0B0E094
:1008B00020ED37E040E050E0EDB7FEB72183328312
:1008C00043835483BC01CD0120E030E040E050E0A0
:1008D000BFEFEB2EF12C012D112DAA24BB246501B5
:1008E0000E94E908709301016093000189E0809300
:1008F00081008FEF90E0909389008093880082E0E0
:1009000080936F000F900F900F900F900E947103D3
:100910000E9462030E9446037894DF91CF911F9159
:100920000F91FF90EF90DF90CF90BF90AF90089520
:10093000CF93DF931EC0C091E004D091E1042196D3
:10094000CF73D07084E395E00E94CC04282F80916F
:10095000E2049091E304C817D90759F0E091E0044C
:10096000F091E104E056FB4F2083D093E104C09363
:10097000E00484E395E00E94C30418161906DCF233
:10098000DF91CF91089520910C0530E080910B0507
:10099000281B3109C901089540910B0580910C0570
:1009A000481718F02FEF3FEF0AC0E42FF0E0E551B1
:1009B000FB4F8081282F30E04F5F40930B05C9012A
:1009C0000895E0910B0580910C05E81718F0EFEF02
:1009D000FFEF06C0F0E0E551FB4F8081E82FF0E02B
:1009E000CF0108950895AC0120913205309133056F
:1009F00021153105E1F090910B0580910C059817B8
:100A0000B0F090E008C0FA01EA0FFB1F8081A55109
:100A1000BB4F8C939F5FA92FB0E0A617B7079CF33D
:100A200010920B0560930C05CB01F901099508950F
:100A3000E0913005F0913105309729F010922D05A5
:100A400010922E0509950895709333056093320531
:100A50000895109237051092360588EE93E0A0E0D5
:100A6000B0E08093380590933905A0933A05B09390
:100A70003B0584E994E0909335058093340508950F
:100A8000CF92DF92EF92FF920F931F93CF93DF935A
:100A90007C016B018A0180912F058823A1F0C0E0C1
:100AA000D0E00DC0D701ED91FC91D601AC0FBD1F78
:100AB0000190F081E02DC7016C9109952196C01736
:100AC000D10780F304C0CB01642F0E94C705C80181
:100AD000DF91CF911F910F91FF90EF90DF90CF901A
:100AE0000895DF93CF930F92CDB7DEB7FC016983F2
:100AF00080912F058823C9F080912E05803238F02F
:100B000081E090E09383828320E030E015C0809103
:100B10002D05E82FF0E0E35FFA4F998190838F5F16
:100B200080932D0580932E0505C0CE01019661E0CE
:100B30000E94C70521E030E0C9010F90CF91DF91FD
:100B4000089510920B0510920C0510922D0510922D
:100B50002E050E947D0708950F931F938C01862F09
:100B60000E94C30588E195E00E94E70583EF94E0C9
:100B70000E94E205C8010E94A1051F910F910895EE
:100B80000E94AC050895880F8093BA000895482FFD
:100B9000613210F081E0089580914005843011F0B9
:100BA00082E0089560938B05AAE6B5E0842F9C014E
:100BB000F90102C081918D938E2F841B8617D0F38B
:100BC00080E008959093470580934605089590939B
:100BD00045058093440508951F920F920FB60F921A
:100BE00011242F933F934F935F936F937F938F9332
:100BF0009F93AF93BF93EF93FF938091B90090E0E1
:100C0000887F90708036910509F4F2C08136910595
:100C1000CCF58832910509F47BC089329105B4F492
:100C20008031910509F46FC0813191053CF4009742
:100C300009F447C1089709F04FC165C08831910593
:100C400009F466C0809709F047C182C080349105DD
:100C500009F4A4C08134910544F48033910509F46A
:100C600082C0C89709F038C189C08035910509F460
:100C700089C08835910509F496C08834910509F03A
:100C80002BC1AEC08839910509F413C1893991058A
:100C9000ECF48837910509F4ABC0893791054CF421
:100CA0008836910509F4A4C08037910509F014C174
:100CB0009FC08838910509F4FCC08039910509F47A
:100CC0009DC08038910509F007C198C0803B91050F
:100CD00009F4C6C0813B91054CF4803A910509F4B2
:100CE0009FC0883A910509F0F7C0BAC0803C9105D1
:100CF00009F4E3C0883C910509F4DFC0883B910505
:100D000009F0EAC0C2C0809141058093BB00CFC00A
:100D10009091680580916905981768F4909168052D
:100D2000E92FF0E0E85BFA4F80818093BB009F5F82
:100D300090936805BCC080914205882309F44BC09C
:100D400085ED8093BC008091BC0084FDFCCFC2C0C7
:100D500080E28093AD0585ED8093BC008091BC005E
:100D600084FDFCCFB7C080E38093AD0585ED809313
:100D7000BC008091BC0084FDFCCFACC088E38093B4
:100D8000AD059BC0809168059091BB00E82FF0E015
:100D9000E85BFA4F90838F5F8093680590916805B8
:100DA0008091690582C0809168059091BB00E82F11
:100DB000F0E0E85BFA4F90838F5F80936805809145
:100DC0004205882341F085ED8093BC008091BC00F2
:100DD00084FDFCCF7FC081E08093430584EA6EC030
:100DE00085ED8093BC008091BC0084FDFCCF72C077
:100DF00083E0809340051092AC0559C08091AC050A
:100E0000803208F056C08091AC059091BB00E82F6D
:100E1000F0E0E457FA4F90838F5F8093AC0547C0B2
:100E20008091AC05803230F4E091AC05F0E0E457FD
:100E3000FA4F108285ED8093BC008091BC0084FD48
:100E4000FCCF109240056091AC05E0914605F09111
:100E500047058CE895E070E009951092AC052DC02F
:100E600084E08093400510928A0510928B05E091F2
:100E70004405F0914505099580918B05882329F457
:100E800081E080938B0510926A0590918A05E92F85
:100E9000F0E0E659FA4F80818093BB009F5F90930A
:100EA0008A0590918A0580918B05981710F485EC3E
:100EB00001C085E88093BC000FC085EC8093BC0026
:100EC00009C01092AD0585ED8093BC008091BC00F7
:100ED00084FDFCCF10924005FF91EF91BF91AF913F
:100EE0009F918F917F916F915F914F913F912F9142
:100EF0000F900FBE0F901F9018951092400581E043
:100F0000809342051092430582E161E00E948608C9
:100F100083E161E00E948608E9EBF0E080818E7F4A
:100F2000808380818D7F808380E28093B80085E418
:100F30008093BC000895F999FECF72BD61BDF89A07
:100F400080B50895F999FECF1FBA72BD61BD40BD4D
:100F50000FB6F894FA9AF99A0FBE08951F920F925D
:100F60000FB60F9211242F933F934F935F936F937C
:100F70007F938F939F93AF93BF932091B30530914D
:100F8000B4054091B5055091B6057091B705DA01E9
:100F9000C9010296A11DB11D672F6A5F6D3730F040
:100FA0006D57DA01C9010396A11DB11D6093B70504
:100FB0008093B3059093B405A093B505B093B6059F
:100FC0008091AF059091B005A091B105B091B205A7
:100FD0000196A11DB11D8093AF059093B005A0931C
:100FE000B105B093B205BF91AF919F918F917F9161
:100FF0006F915F914F913F912F910F900FBE0F9086
:101000001F901895019739F0019729F0880F991FC3
:1010100001970197F1F70895789484B5826084BDB3
:1010200084B5816084BD85B5826085BD85B58160EC
:1010300085BDEEE6F0E0808181608083E1E8F0E04C
:101040001082808182608083808181608083E0E87B
:10105000F0E0808181608083E1EBF0E0808184605A
:101060008083E0EBF0E0808181608083EAE7F0E05C
:1010700080818460808380818260808380818160C0
:1010800080838081806880831092C1000895CF930F
:10109000DF93482F50E0CA0182569F4FFC013491E4
:1010A0004A575F4FFA018491882369F190E0880FD5
:1010B000991FFC01E859FF4FA591B491FC01EE582E
:1010C000FF4FC591D491662351F42FB7F8948C91BA
:1010D000932F909589238C93888189230BC062304C
:1010E00061F42FB7F8948C91932F909589238C936A
:1010F0008881832B88832FBF06C09FB7F8948C917B
:10110000832B8C939FBFDF91CF910895482F50E0A0
:10111000CA018A549F4FFC012491CA0182569F4FF5
:10112000FC0194914A575F4FFA013491332309F43B
:1011300040C0222351F1233071F0243028F42130B3
:10114000A1F0223011F514C02630B1F02730C1F0E3
:101150002430D9F404C0809180008F7703C080913F
:1011600080008F7D8093800010C084B58F7702C08F
:1011700084B58F7D84BD09C08091B0008F7703C096
:101180008091B0008F7D8093B000E32FF0E0EE0FF0
:10119000FF1FEE58FF4FA591B4912FB7F894662327
:1011A00021F48C919095892302C08C91892B8C938A
:1011B0002FBF0895CF93DF930E940C080E94000474
:1011C000C0E0D0E00E94D3032097E1F30E9400002A
:1011D000F9CF2F923F924F925F926F927F928F92B0
:1011E0009F92AF92BF92CF92DF92EF92FF920F93B6
:1011F0001F93DF93CF93CDB7DEB73B014C011901AD
:101200002A016D897E898F89988D6A197B098C09DD
:101210009D09621A730A840A950AA40193010E9427
:101220003209E218F30804091509A80197010E9480
:1012300073092A0D3B1D4C1D5D1DB901CA01CF91DB
:10124000DF911F910F91FF90EF90DF90CF90BF90B3
:10125000AF909F908F907F906F905F904F903F9056
:101260002F900895629FD001739FF001829FE00D3F
:10127000F11D649FE00DF11D929FF00D839FF00D15
:10128000749FF00D659FF00D9927729FB00DE11DC1
:10129000F91F639FB00DE11DF91FBD01CF0111249E
:1012A0000895A1E21A2EAA1BBB1BFD010DC0AA1FA7
:1012B000BB1FEE1FFF1FA217B307E407F50720F0BF
:1012C000A21BB30BE40BF50B661F771F881F991F3A
:1012D0001A9469F760957095809590959B01AC0183
:1012E000BD01CF01089597FB092E05260ED057FDAD
:1012F00004D0D7DF0AD0001C38F4509540953095C3
:1013000021953F4F4F4F5F4F0895F6F79095809589
:10131000709561957F4F8F4F9F4F0895EE0FFF1F80
:101320000590F491E02D0994F894FFCFD0071011A7
:1013300003040209080E060F170705160101010133
:101340000101000001010000000001010001010095
:101350000101010101000001000101000001010182
:101360000001010001010100010101010101010170
:101370000000000001010101010101010101010062
:101380000101010101000101010000010101010150
:101390000100000101010000010101010001010043
:1013A0000001010101010000000101010000000035
:1013B000000000000000000000000000000000002D
:1013C000000000000000000000000000000000001D
:1013D000000000000000000000000000000000000D
:1013E00000000000000000000000000000000000FD
:1013F00000000000000000000000000000000000ED
:1014000000000000000000000000000000000000DC
:1014100000000000000000000000000000000000CC
:1014200000000000000000000000000100000001BA
:1014300000000000000000000000000000000000AC
:10144000000000000000000000000000000001009B
:101450000000000001000001010100010101010084
:10146000000000000000000000000000000000007C
:10147000000000000100000000000000000100006A
:101480000000000000000000000000000101010158
:101490000101000001010000000001010001010044
:1014A0000101010101000001000101000001010131
:1014B000000101000101010001010101010101011F
:1014C0000000000001010101010101010101010011
:1014D000010100000000000000000000000000000A
:1014E00000000000000000000000000000000000FC
:1014F00000000000000000000000000000000000EC
:1015000000000001010100010101000001010101D1
:1015100001010000010101000001010101000101C0
:1015200000000101010101000000010101010001B1
:1015300001010100000101000101010001010000A1
:101540000000000101010000000000000000000098
:101550000000000101010000000000000000000088
:10156000010001000101010101010100010100016F
:101570000101010101010000010100000000010062
:101580000101000101000101000000010101010051
:101590000101010101000000000000000000000046
:1015A0000000000000000000000000000101010038
:1015B0000101000000000000000100000101010025
:1015C0000000000000000001010101000000000017
:1015D000000000000000000001000000000000000A
:1015E00000010001010100010101000001010101F0
:1015F00001000000010100010001010101000101E1
:1016000001000101010101000000010101010001CF
:1016100001010100000001000101010000010000C2
:1016200000000001010100000000000000000000B7
:1016300000010100000000000000000000000000A8
:101640000100010001000001010100010101000091
:101650000101010101010000010100000000010081
:101660000101000101000101000000010101010070
:101670000001010100000000000000000000000067
:10168000000000000000000000000000000000005A
:10169000000000000000000000000000000000004A
:1016A000000000000000000000000000000000003A
:1016B000000000000000000000000000000000002A
:1016C00071054005C304CC04E104F20401010000EB
:1016D0000101010101010000010100000000010001
:1016E00001010001010001010000000101010100F0
:1016F00000010101000000000000000000000000E7
:10170000FFFFFFFFFFFFFFFFFFFFFFFFFFFFFFFFE9
:10171000FFFFFFFFFFFFFFFFFFFFFFFFFFFFFFFFD9
:10172000FFFFFFFFFFFFFFFFFFFFFFFFFFFFFFFFC9
:10173000FFFFFFFFFFFFFFFFFFFFFFFFFFFFFFFFB9
:107E0000112484B714BE81FFDED082E08093C000CD
:107E100088E18093C10086E08093C20080E1809376
:107E2000C4008EE0BAD0259ACC24DD248824839423
:107E3000B5E0AB2EA1E19A2EF3E0BF2EA2D08134A3
:107E400061F49FD0082FAFD0023811F0013811F43F
:107E500084E001C083E08DD089C0823411F484E1D4
:107E600003C0853419F485E0A6D080C0853579F447
:107E700088D0E82EFF2485D0082F10E0102F00278F
:107E80000E291F29000F111F8ED068016FC0863583
:107E900021F484E090D080E0DECF843609F040C049
:107EA00070D06FD0082F6DD080E0C81680E7D8065C
:107EB00018F4F601B7BEE895C0E0D1E062D089932E
:107EC0000C17E1F7F0E0CF16F0E7DF0618F0F60147
:107ED000B7BEE89568D007B600FCFDCFA601A0E0CC
:107EE000B1E02C9130E011968C91119790E0982F91
:107EF0008827822B932B1296FA010C0187BEE895F6
:107F000011244E5F5F4FF1E0A038BF0751F7F60133
:107F1000A7BEE89507B600FCFDCF97BEE89526C042
:107F20008437B1F42ED02DD0F82E2BD03CD0F601D2
:107F3000EF2C8F010F5F1F4F84911BD0EA94F80143
:107F4000C1F70894C11CD11CFA94CF0CD11C0EC0EF
:107F5000853739F428D08EE10CD085E90AD08FE03E
:107F60007ACF813511F488E018D01DD080E101D09E
:107F700065CF982F8091C00085FFFCCF9093C600FD
:107F800008958091C00087FFFCCF8091C00084FDE0
:107F900001C0A8958091C6000895E0E6F0E098E160
:107FA000908380830895EDDF803219F088E0F5DF5B
:107FB000FFCF84E1DECF1F93182FE3DF1150E9F7E5
:107FC000F2DF1F91089580E0E8DFEE27FF27099494
:107FD000FFFFFFFFFFFFFFFFFFFFFFFFFFFFFFFFB1
:107FE000FFFFFFFFFFFFFFFFFFFFFFFFFFFFFFFFA1
:107FF000FFFFFFFFFFFFFFFFFFFFFFFFFFFF040487
:00000001FF
