:10000000001000204D0500003D05000041050000E6
:1000100000000000000000000000000000000000E0
:100020000000000000000000000000004505000086
:100030000000000000000000490500000000000072
:1000400010B5064C2378002B07D1054B002B02D0AE
:10005000044800E000BF0123237010BD58000020B9
:1000600000000000DC0E000008B5084B002B03D098
:100070000748084900E000BF07480368002B03D089
:10008000064B002B00D0984708BDC046000000007A
:10009000DC0E00005C000020540000200000000086
:1000A00070B50368041C988B1A1C0821FF320842A3
:1000B00028D0988B174D0143802099839872112383
:1000C00053704021144B917150715E68C0202E40D6
:1000D000800506435E605E693540284358610F48DD
:1000E00018600F4818615D680E4828408025AD02F1
:1000F000284358605868800B800358600023517172
:10010000237105E0137ADA0602D5201C00F0C4FA48
:10011000207970BDFFFFFF8F840100208400002044
:1001200004010020FF3F00F0002303714371044BE2
:10013000016083600B78022213430B707047C04646
:10014000A100000038B5364B2021DA6901200A43AE
:10015000DA61344B06241A7802431A70324B0F22AC
:100160001978914319701978214319702F490C7827
:100170002043087019780A401A701A7860210A43DF
:100180001A702B4B2B4A5A805A7852B2002AFBDB4A
:10019000294B01211A780A431A709A78D107FCD4A6
:1001A00026480268510B1F221140914200D10521BF
:1001B00011408C011D8D2249294021431985046875
:1001C000A10C0A401F2A00D11D221C8D1F210A40AC
:1001D0008C4322431A8502680721D20D0A408A42C5
:1001E00000D103220A40188D1103164A02400A4327
:1001F0001A8519787F220A401A701A780421124849
:100200000A431A7058621A890C218A431A811A8982
:1002100001218A431A810021802200F014FE38BD9A
:1002200000040040584400413C440041594400410E
:10023000000C004006400000005000412460800097
:100240003FF8FFFFFF8FFFFF84010020F7B5141C6C
:10025000234A5F0101971D1CD319061C5869271CEE
:100260004000400F03301033C74006D00F1C8022DF
:10027000596812060A435A6009E02F1C7B1E9F41F1
:10028000184BBF01FF18381C221C00F0D3FD019948
:100290001348083542181761131C5269A104920BC8
:1002A000890C92030A435A6159690F4A02200A4095
:1002B0005A616B01F318D979032211400143D879AF
:1002C0009043021C0A43DA715979802252420A4350
:1002D0005A716B01F318DB799A07FAD5201CFEBD21
:1002E0008401002004010020FF3F00F0F8B51E4EFD
:1002F000041C3378151C002B12D11C4B1C4A1A64A9
:100300005A6C920B92035A64586C1A4A02405A640F
:10031000A2235B00E25C40200243E25401233370DD
:100320004827FF37E25D012313401AD00F4B5A6C68
:100330009204920CAA4202D25D6CAD04AD0C081C72
:100340002A1C0B4900F076FDE25D03231A400121CF
:100350000A43E15D99430B1C1343E35500233370BB
:1003600000E01D1C281CF8BD740000208401002042
:10037000C4000020FF3F00F0FF30827930239A4311
:10038000131C2022002900D11022134383717047CF
:100390000C4BFF305A690221920B92035A61027A88
:1003A00003231A400A43017A99430B1C1343037237
:1003B000827980235B4213438371037A9A07FCD5C9
:1003C0007047C0468401002080235B421943C9B2B4
:1003D0008172704770B5A02303225B00C254134B97
:1003E000134A5C6CC021144089050C4346255C64AB
:1003F000FF35402444550F4D30261D6490256D0077
:1004000046555D6B15402943922559636D00802147
:100410004155094D1D63B0256D0044555C6F224068
:100420005A67B2235B00C15470BDC04684010020EE
:10043000FFFFFF8FC40000204401002030B5364A82
:100440001E23516808209943022319435160334900
:100450008A6902438A613248324A9082908A034311
:100460009382D3689807FCD52F4B01201870187819
:10047000C40704D52C48407840B20028F7DB01209F
:100480009860587840B20028FBDB284C264844602E
:10049000587840B20028FBDB82242348E4014480E2
:1004A000587840B20028FBDB908C8024A0439084D5
:1004B000D068C506FCD51E4C1A48C462D4681948D9
:1004C000E506FBD5848C1B4D2C438484D4681548E9
:1004D000E506FBD5848C02252C438484D068040671
:1004E000FCD51048C0684506F8D5D068C406FCD5D0
:1004F00000229A605A7852B2002AFBDB0E480A4A60
:1005000050605A7852B2002AFBDB00230B724B7208
:100510008B72CB7230BDC0460040004100040040E9
:100520000C06000000080040000C0040010501001E
:10053000B805FF7D040A0000000703000EBEFEE7B9
:100540000DBEFEE705BEFEE702BEFEE70E4A0F48FF
:1005500038B5824204D10E4A0E4B93420ED10AE0C6
:100560000D4C9442F7D00023D1188842F3D9E558B6
:1005700004330D60F8E700F011F804E09342FAD27A
:10058000002102C3FAE7FEE7000000205800002027
:100590008402002058000020E00E000070B5234BBC
:1005A000234A244C9A62802080218022C0050905BC
:1005B000120620250626986099609A6098619961D4
:1005C0005A615D6026709D611E6A1C1C2E4213D00C
:1005D000194B1D686E1C03D16061A161A2610BE023
:1005E000A061A161A26185F30888FF22191C9143D3
:1005F000124A91605B681847FFF720FF62B600F06F
:100600001FF8051C281CAB6898470028FAD08023E7
:10061000DB05A36180231B06A36180231B056361A7
:1006200000F07EFA00F0B4FAFCE7C0460044004156
:10063000004000C0454400410010000000ED00E013
:1006400010B5054B054C2360FFF77CFD201C21688D
:10065000FFF76AFD201C10BD00500041040200207D
:1006600070B55200C0B06C46023222700322627034
:100670005B0801240A19013A15786200002D05D1A2
:1006800069460023FFF7E2FD40B070BD9C42F7DAF7
:100690006E46B5520134EDE7F7B50468051C201C21
:1006A000FF30037AAF4A10210B430372AE4F137829
:1006B000AE493B705378AE4E0B7093783380D1784F
:1006C000338809020B4333801179AA4B1980517981
:1006D0001F8809020F431F809779A7490F80D2799D
:1006E0000F8812023A430A80402242719F489E4F6F
:1006F0000278387812020243A0480F1C8446181C66
:10070000624500D1C3E020DC802149008A4200D14B
:1007100085E109DC812A00D193E0822A00D196E0AC
:10072000802A00D07BE18CE081235B009A4200D1DB
:10073000D6E000DA6FE1C0239B009A4200D16EE15F
:100740008F4B9A4200D166E169E190231B019A42E6
:100750006AD015DCD023DB009A4222D088231B010B
:100760009A426AD0A023DB009A4200D057E1201CB5
:10077000FFF70EFE3188286889B2FFF725FE52E1A7
:10078000804B9A4200D146E100DC48E17E4B9A4220
:1007900000D134E17D4B9A4200D040E133886B7147
:1007A00039E133881B0A012B08D10B8812222868F3
:1007B000934201D80A8892B2754928E133881B0A0E
:1007C000022B08D10B8843222868934201D80A885B
:1007D00092B270491BE133881B0A032B00D01EE143
:1007E0003388DBB2012B17D0002B07D0022B00D0AF
:1007F00015E10B882868DBB2674911E0042201A8E3
:10080000664900F017FB3B8804222868934201D810
:100810003A8892B201A9FAE00B8828686049DBB2F5
:100820000822FFF71DFFFEE03388201C2B71FFF725
:10083000AFFD201CFFF7CEFDF5E0291C01C9012208
:10084000E5E0584900230B8028680222E0E0554982
:1008500000220A80188850221040534A10701E88C7
:100860000F20304018801888032800D9D7E012786C
:100870001B8808335B01E418A379002A01D09B068A
:1008800000E0DB06DB0F0B8028680222BFE019883E
:100890007F229143444AC9B2117018880F21014048
:1008A00019803188002900D0B9E01988002900D1C9
:1008B000B5E01988032900D9B1E012781B88083304
:1008C0005B01E318002A04D05A7930218A432021A1
:1008D00003E05A7930218A4310210A435A719AE081
:1008E00002887F239A43304BD2B21A7001880F22BC
:1008F0000A4002803288002A00D090E00288002A54
:1009000000D18CE00288032A00D988E01B78002BF4
:100910004CD0038808335B01E3189B799A0600D416
:1009200079E00388302108335B01E3181A798A43A0
:1009300020210A431A71038808335B01E318DB792D
:100940005F0668D50388602108335B01E318DA7914
:100950008A4340210A43DA710388022208335B018B
:10096000E3184AE0840000207C000020780000208A
:10097000760000207A0000207E00002002030000A4
:100980000103000021200000A1210000212200001D
:10099000880E0000000000207D0E0000700E000098
:1009A000740E0000800000208200002003880833BD
:1009B0005B01E3189B79D9062DD5038830210833D4
:1009C0005B01E3181A798A4310210A431A710388DC
:1009D00008335B01E318DB799A061CD50388602194
:1009E00008335B01E318DA798A4320210A43DA717C
:1009F0000388012208335B01E3181A710BE00B88AE
:100A000008222868934201D80A8892B20649002336
:100A1000FFF71CFC07E0201CFFF7BAFC03E0201CDA
:100A20000121FFF7A9FCF7BD4400002007B5054BE5
:100A30000122019001A91868131CFFF707FC01208F
:100A40000EBDC0460402002013B5054B6C460734AA
:100A50001868211C0122FFF749FC207816BDC0460A
:100A60000402002010B5074C201CFFF719FB031CE3
:100A70000020834205D022684823FF33D05C012345
:100A8000184010BD0402002010B5054A0C1C031CC0
:100A9000191C10680123221CFFF7D8FB201C10BD75
:100AA0000402002070B5084C061C201C0D1CFFF72A
:100AB000F7FA0023984205D02068311C2A1CFFF762
:100AC00015FC031C181C70BD04020020F8B50C4C6A
:100AD000051C201C0E1CFFF7E3FA0023271C341C06
:100AE00098420AD0002C07D0291C221C3868FFF736
:100AF000FDFB241A2D18F5E7331C181CF8BDC04661
:100B00000402002008B5031C081C111C984700288B
:100B100003D08022014BD205DA6108BD00440041B8
:100B2000044A054B1A60054B00221A60044B7A22D6
:100B30001A7070479C0E00007402002070020020A2
:100B40001C02002008B50A1C0349031C0968C86878
:100B5000191CFFF7D7FF08BD740200200A4B802242
:100B6000D2059A61802212059A61802212069A614A
:100B700072B6EFF30883054A1360036883F30888AD
:100B8000436818477047C04600440041780200207F
:100B9000F0B5974D974C2B6885B01B69201C402100
:100BA0009847002803D08022934B1205DA61934BBB
:100BB000934A1C60934B002110601960914E904A3B
:100BC00037681068874200D310E18C4C21680A789E
:100BD000FF2A00D101E1232A00D0DAE08A4B1B78FA
:100BE000532B39D1B8421AD9884B01371B680131D0
:100BF0003760C01B2160864F984201D2386000E008
:100C00003B60844B3A68186800F014F93B68306820
:100C100021681A183260CA1822607F4A1370794A14
:100C200078481268131C013B03602368774A013B34
:100C30002360794B11681B788B420BD22A68754868
:100C4000C91A006892699047002803D080226A4B35
:100C50001205DA61C04696E0522B0ED16D4A2B6820
:100C600010686A4A5B6911689847002800D18AE0D9
:100C70008022614BD205DA6185E04F2B05D1654BAF
:100C8000624A1B6812681A707DE0482B05D1614BDF
:100C90005E4A1B6812681A8075E0572B05D15D4BC0
:100CA0005A4A1B6812681A606DE06F2B03D1594BCA
:100CB0000121186807E0682B08D1564B53481B6880
:100CC00002211B880360FFF73DFF5CE0772B06D114
:100CD000504B4E481B6804211B680360F3E7472B09
:100CE00009D14A4B1868FFF739FF4C4B1B6883F357
:100CF000088862B647E0562B45D12B684849D8682A
:100D00000722FFF7FFFE2B684649D8680122FFF74C
:100D1000F9FE4549002321603360384A374813689B
:100D20005A1C02601F78002F06D0364A35481268D8
:100D3000131C01330360F0E72B68324ED868326829
:100D4000FFF7E0FE2B683749D8680122FFF7DAFE8B
:100D5000364937602160294A1368581C10601B7897
:100D6000002B03D0336801333360F4E7254A2B6846
:100D70001268D8680192FFF7C5FE2B682C49D86825
:100D80000222FFF7BFFE204B7A221A7000221F4B6F
:100D900022E0111C3039C8B21C4B092804D818684D
:100DA00002011143196018E0111C4139052901D8CD
:100DB000373A04E0111C6139052904D8573A1868FC
:100DC00001010A4308E02C2A03D1124A1968116074
:100DD00001E00D490A7000221A600A4B1A680132BC
:100DE0001A60064B1A6801321A60E7E605B0F0BDDA
:100DF000740200203002002000440041180200204C
:100E000014020020280200201C0200207C02002086
:100E100080020020700200201002002078020020D2
:100E2000D20E0000B80E0000BA0E0000C60E000080
:100E3000CF0E000010B50023934203D0CC5CC45405
:100E40000133F9E710BD031C8218934202D01970D8
:100E50000133FAE770470000F8B5C046F8BC08BC9B
:100E60009E467047F8B5C046F8BC08BC9E46704721
:100E700004030904537061726B46756E004C696C13
:100E8000794D696E690000001201100102000040F6
:100E90004F1B000100020102000100002D0A0000AA
:100EA000490A0000650A0000890A0000A50A00003E
:100EB000890A0000CD0A0000200044656320203428
:100EC00020323031360030313A35393A3433000A85
:100ED0000D004431312D312E3000000000000000A3
:100EE00009024300020100803209040000010202ED
:100EF000000005240010010424020005240600015E
:100F00000524010001070583030800FF090401000F
:100F1000020A0000000705810240000007050202E6
:100F20004000000000C2010000000800690000004D
:100F30004100000000000000FFFFFFFFFFFFFFFF78
:100F4000FFFFFFFFFFFFFFFFFFFFFFFFFFFFFFFFB1
:100F5000FFFFFFFFFFFFFFFFFFFFFFFFFFFFFFFFA1
:100F6000FFFFFFFFFFFFFFFFFFFFFFFFFFFFFFFF91
:100F7000FFFFFFFFFFFFFFFFFFFFFFFFFFFFFFFF81
:100F8000FFFFFFFFFFFFFFFFFFFFFFFFFFFFFFFF71
:100F9000FFFFFFFFFFFFFFFFFFFFFFFFFFFFFFFF61
:100FA000FFFFFFFFFFFFFFFFFFFFFFFFFFFFFFFF51
:100FB000FFFFFFFFFFFFFFFFFFFFFFFFFFFFFFFF41
:100FC000FFFFFFFFFFFFFFFFFFFFFFFFFFFFFFFF31
:100FD000FFFFFFFFFFFFFFFFFFFFFFFFFFFFFFFF21
:100FE000FFFFFFFFFFFFFFFFFFFFFFFFFFFFFFFF11
:100FF000FFFFFFFFFFFFFFFFFFFFFFFFFFFFFFFF01
:1010000000100020451500002D1500002D150000D2
:1010100000000000000000000000000000000000D0
:101020000000000000000000000000002D1500007E
:1010300000000000000000002D1500009D150000BC
:101040002D1500002D1500002D1500002D15000098
:10105000FD1400002D1500002D15000031150000B5
:101060002D150000991300002D1500002D1500000E
:101070002D1500002D1500002D1500002D15000068
:101080002D1500002D1500002D15000010B5064C83
:101090002378002B07D1054B002B02D0044800E039
:1010A00000BF0123237010BD0C01002000000000D0
:1010B000D437000008B5084B002B03D00748084977
:1010C00000E000BF07480368002B03D0064B002B4D
:1010D00000D0984708BDC04600000000D43700008B
:1010E00010010020080100200000000070B5164D1E
:1010F000013D002DFCD1022000F03AFD134C144EAE
:101100002378002812D1002B19D100F055FA33684A
:10111000C01A0A2813D90F4B0122196822708918A6
:101120001960196803290ADD1A6008E0002B06D04F
:1011300000F042FA3368C01A142800D9257000F074
:101140003BFA306070BDC04680BB00002C0100201F
:10115000280100200000002008B50520012100F032
:1011600073FC0620012100F06FFC0720012100F034
:101170006BFC0320012100F067FC0420012100F03A
:1011800063FC0220011C00F05FFC02200249021CEB
:1011900000F032F908BDC046ED100000F0B50520A2
:1011A00085B0012100F0ACFC0620012100F0A8FC74
:1011B0000720012100F0A4FC0320012100F0A0FC85
:1011C0000420012100F09CFC724C2368012BFBD011
:1011D0000520012100F094FC0620002100F090FC85
:1011E0000720012100F08CFCFF25291C032000F0C2
:1011F000A1FB291C042000F09DFB013D012000F013
:10120000E1F9002DF1D12368022B4FD1012523688C
:10121000022B03D00135032DF5D0F8E70126236812
:10122000022B03D00136032EF9D1F3E7012000F0A1
:10123000FDFA052358432D30FF300190019B3020EB
:1012400058430321012E1AD102F00AF80026071C88
:101250002368022B0CD10320012D00D00420311C67
:1012600000F068FB019B002B02D03B1C013BFDD131
:10127000802301365B009E42EAD10226CFE701F0CF
:10128000EFFFFF2703902368022B0CD10320012DD1
:1012900000D00420391C00F04DFB019B002B02D034
:1012A000039B013BFDD1013FEDD2BBE705200021AF
:1012B00000F026FC0720012100F022FC0320002181
:1012C00000F01EFC0420002100F01AFC2368032B10
:1012D0005ED1012000F0AAFA1E2852DC182802DD97
:1012E000029B002B4DD0FA20800000F09DFE0028CC
:1012F00019D1051C0320291C00F01CFBC8235B012D
:10130000013BFDD1802301355B009D42F2D1FF25D9
:101310000320291C00F00EFBC8235B01013BFDD11B
:10132000013DF5D203E00320002100F003FBFA2089
:10133000C00000F079FE002819D1051C0420291CEA
:1013400000F0F8FAC8235B01013BFDD18023013591
:101350005B009D42F2D1FF250420291C00F0EAFA2F
:10136000C8235B01013BFDD1013DF5D203E0042020
:10137000002100F0DFFA0620002100F0C1FB01236C
:1013800004E00620012100F0BBFB002302939DE74F
:1013900005B0F0BD0000002008B5024800F0BCFD1B
:1013A00008BDC0463001002013B50C4C0C49201C70
:1013B00000F082FC0B490C4800F07EFC0B490C4805
:1013C00000F07AFC0123009300230193211C0322E7
:1013D0000423084800F07CFD13BDC04690010020A6
:1013E00000080042000C004294010020001000425E
:1013F0009801002030010020F0B51823434385B048
:101400000292364A1625D3185D5701900391691C44
:1014100062D0102D60D0324B324C196800291FD198
:101420004422314801F0FBFF30491022CA67304B9B
:10143000C02149005A50C12189005858FF26B043A5
:1014400058501A602B4A2C4B5A802378022213439F
:1014500023706378DB09012BFBD0214B01221A603A
:10146000012763693E1CAE4033436361002101984C
:1014700000F096FB1C4A0399AB009950072D00DC45
:101480000027FB00029AED1AAD00042A22D8101C96
:10149000BF0001F0DBFE03080D121700114B0522FF
:1014A000FF18BB6912E00F4904227F18BB690DE0E9
:1014B0000C4ABF18BB69032208E00A4B0222FF183E
:1014C000BB6903E0074901227F18BB69AA40151CCC
:1014D0001D43BD61F6B2E66005B0F0BD28360000E0
:1014E0009C01002000180040A001002004E100E061
:1014F00000E100E005400000000C004070B5002451
:10150000084D01262B69A640334206D0064BA200A7
:10151000D358002B00D098472E610134102CEFD106
:1015200070BDC04600180040A0010020FEE700008A
:1015300008B5034B1B68002B00D0984708BDC04678
:10154000E401002038B51049104CA14206D101F049
:1015500037FF00F065F800F00DFF0BE00C4D8D42F9
:10156000F5D00023CA18E818A24204D20068043358
:101570001060F7E7FEE79042E9D0064B064A934237
:10158000E5D2002204C3F9E7000000200C0100208E
:10159000D83700000C010020DC08002008B500F05E
:1015A0002CF8002801D100F01DF808BD014B18608F
:1015B0007047C046E4010020014B18687047C046E0
:1015C000E801002070B5041E08D0054B1D681E1CE4
:1015D00000F012F833685B1BA342F9D370BDC0461C
:1015E000E801002008B5034B1A6801321A6000F0C8
:1015F00035FB08BDE801002070470020704700005F
:10160000024B5B785BB2002BFADB7047000C0040AA
:10161000024BDB68DA06FBD57047C0460008004085
:10162000F8B53F4B1E2259683E4F914302221143A9
:101630005960B96908200143B9613B4C3B49A1821B
:10164000A18A0A43A282E3689A07FCD5384D012398
:101650002B702B78DA0704D5354B5B785BB2002B07
:10166000F7DB0123AB60FFF7CBFF324B6B60FFF77B
:10167000C7FF8223DB016B80FFF7C2FFA38C8022B0
:101680009343A384FFF7C4FF2B4BE362FFF7C0FF34
:10169000A38C2A4A1343A384FFF7BAFFA38C022228
:1016A0001343A384E36880221F4E1342FAD0F368E9
:1016B0005A06F7D50024FFF7ABFFAC60FFF7A0FF99
:1016C0001F4B6B60FFF79CFF326A1E4B1340336267
:1016D000336A8022934333620323AB601A4B6B60FF
:1016E000FFF78EFF194B1A4A3C727C72BC72FC7277
:1016F0001A60184B184A1B6812685801FF21D20E55
:10170000014011439A06520F12020B1C1343134A55
:101710001385034A536880221343014A5360F8BD7E
:101720000040004100040040000800400C0600009A
:10173000000C004001050100B805FF7D040A00000F
:1017400000070300FFFCFFFF03060100100000205C
:10175000006CDC02246080002060800000200042D9
:10176000294BFA21186810B5890001F079FD274B43
:10177000013898421CD8264B264A5860106AC0216E
:101780000002000A090601431162002407229C603E
:101790001A60214B1C211A6A0A431A621A6AE02154
:1017A0000A431A62196A802252000A431A6200E050
:1017B000FEE7201C0021013400F046F90C2CF8D182
:1017C000164B5A7852B2002AFADB154A5A80154B4A
:1017D0005A7ED209012AFAD0E222D2009A803F2210
:1017E000DA70597E0F4AC9090129FAD0C0235B017A
:1017F000136142239370002000F06AF80A4B06211F
:101800001A6C0A431A6410BD10000020FFFFFF008D
:1018100010E000E000ED00E000040040000C00409B
:10182000134000000020004200080040031C183B49
:1018300010B5042B12D900230C2842D81822424399
:1018400021498A180821515601313AD010241457E1
:10185000611C36D0012100F0A3F9201C72B61B4B8D
:101860005A7ED209012AFAD019691F2210409143E9
:1018700008431861597E154AC9090129FAD011781F
:10188000022001431170597E104AC9090129FAD07A
:10189000117B0220014311731A7ED107FCD50B4A3C
:1018A000518B89B2587E094AC0090128FAD01078B4
:1018B0000224A04310705A7ED209012AFBD062B6DE
:1018C0000B1C181C10BDC04628360000002000422A
:1018D00008B5164A517E131CC9090129F9D00138EF
:1018E000042813D81969124A0A401A615A780F213C
:1018F0008A4301F0ABFC030507090300012100E066
:1019000003210A435A700CE00221FAE71169F0231F
:101910001B050B43136153780F218B4302210B43AB
:1019200053700020FFF782FF08BDC0460020004230
:10193000FFFFFFF0F8B5182343433E4F0826FB187E
:10194000DB68041C0D1C1E4068D00421DA0600D49C
:10195000052100F025F918235C433F19798A364A9E
:10196000CCB209B209128B00002902DDD358002243
:1019700001E0D25800233148002904D005DB0229B8
:1019800003DC2F4900E02F4941804178C909012932
:10199000FBD00221002B20D01A888A431A80DA7BE0
:1019A000D209FCD11A8804210A431A801A884021DE
:1019B0000A43EDB21C191A802576DA7BD209FCD1D4
:1019C000FF221A75DA7BD209FCD11A8802210A4358
:1019D0001A80DA7BD209FCD12AE013688B431360AA
:1019E00093685B01FCD1D36B02210B43D3639368F3
:1019F0005B01FCD11034A4001419656093685B018D
:101A0000FCD1FF23136493685B01FCD113680221AE
:101A10000B43136093685B01FCD109E0012100F0E6
:101A200013F8201C311C7F2D00D9012100F068F82B
:101A3000F8BDC0462836000004000020000C00401D
:101A4000124000001140000010B51824021C201C98
:101A50005043284B1818007A40B2013048D003296F
:101A600046D8081C211C01F0F1FB0233112162430E
:101A700098569A18C301204852681B18991840318B
:101A80000220087001219140596031E0624398566C
:101A900019499A185268C3015B18991840310620F9
:101AA0000870012191405960996121E051435A56D3
:101AB000114859184B68D2011118C8184030062433
:101AC00004700120984048600C49521850600FE0A3
:101AD000624398569A18C301074852681B18991810
:101AE000403108780224A043087001219140996098
:101AF00010BDC0462836000000440041104400419B
:101B0000182270B5151C4543154B08265C19A657BD
:101B1000013624D0EE566568F4012C19114D641974
:101B200004252570441F022C02D8002902D10CE0A4
:101B300000290AD1504319561818436801229A40C7
:101B4000CB0109495B185A6009E05043195618182F
:101B500043680122054D9A40CB015B199A6170BD23
:101B60002836000040440041104400410044004138
:101B700018235843084A082113185956013109D02F
:101B800082560649D20152185B68106AD840012378
:101B9000184000E000207047283600000044004153
:101BA0001822424370B5244C031CA218082010567A
:101BB000421C40D072B6481C0C2837D801F046FBB6
:101BC00039181818181818181807070707000929CE
:101BD00002D1181C002108E00A2902D1181C022198
:101BE00003E00B2922D1181C0121FFF72DFF1DE076
:101BF00018225343E218E3565268104DDB01540893
:101C00005B191C1901203034024204D026780D01E2
:101C10000F21314002E025780F26B54329439A1859
:101C2000C9B22170403213781843107062B6002098
:101C300001E00120404270BD283600000044004110
:101C4000014B18607047C04614000020024B01226F
:101C500052421A607047C04614000020104A1368B0
:101C6000591C1CD0013B1360002B18D172B60D4BD0
:101C70001A7DD107FBD5198B2022FF320A431A8324
:101C8000094ADA61094A1A801A7DD107FCD5BFF3E7
:101C90004F8F074A074BDA60BFF34F8FFEE770475D
:101CA00014000020004000410208000002A5FFFFD0
:101CB0000400FA0500ED00E001607047F7B508ACDC
:101CC000267804689D1E27686C1EA541ECB2920719
:101CD00005683A4327063A432A60026807252940E7
:101CE0005068B501002C00D05C03294301430C432C
:101CF0005460F7BD30B50368C0251C68AD031205FC
:101D00002A402243C024A40209042140114319603F
:101D100003685A6814435C6030BD036801211A6887
:101D20000A431A600268116801231942FBD1D16984
:101D30001942F8D17047036802211A680A431A60F1
:101D40000268D3699907FCD470470268137E99072B
:101D5000FCD57047036800225A8370470368187ED9
:101D60004007C00F70470368187EC00970470368BA
:101D70008022197E52420A431A7670470368188DF2
:101D8000C0B2704703681A7E01200242FBD0198559
:101D9000704700000368184A30B5934208D0174ACC
:101DA000934208D0164A934224D10B22102304E018
:101DB00009220E2301E00A220F23D4B20121114A85
:101DC000A14011600320C221890004405558E00061
:101DD000FF248440A5432C1CC0258540281C20439B
:101DE00050508022D2011343074A538053785BB28C
:101DF000002BFBDB30BDC04600080042000C004257
:101E00000010004200E100E0000C0040F8B5041CA6
:101E1000151C0E1C1F1CFFF7BDFF201CFFF77DFFCC
:101E2000B1001C220A4069072368090C0A431A60A2
:101E3000226884239375012E1AD10821012D00D127
:101E400010210C4B79431868C00001F009FA23688F
:101E500007219A890140D2044903D20C0A439A818E
:101E600023680004C20C9889400B400310439881FA
:101E7000F8BDC046100000200120704708B5036877
:101E80001322DB69984708BD10B5041C0069FFF7F1
:101E900044FF201C143001F03DF810BD08B5006966
:101EA000FFF753FF08BD08B5143001F045F808BD31
:101EB00008B5143001F046F808BD08B5143001F03B
:101EC0002DF808BD08B50069FFF75CFF012008BDCB
:101ED000F7B51D1C08AB1B78041C009309AB1B78DD
:101EE000161C019300234360FA239B008360094B77
:101EF0000F1C08330360143000F0F6FF009A231C17
:101F00005C3327619A70019A1E705D70201CDA7034
:101F1000FEBDC0464837000010B5041C0069FFF73D
:101F20001DFF002807D02069FFF728FF011C201C97
:101F3000143000F0E4FF2069FFF715FF002805D0FA
:101F40002069FFF714FF2069FFF704FF10BDF0239D
:101F5000081C18403038434258417047F0231B0199
:101F6000194080239B0099420CD0C0239B009942CA
:101F700006D080235B000520994204D0002002E0B7
:101F8000072000E0062070470F231940012905D0E3
:101F900002394B424B410220C01A00E0002070473A
:101FA000F0B5031C85B003915C33041C1827187826
:101FB0003B1C43431B4E0821F3185956151CFFF7D1
:101FC000EFFD231C5D33187808214743F61971563D
:101FD000FFF7E6FD01210A1C039B2069FFF716FFAE
:101FE000291C201CFFF7BAFF291C071C201CFFF727
:101FF000CBFF291C061C201CFFF7A9FF391C0090F1
:10200000331C20690122FFF759FE231C5F33197826
:10201000013B1A782069FFF76DFE2069FFF78BFE00
:1020200005B0F0BD28360000002110B5041E8C421A
:1020300004D001F0FDF9211C01F0B6F9081C10BD17
:1020400070B50121051C0520FFF7FEFC06200121CB
:10205000FFF7FAFC07200121FFF7F6FC052000211D
:10206000FFF74EFD06200021FFF74AFD0021072063
:10207000FFF746FD1B20FFF7D9FB061C1920FFF7D1
:10208000D5FB642358430B2101F0EAF8FA2424011C
:102090007443011C201C01F0E3F8F9248442A4419C
:1020A00064420534002D3AD0201C0121FFF728FDA1
:1020B0002D4B013B002BFCD1FF255026201C01217C
:1020C000FFF71EFD00230133AB42FCDD201C002185
:1020D000FFF716FD0023FF22521B934201DC013360
:1020E000F9E7013E002EE9D1013DE6D205200021AD
:1020F000FFF706FD06200021FFF702FD0720002163
:10210000FFF7FEFC05200021FFF79EFC06200021C2
:10211000FFF79AFC07200021FFF796FC70BD5026C0
:10212000201C0121FFF7ECFC00230133AB42FCDD56
:10213000201C0021FFF7E4FC0023FF22521B9342E6
:1021400001DC0133F9E7013E002EE9D1802301359E
:102150005B009D42E3D1201C0121FFF7D1FC024B23
:10216000013B002BFCD1C1E7813E0000F8B54A4B92
:102170004A4C1F784A4DFFB2002F48D000221A70F7
:10218000236902218B4323612B6C06210B432B64B3
:10219000131C444A01339342FBD9434A0020136085
:1021A000FFF74EFF414B424A1978424B1170424AA9
:1021B0001178424A1170424A1178424A1170424ADB
:1021C0001178424A1170424A1178424A1170424ACB
:1021D0001178424A1170424A1178424A1170424ABB
:1021E0001178424A1170424A12681A60414A1268D4
:1021F0001A61414B00221A61404A1268DA60404C71
:10220000201C00F06DF9201C00F0CAF942E0012604
:102210003B481E7000F002FA374B384A9968301C70
:102220001160DF229A60234B314A196811601969E5
:10223000304A11601E4A11781C4A11701F4A1178E9
:102240001D4A11701F4A11781D4A11701F4A1178DA
:102250001D4A11701F4A11781D4A11701F4A1178CA
:102260001D4A11701F4A11781D4A11701F4A1178BA
:102270001D4A1170234A1F601A61234A9A62234A39
:102280009A62FFF7DDFE2A6C06239A432A642269CC
:1022900013432361F8BDC046F801002000ED00E0C3
:1022A00000080040FF9E2400FC01002000020020E6
:1022B0004E44004100440041010200204F440041CF
:1022C000020200204744004103020020464400412E
:1022D000040200205E440041050200205B440041EE
:1022E000060200205F4400410702002042440041F2
:1022F000F0010020EC01002000180040F401002053
:102300008F06002020800000DF7F0040FFFF00C01C
:1023100010B505200121FFF797FB06200121FFF7EB
:1023200093FB07200121FFF78FFB05200021FFF71A
:10233000E7FB06200021FFF7E3FB07200021FFF762
:10234000DFFB0A4B00240B2002211C70FFF77CFBF3
:10235000221C0B200649FFF74FF808200121FFF748
:1023600073FB08200121FFF7CBFB10BDF801002013
:102370006D21000010B5FFF7F3F9FFF7C9FF012049
:10238000FFF720F9084C201C00F0AAF8201C00F0F0
:1023900007F9FEF7E1FEFEF701FF044B002BFAD030
:1023A00000E000BFF7E7C0468F06002000000000F5
:1023B00070B5C2B219495301CB189E68184DC0249C
:1023C0002E40A40526439E60164E800109683018F1
:1023D000083258605201505C0726B0430126304352
:1023E00050549E6935402C439C610F4C5C61505C9D
:1023F0007024A0431024204350549C680B488A1832
:102400002040802464032043986098684021800B1A
:102410008003986053790B43537170BD940600207C
:10242000FFFFFF8FCC0400200C030020FF3F00F0D3
:1024300038B5041C08CC01211A78051C0A431A700F
:102440008022201C0021520000F0E9FF2B689A78BE
:10245000D107FCD45C6238BD134BF0B51B689903FF
:102460005A029B01C90ED20E5B0F1F2900D1052114
:102470001F2A00D11D22072B00D1032304688E01DF
:10248000278D0A491F2539403143218501682A409B
:102490000C8DAC4322430A8502681903108D044B4E
:1024A00003400B431385F0BD246080003FF8FFFF1D
:1024B000FF8FFFFF37B500236C46E3710734201C04
:1024C0000D1C00F00BFE2B681818286000F0ACFE05
:1024D000211C00F063FE2B681818286020783EBD90
:1024E00038B5264B2021DA69051C0A43DA61244BF2
:1024F00001201A78062402431A70224B0F22197801
:10250000914319701978214319701F490C782043A1
:10251000087019780A401A701A7860210A431A70F4
:102520001A4B1B4A5A805A78D209FCD11948FFF736
:102530003DF8194C201CFFF77BFF201CFFF78CFF98
:1025400023687F2219780A401A701A7804210A43F6
:102550001A701A890C218A431A81C1210F4A8900F5
:1025600050580002000A5050802111601A78022150
:102570000A431A7001232B7038BDC0460004004086
:10258000584400413C44004159440041000C004083
:1025900006400000B12E00009406002000E100E09B
:1025A0000078002810D0094B01211B681A898A4342
:1025B0001A811A8B08210A431A831A8B04210A43B1
:1025C0001A83034B00221A607047C046940600200D
:1025D000980700200F4B9A69920B92039A611B682F
:1025E0000222FF331A7298798022524202439A7172
:1025F0001A7A9007FCD5084B081C997A7F22104064
:10260000914301439972997A802252420A439A7205
:102610007047C04694060020005000410078002812
:1026200005D0034B01211B681A890A431A817047A0
:102630009406002010B50B790C1C002B0BD1081C44
:1026400000F05AFD002804D1094B9A69920B9203BD
:102650009A6101200BE000F0E7FD211C00F0D2FDA3
:102660000028F6D1024B9A69920B92039A6110BD31
:102670009406002038B5832A16D1CAB231485301D6
:10268000C3189D69304C89012C40C025AD052C43F1
:102690009C612E4C08326118596103685201D15C6B
:1026A00070208143402044E0022A24D1C8B2254A48
:1026B0004301D3189D68244C89012C40C025AD05E9
:1026C0002C439C60224C126861185960011C08312F
:1026D0004901885C0724A043032420438854996857
:1026E0001C4A0A40802149030A439A609A68920B67
:1026F00092039A6025E0822A1ED1CAB21148530182
:10270000C3189D69104C89012C40C025AD052C4390
:102710009C610E4C08326118596103685201991886
:102720000C798020404220430871D15C70208143A5
:1027300030200143D15404E0002A02D1081CFFF7E5
:1027400037FE38BD94060020FFFFFF8F0C030020EA
:10275000CC040020FF3F00F038B5051C0124064BD7
:10276000A200D258002A06D0211C281C0134FFF7F1
:1027700081FFE4B2F3E738BD18000020CBB2094A6C
:1027800059015118896889040AD0116808335B011E
:10279000C9184A7980235B4213434B710223CB71E2
:1027A0007047C04694060020034BC9B2490159182E
:1027B00088688004800C70479406002070B5CAB207
:1027C000134B1448540189015918031959609D6825
:1027D0001149083229408025AD0229439960996842
:1027E0004026890B890399600368510159180D79B6
:1027F00035430D715101591889794D06FAD55101AA
:102800005918C979CD07FAD50419A068C0B270BDAE
:10281000CC04002094060020FF3F00F038B50C4B9C
:10282000141C1B680D1CFF335A7940210A435A714E
:102830000021FFF7C3FFA04200D9201C0023A342C0
:1028400004D0044A9A5CEA540133F8E738BDC04624
:1028500094060020CC04002010B5C9B20C484901F0
:1028600043189A689204920C3F2A08D9141C9A685B
:10287000403CA404920BA40C9203224302E09A6809
:10288000920B92039A6041188868C0B210BDC0468E
:1028900094060020F7B51C1C1F4B0F1C1B680192EF
:1028A000002B34D0CDB21D4E6B01F3189A68920400
:1028B000920CA24202D29C68A404A40C391CFFF71B
:1028C000CBFF326869015318FF335A7A0091032114
:1028D0008A4301210A431249BF015A72C91901985A
:1028E000221C00F093FD0020844214D0009AB318FB
:1028F0009B689B0483420DD1336808356D015D19D7
:102900002B79402213432B710123EB7102E001204C
:10291000404200E0201CFEBD9807002094060020E5
:10292000CC040020F0B51C1C234B85B01B680F1C89
:10293000161C002B3CD08023DB019C4238D8002C95
:1029400034D0251E3F2D00D940251C4ABB01D31889
:10295000181C311C2A1C039300F058FDF9B2184AC8
:1029600003984B01D3185861A804800C039002917E
:102970009969880B03998003014399610299126850
:1029800008314B01D3180220D87101925A79802066
:1029900003924242039810435871019A4B01D31895
:1029A000DB799807F9D5641B7619C8E7201C01E08C
:1029B0000120404205B0F0BD980700200C03002024
:1029C0009406002070B50E4D1C1C8B01ED18281CC0
:1029D0000E1C111C221C00F019FDF6B209497601EB
:1029E00089194D618A69084B201C13408B618B69E2
:1029F000A2049B0B920C9B0313438B6170BDC046DA
:102A00000C03002094060020FF3F00F0F7B5114BA7
:102A100001901B780F1C141C002B19D10E4B1E7833
:102A2000002E01D1151C08E00C4D0D482E88801990
:102A3000361900F0EBFC2E800AE0002D08D0BA1900
:102A40002B1C01980021FFF7BDFF36182D1AF4E763
:102A5000201CFEBD8E0600208C0600200A030020EC
:102A600009020020F8B50E1C00AF151E012D28D953
:102A7000D31DDB08DB006A46D21A9546081C00F01D
:102A800013FD01306C464000032320706370022266
:102A9000AA420ED23378002B0BD0511CC9B201369A
:102AA000A354A94204D0002302326354D2B2EFE708
:102AB0002A1C0548211CFFF7A9FF431E9841C0B2FC
:102AC00000E00020BD46F8BD8F06002008B5044B8D
:102AD00000221A70034B04491A88FFF797FF08BDBC
:102AE0008C0600200A03002009020020F0B5204ACD
:102AF00087B001230026009102A91370051C0296DD
:102B0000FFF7D8FC03AC092701903A1C201C311CAC
:102B100000F085FC022363708023E371FA232372A3
:102B2000029B0122DB196380019B62712371104AB1
:102B3000009B27701670BB4205D1281C211C1A1C53
:102B4000FFF764FF11E00B4B01221A700A4B211CA6
:102B50003A1C281C1E800296FFF758FF281C02A969
:102B6000FFF7A8FC281CFFF7B1FF012007B0F0BD5C
:102B70008E0600208C0600200A03002070B5CE7857
:102B800086B0051C0C1C022E08D1C9882348FFF70B
:102B9000ADFF031C581E8341D8B23DE000F044FB5A
:102BA000211C00F010FB002803D0C3171B1AD80FFC
:102BB00032E0012E04D1E2881949112A27D823E0F6
:102BC000032E29D1A278002A05D11649E2880B7874
:102BD000934219D81BE0022A03D1A279281C12497A
:102BE00004E0012A05D1A2791049281CFFF73AFF19
:102BF00012E0032A10D100F017FB01A900F0F3FA4C
:102C0000A279281C01A9F1E7D2B2002A00D10A78E2
:102C1000281CFFF7FBFE012006B070BD8F060020C8
:102C20008537000078370000973700007C370000B8
:102C300073B5051C48780C1C0B287BD800F006FBEC
:102C4000081C7A287A3E4306474B6B72002072E0DC
:102C5000097801AA002903D111705170281C09E0DC
:102C6000002313705370344B1B78012B00D1137069
:102C7000281C0021022352E08A780023012A04D173
:102C800001AA137053702D4BEEE72B4A13704CE0E2
:102C90008E78012E07D1294B01AA00211E701170D8
:102CA000281C331C3BE0002E08D1234A012313705B
:102CB000234A9169890B890391613BE0A178281C23
:102CC000FFF788FC36E0281CFFF758FF33E0281C8C
:102CD00000211C4A22E00A780020D3062BD1281CB0
:102CE000FFF73AFDA2781649164B2A201A600A68A7
:102CF000FF30145C03239C4302252C4314544A20C8
:102D0000FF30145C9C4301231C4314548A69920BCA
:102D100092038A610EE00C4A281C00210123FFF770
:102D200051FE07E08A78084B1A60054B9A69920BAE
:102D300092039A61012076BD080200208D060020D2
:102D4000940600209807002090060020014A024BBC
:102D50001A607047005000419406002008B502290F
:102D600007D1134B9B6C9B0420D0124800F014F940
:102D70001CE003290BD10E4BB2221B685200985C59
:102D80008021494201439954022168220CE0012923
:102D90000CD1074B92221B685200985C802149425B
:102DA0000143995402212822FF32995408BDC0469C
:102DB00094060020A8080020F8B5384B071C1C78A2
:102DC000002C6AD1364D2868838B19070DD5201C3D
:102DD000FFF7EEFA2B6810201A1CFF32917A01439C
:102DE0009172304A146008229A832B689A8B50079C
:102DF00001D504229A83FF331A7AD10628D51022EE
:102E00001A725A7940210A4327495A710A78602375
:102E1000381C1A4202D1FFF70BFF01E0FFF70AFC52
:102E2000002806D02B688022FF33997952420A434A
:102E300001E01E4B20229A712B68FF331A7A50064C
:102E400006D540221A72597A602081430A435A7289
:102E50002968FE230E8C00241E40E1B2002E1CD0F7
:102E6000331C0122234113420FD0231C286808334E
:102E70005B01C318D87910420BD1DA7903231340D0
:102E80009A0706D40123A3409E430134092CE4D1C0
:102E900003E0381CFFF762FFF4E7F8BD8C06002062
:102EA0009406002098070020CC040020FF50004129
:102EB00008B50248FFF780FF08BDC0468F06002016
:102EC000F7B58A18061C0D1C01920C1C019B671B90
:102ED0009C4207D0336821781B68301C9847013426
:102EE0000028F3D1381CFEBD10B500214022041C7F
:102EF00000F095FA0023201C2364636410BD026C6B
:102F000010B53F23541C2340446CA34201D081548C
:102F1000036410BD0023036443647047436C026C78
:102F2000934206D0C25C3F2101330B404364101C26
:102F300001E0012040427047026C436CD01A00D57A
:102F400040307047436C026C934201D0C05C01E09A
:102F50000120404270470000094B1A1CFC325068A7
:102F600091681A1C884206D1FF335B7A002B02D18C
:102F70000120404203E0131CFC339B68D05C704787
:102F80009C07002013B502686B46D971073354685B
:102F9000191C0122A04716BDF0B58023C1B0022143
:102FA0006A465B000069FFF775FCEFF310850123AB
:102FB0001D40AC4672B6114A0021131CFC335B68FD
:102FC000814212D0141CFF34667A002E0DD16D465A
:102FD0006F5C5E1CD754F3B2161CFC36B668B34265
:102FE00001D1012666720131EAE7FC325360634683
:102FF000002B00D162B641B0F0BDC0469C07002056
:1030000038B5184C051C231CFC335A689B689A423F
:103010000ED1231CFF335B7A002B09D100690221FA
:10302000FFF7C2FB002803D02B68281C9B69984738
:10303000231CFC335A689B689A4207D1231CFF3338
:103040005B7A002B02D1012040420AE0231CFC33B2
:103050009A68A05C9A68FF340132D2B29A60002369
:10306000637238BD9C07002008B500690321FFF793
:1030700085FB08BD0C4B1A1CFF32527A002A10D176
:103080001A1CFC3251689268914204D14A220749C5
:103090000120FF328854FC3358689B68C01AC0B2C4
:1030A00001E08020400070479C0700200050004154
:1030B00038B5131C084A041CD2790D1C002A06D00E
:1030C000006903212A1CFFF72DFC002801D00123F1
:1030D0006360002038BDC0468800002008B5037832
:1030E00003490233037042220248FFF78FFC08BDF8
:1030F000440000208F06002010B50178031C4278A0
:103100000020A12908D1212A2FD1184818490722C7
:10311000FFF77CFC012028E0212926D1202A05D1B7
:10312000134907221148FFF779FB04E0222A10D146
:103130009A780F4BDA710E4B96221968D2009142A1
:1031400010D1DC7901231C400CD1FA20FEF778FD68
:103150000AE0232A09D1DA789B7812021A43054B38
:103160001A6002E0FEF772FD002010BD8F060020FD
:103170008800002040000020054B00225A60FA22FF
:1031800092009A60034A08321A60034A1A61704733
:10319000A8080020A83700008F06002070B54468FA
:1031A0000E1C0025002C09D02368201C5B68311CF4
:1031B0009847002804DB2D18E468F3E7281C01E099
:1031C0000120404270BD38B544680D1C002C08D069
:1031D0002368201C9B68291C9847002802D1E468BA
:1031E000F4E7201C38BD38B544680D1C002C07D00E
:1031F0002368201C291CDB689847E4682D18F5E734
:103200002C7038BD38B544680D1C002C08D02368DC
:10321000201C1B68291C9847002803D1E468F4E7A8
:10322000201C00E0012038BD064B0122196810B5B2
:103230001140054805D10224047004244470416003
:103240001A6010BDC8080020C008002002B47146F2
:1032500049084900095C49008E4402BC7047C046D9
:10326000002934D00123002210B488422CD3012439
:103270002407A14204D2814202D209011B01F8E7CE
:10328000E400A14204D2814202D249005B00F8E787
:10329000884201D3401A1A434C08A04202D3001BB3
:1032A0005C0822438C08A04202D3001B9C082243E6
:1032B000CC08A04202D3001BDC082243002803D024
:1032C0001B0901D00909E3E7101C10BC7047002856
:1032D00001D00020C04307B4024802A14018029068
:1032E00003BDC046D90000000029F0D003B5FFF7A8
:1032F000B9FF0EBC4243891A1847C046002941D085
:1033000010B4041C4C40A44601230022002900D51F
:103310004942002800D5404288422CD3012424078A
:10332000A14204D2814202D209011B01F8E7E40064
:10333000A14204D2814202D249005B00F8E78842F0
:1033400001D3401A1A434C08A04202D3001B5C0868
:1033500022438C08A04202D3001B9C082243CC08C5
:10336000A04202D3001BDC082243002803D01B0923
:1033700001D00909E3E7101C6446002C00D5404247
:1033800010BC7047002806D003DB0020C043400873
:1033900001E08020000607B4024802A14018029014
:1033A00003BDC046190000000029EBD003B5FFF7AC
:1033B000A7FF0EBC4243891A1847C0467047C04653
:1033C00070B50E4B0E4D0024ED1AAD101E1CAC4214
:1033D00004D0A300F35898470134F8E700F018F937
:1033E000084B094D0024ED1AAD101E1CAC4204D050
:1033F000A300F35898470134F8E770BDF4000020AB
:10340000F4000020F40000200401002010B5002387
:10341000934203D0CC5CC4540133F9E710BD031CC4
:103420008218934202D019700133FAE77047000006
:10343000174B10B51C68A36B002B15D1182000F09A
:103440003BF8144BA0630380134B4380134B8380E2
:10345000134BC380134B0381052343810B238381CB
:103460000122002302614361084B074AA46B2069D3
:10347000616900F091F80122002380185941206110
:1034800061614800400810BD2D7F954C2DF45158C6
:10349000F00000200E330000CDABFFFF341200001F
:1034A0006DE6FFFFECDEFFFF0023C25C0133002A64
:1034B000FBD1581E7047000008B5034B011C18686B
:1034C00000F004F808BDC046F000002070B50323EA
:1034D000CD1C9D430835061C0C2D01D20C2501E0A6
:1034E000002D3FDB8D423DD3204B1C681A1C211C54
:1034F000002913D00868431B0DD40B2B02D90B6095
:10350000CC181EE08C4202D1636813601AE0486850
:1035100060600C1C16E00C1C4968E9E7144C20683C
:10352000002803D1301C00F025F82060301C291C35
:1035300000F020F8431C15D0C41C03239C43844294
:103540000AD12560201C0B300722231D9043C31A8B
:103550000BD05A42E25008E0211A301C00F00AF861
:103560000130EED10C233360002070BDD008002064
:10357000CC08002038B5074C0023051C081C23602C
:1035800000F02CF8431C03D12368002B00D02B60E3
:1035900038BDC046D80800209C460304F0B51B0C7B
:1035A00017043F0C150C1E1C041C000C7E436B43BF
:1035B00047434543FB18300C1818874202D9802333
:1035C0005B02ED18030CED1863465C434A43360476
:1035D000360CA118000480194919F0BD094A136876
:1035E000002B0CD018186946884202D81060181CAD
:1035F0007047054B0C2201201A604042F8E7034B4C
:103600001360EFE7D4080020D8080020DC08002071
:10361000F8B5C046F8BC08BC9E467047F8B5C04631
:10362000F8BC08BC9E467047000000000E00000079
:10363000080000004E00000006000000000010001E
:10364000000000000E000000080000004E00000016
:103650000600000000001000000000000F00000045
:10366000080000004E0000000700010001000100FA
:103670000000000007000000080000004E000000ED
:103680000500030003000700000000000600000022
:10369000080000004E0000000400020002000600C6
:1036A000000000001E0000000B0000000C000000E5
:1036B000FF0000020002FF00000000001B000000ED
:1036C0000B00000004000000FF00FFFFFFFFFF00F1
:1036D000000000001F0000000B0000000C000000B4
:1036E000FF0001020102FF000000000002000000D4
:1036F0000B000000060000000000FFFFFFFFFF00BE
:10370000000000001800000006000000000000009B
:10371000FF00FFFFFFFFFF00000000001900000096
:103720000600000000000000FF00FFFFFFFFFF0099
:10373000000000000500000008000000400000003C
:10374000FF00FFFFFFFF0500000000000000000079
:10375000C51E0000C12E0000A71E0000BB1E0000F9
:10376000B11E00009D1E00007D1E0000A11F000074
:10377000891E0000791E0000040309045370617261
:103780006B46756E0012011001EF0201404F1B00E5
:1037900001000101020301534645204C494C594D9B
:1037A000494E490000000000000000000000000039
:1037B000852F0000B130000075300000013000009E
:1037C000592F000069300000992F00000000000010
:1037D000430000000000000001000000001400424F
:1037E00000180042001C004240420F00FFFFFFFF94
:1037F00000000000830000000200000082000000C2
:1038000000000000000000000000000000000000B8
:103810000000000000000000FFFFFFFF080B000297
:103820000202000009040000010202000005240059
:1038300010010424020605240600010524010101EB
:103840000705810310001009040100020A000000AE
:103850000705020240000007058302400000000047
:1038600000C201000000080000000000000000008D
:103870000000000000000000000000000000000048
:103880000000000000000000D03700000000000031
:103890000000000000000000000000000000000028
:1038A0000000000000000000000000000000000018
:1038B0000000000000000000000000000000000008
:1038C000000000000000000090000020B510000083
:1038D000A91300004D2D0000793100008D1000006B
:1038E00000000000000008000000000000000000D0
:1038F00000000000000000000000000000000000C8
:10390000FFFFFFFFFFFFFFFFFFFFFFFFFFFFFFFFC7
:10391000FFFFFFFFFFFFFFFFFFFFFFFFFFFFFFFFB7
:10392000FFFFFFFFFFFFFFFFFFFFFFFFFFFFFFFFA7
:00000001FF
