:10000000001000204D0500003D05000041050000E6
:1000100000000000000000000000000000000000E0
:100020000000000000000000000000004505000086
:100030000000000000000000490500000000000072
:1000400010B5064C2378002B07D1054B002B02D0AE
:10005000044800E000BF0123237010BD58000020B9
:1000600000000000DC0E000008B5084B002B03D098
:100070000748084900E000BF07480368002B03D089
:10008000064B002B00D0984708BDC046000000007A
:10009000DC0E00005C000020540000200000000086
:1000A00070B50368041C988B1A1C0821FF320842A3
:1000B00028D0988B174D0143802099839872112383
:1000C00053704021144B917150715E68C0202E40D6
:1000D000800506435E605E693540284358610F48DD
:1000E00018600F4818615D680E4828408025AD02F1
:1000F000284358605868800B800358600023517172
:10010000237105E0137ADA0602D5201C00F0C4FA48
:10011000207970BDFFFFFF8F840100208400002044
:1001200004010020FF3F00F0002303714371044BE2
:10013000016083600B78022213430B707047C04646
:10014000A100000038B5364B2021DA6901200A43AE
:10015000DA61344B06241A7802431A70324B0F22AC
:100160001978914319701978214319702F490C7827
:100170002043087019780A401A701A7860210A43DF
:100180001A702B4B2B4A5A805A7852B2002AFBDB4A
:10019000294B01211A780A431A709A78D107FCD4A6
:1001A00026480268510B1F221140914200D10521BF
:1001B00011408C011D8D2249294021431985046875
:1001C000A10C0A401F2A00D11D221C8D1F210A40AC
:1001D0008C4322431A8502680721D20D0A408A42C5
:1001E00000D103220A40188D1103164A02400A4327
:1001F0001A8519787F220A401A701A780421124849
:100200000A431A7058621A890C218A431A811A8982
:1002100001218A431A810021802200F014FE38BD9A
:1002200000040040584400413C440041594400410E
:10023000000C004006400000005000412460800097
:100240003FF8FFFFFF8FFFFF84010020F7B5141C6C
:10025000234A5F0101971D1CD319061C5869271CEE
:100260004000400F03301033C74006D00F1C8022DF
:10027000596812060A435A6009E02F1C7B1E9F41F1
:10028000184BBF01FF18381C221C00F0D3FD019948
:100290001348083542181761131C5269A104920BC8
:1002A000890C92030A435A6159690F4A02200A4095
:1002B0005A616B01F318D979032211400143D879AF
:1002C0009043021C0A43DA715979802252420A4350
:1002D0005A716B01F318DB799A07FAD5201CFEBD21
:1002E0008401002004010020FF3F00F0F8B51E4EFD
:1002F000041C3378151C002B12D11C4B1C4A1A64A9
:100300005A6C920B92035A64586C1A4A02405A640F
:10031000A2235B00E25C40200243E25401233370DD
:100320004827FF37E25D012313401AD00F4B5A6C68
:100330009204920CAA4202D25D6CAD04AD0C081C72
:100340002A1C0B4900F076FDE25D03231A400121CF
:100350000A43E15D99430B1C1343E35500233370BB
:1003600000E01D1C281CF8BD740000208401002042
:10037000C4000020FF3F00F0FF30827930239A4311
:10038000131C2022002900D11022134383717047CF
:100390000C4BFF305A690221920B92035A61027A88
:1003A00003231A400A43017A99430B1C1343037237
:1003B000827980235B4213438371037A9A07FCD5C9
:1003C0007047C0468401002080235B421943C9B2B4
:1003D0008172704770B5A02303225B00C254134B97
:1003E000134A5C6CC021144089050C4346255C64AB
:1003F000FF35402444550F4D30261D6490256D0077
:1004000046555D6B15402943922559636D00802147
:100410004155094D1D63B0256D0044555C6F224068
:100420005A67B2235B00C15470BDC04684010020EE
:10043000FFFFFF8FC40000204401002030B5364A82
:100440001E23516808209943022319435160334900
:100450008A6902438A613248324A9082908A034311
:100460009382D3689807FCD52F4B01201870187819
:10047000C40704D52C48407840B20028F7DB01209F
:100480009860587840B20028FBDB284C264844602E
:10049000587840B20028FBDB82242348E4014480E2
:1004A000587840B20028FBDB908C8024A0439084D5
:1004B000D068C506FCD51E4C1A48C462D4681948D9
:1004C000E506FBD5848C1B4D2C438484D4681548E9
:1004D000E506FBD5848C02252C438484D068040671
:1004E000FCD51048C0684506F8D5D068C406FCD5D0
:1004F00000229A605A7852B2002AFBDB0E480A4A60
:1005000050605A7852B2002AFBDB00230B724B7208
:100510008B72CB7230BDC0460040004100040040E9
:100520000C06000000080040000C0040010501001E
:10053000B805FF7D040A0000000703000EBEFEE7B9
:100540000DBEFEE705BEFEE702BEFEE70E4A0F48FF
:1005500038B5824204D10E4A0E4B93420ED10AE0C6
:100560000D4C9442F7D00023D1188842F3D9E558B6
:1005700004330D60F8E700F011F804E09342FAD27A
:10058000002102C3FAE7FEE7000000205800002027
:100590008402002058000020E00E000070B5234BBC
:1005A000234A244C9A62802080218022C0050905BC
:1005B000120620250626986099609A6098619961D4
:1005C0005A615D6026709D611E6A1C1C2E4213D00C
:1005D000194B1D686E1C03D16061A161A2610BE023
:1005E000A061A161A26185F30888FF22191C9143D3
:1005F000124A91605B681847FFF720FF62B600F06F
:100600001FF8051C281CAB6898470028FAD08023E7
:10061000DB05A36180231B06A36180231B056361A7
:1006200000F07EFA00F0B4FAFCE7C0460044004156
:10063000004000C0454400410010000000ED00E013
:1006400010B5054B054C2360FFF77CFD201C21688D
:10065000FFF76AFD201C10BD00500041040200207D
:1006600070B55200C0B06C46023222700322627034
:100670005B0801240A19013A15786200002D05D1A2
:1006800069460023FFF7E2FD40B070BD9C42F7DAF7
:100690006E46B5520134EDE7F7B50468051C201C21
:1006A000FF30037AAF4A10210B430372AE4F137829
:1006B000AE493B705378AE4E0B7093783380D1784F
:1006C000338809020B4333801179AA4B1980517981
:1006D0001F8809020F431F809779A7490F80D2799D
:1006E0000F8812023A430A80402242719F489E4F6F
:1006F0000278387812020243A0480F1C8446181C66
:10070000624500D1C3E020DC802149008A4200D14B
:1007100085E109DC812A00D193E0822A00D196E0AC
:10072000802A00D07BE18CE081235B009A4200D1DB
:10073000D6E000DA6FE1C0239B009A4200D16EE15F
:100740008F4B9A4200D166E169E190231B019A42E6
:100750006AD015DCD023DB009A4222D088231B010B
:100760009A426AD0A023DB009A4200D057E1201CB5
:10077000FFF70EFE3188286889B2FFF725FE52E1A7
:10078000804B9A4200D146E100DC48E17E4B9A4220
:1007900000D134E17D4B9A4200D040E133886B7147
:1007A00039E133881B0A012B08D10B8812222868F3
:1007B000934201D80A8892B2754928E133881B0A0E
:1007C000022B08D10B8843222868934201D80A885B
:1007D00092B270491BE133881B0A032B00D01EE143
:1007E0003388DBB2012B17D0002B07D0022B00D0AF
:1007F00015E10B882868DBB2674911E0042201A8E3
:10080000664900F017FB3B8804222868934201D810
:100810003A8892B201A9FAE00B8828686049DBB2F5
:100820000822FFF71DFFFEE03388201C2B71FFF725
:10083000AFFD201CFFF7CEFDF5E0291C01C9012208
:10084000E5E0584900230B8028680222E0E0554982
:1008500000220A80188850221040534A10701E88C7
:100860000F20304018801888032800D9D7E012786C
:100870001B8808335B01E418A379002A01D09B068A
:1008800000E0DB06DB0F0B8028680222BFE019883E
:100890007F229143444AC9B2117018880F21014048
:1008A00019803188002900D0B9E01988002900D1C9
:1008B000B5E01988032900D9B1E012781B88083304
:1008C0005B01E318002A04D05A7930218A432021A1
:1008D00003E05A7930218A4310210A435A719AE081
:1008E00002887F239A43304BD2B21A7001880F22BC
:1008F0000A4002803288002A00D090E00288002A54
:1009000000D18CE00288032A00D988E01B78002BF4
:100910004CD0038808335B01E3189B799A0600D416
:1009200079E00388302108335B01E3181A798A43A0
:1009300020210A431A71038808335B01E318DB792D
:100940005F0668D50388602108335B01E318DA7914
:100950008A4340210A43DA710388022208335B018B
:10096000E3184AE0840000207C000020780000208A
:10097000760000207A0000207E00002002030000A4
:100980000103000021200000A1210000212200001D
:10099000880E0000000000207D0E0000700E000098
:1009A000740E0000800000208200002003880833BD
:1009B0005B01E3189B79D9062DD5038830210833D4
:1009C0005B01E3181A798A4310210A431A710388DC
:1009D00008335B01E318DB799A061CD50388602194
:1009E00008335B01E318DA798A4320210A43DA717C
:1009F0000388012208335B01E3181A710BE00B88AE
:100A000008222868934201D80A8892B20649002336
:100A1000FFF71CFC07E0201CFFF7BAFC03E0201CDA
:100A20000121FFF7A9FCF7BD4400002007B5054BE5
:100A30000122019001A91868131CFFF707FC01208F
:100A40000EBDC0460402002013B5054B6C460734AA
:100A50001868211C0122FFF749FC207816BDC0460A
:100A60000402002010B5074C201CFFF719FB031CE3
:100A70000020834205D022684823FF33D05C012345
:100A8000184010BD0402002010B5054A0C1C031CC0
:100A9000191C10680123221CFFF7D8FB201C10BD75
:100AA0000402002070B5084C061C201C0D1CFFF72A
:100AB000F7FA0023984205D02068311C2A1CFFF762
:100AC00015FC031C181C70BD04020020F8B50C4C6A
:100AD000051C201C0E1CFFF7E3FA0023271C341C06
:100AE00098420AD0002C07D0291C221C3868FFF736
:100AF000FDFB241A2D18F5E7331C181CF8BDC04661
:100B00000402002008B5031C081C111C984700288B
:100B100003D08022014BD205DA6108BD00440041B8
:100B2000044A054B1A60054B00221A60044B7A22D6
:100B30001A7070479C0E00007402002070020020A2
:100B40001C02002008B50A1C0349031C0968C86878
:100B5000191CFFF7D7FF08BD740200200A4B802242
:100B6000D2059A61802212059A61802212069A614A
:100B700072B6EFF30883054A1360036883F30888AD
:100B8000436818477047C04600440041780200207F
:100B9000F0B5974D974C2B6885B01B69201C402100
:100BA0009847002803D08022934B1205DA61934BBB
:100BB000934A1C60934B002110601960914E904A3B
:100BC00037681068874200D310E18C4C21680A789E
:100BD000FF2A00D101E1232A00D0DAE08A4B1B78FA
:100BE000532B39D1B8421AD9884B01371B680131D0
:100BF0003760C01B2160864F984201D2386000E008
:100C00003B60844B3A68186800F014F93B68306820
:100C100021681A183260CA1822607F4A1370794A14
:100C200078481268131C013B03602368774A013B34
:100C30002360794B11681B788B420BD22A68754868
:100C4000C91A006892699047002803D080226A4B35
:100C50001205DA61C04696E0522B0ED16D4A2B6820
:100C600010686A4A5B6911689847002800D18AE0D9
:100C70008022614BD205DA6185E04F2B05D1654BAF
:100C8000624A1B6812681A707DE0482B05D1614BDF
:100C90005E4A1B6812681A8075E0572B05D15D4BC0
:100CA0005A4A1B6812681A606DE06F2B03D1594BCA
:100CB0000121186807E0682B08D1564B53481B6880
:100CC00002211B880360FFF73DFF5CE0772B06D114
:100CD000504B4E481B6804211B680360F3E7472B09
:100CE00009D14A4B1868FFF739FF4C4B1B6883F357
:100CF000088862B647E0562B45D12B684849D8682A
:100D00000722FFF7FFFE2B684649D8680122FFF74C
:100D1000F9FE4549002321603360384A374813689B
:100D20005A1C02601F78002F06D0364A35481268D8
:100D3000131C01330360F0E72B68324ED868326829
:100D4000FFF7E0FE2B683749D8680122FFF7DAFE8B
:100D5000364937602160294A1368581C10601B7897
:100D6000002B03D0336801333360F4E7254A2B6846
:100D70001268D8680192FFF7C5FE2B682C49D86825
:100D80000222FFF7BFFE204B7A221A7000221F4B6F
:100D900022E0111C3039C8B21C4B092804D818684D
:100DA00002011143196018E0111C4139052901D8CD
:100DB000373A04E0111C6139052904D8573A1868FC
:100DC00001010A4308E02C2A03D1124A1968116074
:100DD00001E00D490A7000221A600A4B1A680132BC
:100DE0001A60064B1A6801321A60E7E605B0F0BDDA
:100DF000740200203002002000440041180200204C
:100E000014020020280200201C0200207C02002086
:100E100080020020700200201002002078020020D2
:100E2000D20E0000B80E0000BA0E0000C60E000080
:100E3000CF0E000010B50023934203D0CC5CC45405
:100E40000133F9E710BD031C8218934202D01970D8
:100E50000133FAE770470000F8B5C046F8BC08BC9B
:100E60009E467047F8B5C046F8BC08BC9E46704721
:100E700004030904537061726B46756E004C696C13
:100E8000794D696E690000001201100102000040F6
:100E90004F1B000100020102000100002D0A0000AA
:100EA000490A0000650A0000890A0000A50A00003E
:100EB000890A0000CD0A0000200044656320203428
:100EC00020323031360030313A35393A3433000A85
:100ED0000D004431312D312E3000000000000000A3
:100EE00009024300020100803209040000010202ED
:100EF000000005240010010424020005240600015E
:100F00000524010001070583030800FF090401000F
:100F1000020A0000000705810240000007050202E6
:100F20004000000000C2010000000800690000004D
:080F3000410000000000000078
:040000030000054DA7
:00000001FF
