:10000000D82D002089020000850200008702000030
:1000100000000000000000000000000000000000E0
:100020000000000000000000000000008502000049
:100030000000000000000000850200007D020000BA
:100040008502000085020000850200008502000094
:100050008502000085020000850200008502000084
:100060008502000085020000850200008502000074
:100070008502000085020000850200008502000064
:100080008502000085020000850200008502000054
:100090008502000000000000000000008502000052
:1000A0008502000085020000850200008502000034
:1000B00000000000074B1A00197DC907FCD520215C
:1000C000FF31198304494008D8611980137DDB078B
:1000D000FCD570470040004102A5FFFF10B50400A9
:1000E000044B9C4200D910BD20000134FFF7E2FF11
:1000F000FF34F5E7FFFF0300002330B59A4200D13B
:1001000030BD9C000D5901330551F7E7F0B580254E
:10011000104B114E5C68114FAC435C60002A00D15B
:10012000F0BD1400102A00D91024121B1E801D7D62
:10013000ED07FCD5A400A44600240D590551043454
:100140006445FAD1001909191F801C7DE407FCD50C
:10015000E4E7C0460040004144A5FFFF04A5FFFFBF
:10016000802270B5002304000D005200E958E058C9
:10017000814203D104339342F8D170BD2000FFF7D0
:1001800099FF402229002000FFF7C0FFF5E700009B
:10019000024A53785BB2002BFBDB7047000C004037
:1001A00010230249CA681A42FCD070470008004078
:1001B0001E21F8B50226254A254C5368254D8B4350
:1001C00033435360A660FFF7E3FF234B6360FFF701
:1001D000DFFFAE84FFF7E4FF204B1B689B0E3F2B35
:1001E00000D1203B002602271D4A9B0213431D4AD3
:1001F000EA62AB62AE84FFF7D3FF1B4BAB84FFF721
:10020000CFFFAB8C3B43AB84FFF7CAFF3F22638831
:10021000934380221F4367806388D2011343638026
:10022000A660FFF7B5FF114B6360FFF7B1FFC02178
:100230000F4A104B10485360036A09061B021B0A41
:100240000B430362072396601360F8BD0040004132
:10025000000C0040000800400600010024608000FF
:10026000FF01000080BB0A1C2405000000070300FA
:1002700010E000E0E703000000ED00E010B500F042
:10028000EDF810BDFEE7FEE71E4A1F4B70B51F4993
:100290009A4232D100211E4B1E4A934230D3FF2294
:1002A0001D4B032193431D4A0C2593600222082411
:1002B00030261B4B1B485A62C3788B431343C370D1
:1002C000C378AB432343C370174B987BB0430600FE
:1002D000202030439873987BA84304439C73987BF9
:1002E000884302439A738023104A51680B4353603A
:1002F00000F084FEFEE701CA01C38B42FBD3C9E7CD
:1003000002C3CAE7A81C000000000020CC010020A6
:10031000CC010020D40D00200000000000ED00E022
:10032000FC70004100500041004800410040004185
:10033000F0B5124E7388002B17D108241A0292B21E
:1003400015B2AC4667465500AAB2002F02DA0C4A35
:100350005540AAB2013CA4B2002CF1D15C0032534A
:100360008022013352009342E7D10B0A43405B00E5
:10037000F05A0902484080B2F0BDC046CC010020CE
:100380002110000001230002984200D87047C046A7
:100390000133F9E770B505001C2400200F260B007F
:1003A000E3403340002A09D1002B07D1002C0BD0A9
:1003B000002809D1043C231DF1D170BD092B03DDB8
:1003C00037332B540130F5E73033FAE7054B064A53
:1003D0001A60BFF34F8F054B054ADA60BFF34F8FAA
:1003E000FEE7C046FC7F0020EF6926F000ED00E04C
:1003F0000400FA0510B50B4A1368002B0ED10A4908
:1004000011600A490A6801320A600949086800282F
:1004100006D0824204D30B60FFF7D8FF013B136084
:1004200010BDC046D4030020DC050000000A0020F7
:10043000040A0020054B064A1A60BFF34F8F054B94
:10044000054ADA60BFF34F8FFEE7C046FC7F00200D
:10045000EF6916F000ED00E00400FA0510B5194A46
:1004600019491368013313600A68002A0CD0174831
:100470001018834203D18024154824040460934259
:1004800001D100230B6010BD1248DBB20278002BB3
:1004900010D180210E4B0904196011000A39C9B22C
:1004A0000D4BF02902D91978494219701B78D218DE
:1004B0000270E8E79342E6D18022084B12041A60EA
:1004C000E1E7C046CC030020D003002018FCFFFF6A
:1004D00098440041010000200000002094440041A5
:1004E000074B084A1B681168994207D2FA21C900D4
:1004F0005B1813608022044B12041A607047C046D8
:10050000CC030020D003002094440041044B8022FF
:1005100019001204883198330A601A607047C04687
:100520000044004170470000202370B5354A0F2079
:10053000D1690B43D361012233490B7813430B700C
:10054000324B19788143197006211C7821431970A8
:100550002F490C7822430A701A7802401A706022E0
:1005600019780A431A702B4B2B4A5A805A78D209B1
:10057000FCD12A4B013219780A431A709A78D207B3
:10058000FCD41F2026490A68520B0240824200D147
:1005900005221C8D234D024092012C4022431A85D6
:1005A0000A68920C02401F2A00D1023A1F24188DBB
:1005B0002240A043024307201A850A68D20D024058
:1005C000824200D10322198D0240174812030140D4
:1005D0000A437F211A851A7814480A401A700422A7
:1005E00019780A430C211A7058621A898A431A81B1
:1005F0001A890B398A431A8180220021520001F0A6
:100600003EFA70BD00040040584400413C440041A3
:1006100059440041000C00400640000000500041D9
:10062000246080003FF8FFFFFF8FFFFF4C0A00208F
:10063000F7B51C00314B06005B6A0F0015000193F3
:10064000002C05D1443454432D4BE418FFF7D2FE5F
:1006500063782278934210D2D51ABD4200D93D006A
:10066000002E08D0211DC9182A00300001F0FEF923
:1006700063785B1963702800FEBD019BA1786A0155
:10068000D318002911D1211D196059681D48890B03
:10069000890359605968014059601B495518402128
:1006A0002879014329710121A170144900255118AD
:1006B000019116495218127AD207DCD55D68A278EA
:1006C000EDB22570022A04D11968201D2A0001F01C
:1006D000CDF9BD4200D93D00002E0CD06570211D22
:1006E0002A00300001F0C2F90122019BFF331A7287
:1006F0000023A370BFE76670F6E7C04600500041D4
:100700004C0B0020FF3F00F000510041FF50004122
:1007100010B50023FFF78CFF10BDF8B505000C00E5
:1007200016001F00002C00D1F8BD210028003B005E
:100730003200FFF77DFF241A2D18F3E7F8B50E00FD
:100740001F4955014C6A2C19002B1BD063695B00B3
:100750005B08636120616369B2049B0B920C9B038D
:10076000134363616369174A1748134063612A188A
:10077000022380211500137291712A7A1A42FCD04B
:100780003000F8BD012163695B005B0F03339940C2
:10079000B14208D8043A531E9A416369D2075B00FC
:1007A0005B081343D5E744275743084A0437BF186B
:1007B00001003200380001F059F93800CAE7C0469C
:1007C00000500041FF3F00F0FF5000414C0B002063
:1007D00010B50023FFF7B2FF10BD000010B5054BA8
:1007E0001B888B4200D90B0000221900FFF7F0FF95
:1007F00010BDC046FA03002007B500216B460A0071
:10080000D81D0170FFF7E4FF07BD0000F0B59BB0F5
:10081000FFF7F0FD0822C04CA38B1A400392039B04
:10082000BE4A002B2ED00823A38380231121402011
:10083000A372C024517090715371B94BB94D59686E
:10084000A405294021435960596929400C43B64900
:100850005C611960B549B64C196159680C4080213A
:100860008902214359605968890B89035960507185
:100870000022B04B1A70AF4B1878431E9841C0B29B
:100880001BB0F0BD1021137A8C460B42F3D01172CD
:10089000A949A94D8979A84B0191A7490198CF7918
:1008A0009B883902014309B2029169460989A2482D
:1008B0000091067AC07AAD7A000228439E499F4D86
:1008C000497A2880402509020E439D4836B2B1B2CC
:1008D0005571834200D1B4E13AD88120400083426F
:1008E00000D1C3E117D8822B00D191E108D8802B29
:1008F00000D188E1812B00D185E120239371BAE7F3
:10090000802149008B42F8D00221FF318B42F4D183
:10091000FFF772FFAFE78B48834204D00BD8A221C8
:10092000FF318B42E9D10021082208A801F0A7F885
:10093000082108A8CDE0C02080008342DDD0E7D8A0
:1009400040388342D9D10729D7D1A3317E48C0E0AE
:100950007E498B42DCD000D99AE07D498B4214D885
:1009600001398B4200D3ADE07A498B42DBD0603154
:10097000FF318B42C1D1FFF73FFF8023029A5B42D8
:100980001343654ADBB2937275E788216948090110
:100990008B4200D1A2E180318B42AED1029B302745
:1009A0000370FFF729FFA02303225B00E254C0225B
:1009B0005B4B5C49586C92050840104358644620D4
:1009C000FF30255464488026186490204000275446
:1009D000586B0840104358639220400026545F48EB
:1009E00080261863B02040002554586F084058678F
:1009F000B2204000265403263C302654FC3884465E
:100A00009C44604606680E4016430660A626FF36E4
:100A1000A5551E005248A0363060C0267600A75566
:100A20001F0094373E6880200E4016433E60C22669
:100A30007600A0551E004B4F90363760E0264427C5
:100A40007600A7550436A555A055C42084469C447D
:100A5000604606680E4016430660D42084469C44D7
:100A6000604606680E4016430660F0268020760039
:100A7000A7550436A555A0551C00E4342068F4336E
:100A8000084010432060186801400A431A60F2E6EB
:100A900035498B4200D13BE705D834498B4200D120
:100AA00036E7334932E733498B4200D130E73249E8
:100AB0008B4200D10FE131498B4200D01DE7082164
:100AC0002F4806E0802300995B00994204D112214F
:100AD0002C48FFF783FECEE6802300999B009942C5
:100AE00002D199212848F4E7032F7CD1019B032BE5
:100AF00000D902E708AC48220021200000F0BFFF27
:100B0000019B6770002B43D1043323701F4B63801C
:100B100021782000DDE7C04600500041FF50004131
:100B20004C0A0020FFFFFF8F0C0A0020500B002012
:100B3000FF3F00F0D8030020080A0020FA0300203D
:100B400002030000A1020000F000002021090000C3
:100B500081060000A1030000D80B0020940B0020A8
:100B6000A40C0020600C002021200000210A0000BD
:100B7000210B000021220000A1FE0000A1210000A5
:100B8000E8000020AC1A000040000020090400002A
:100B900004AE3200524B23CB23C200252F001B682A
:100BA0001360AB004F4AF358D01919680122FFF7C0
:100BB000F1FB01353F18042DF3D10023494AD355E9
:100BC000494B4A4A9B799B009D58280000F05FFFE3
:100BD00023000130400020702A7802330135002ABA
:100BE00096D01A70F8E70F2F02D13921404870E7EC
:100BF000212F02D109213F486BE7222F00D07CE64C
:100C000021213D4865E7002308A80380022160E711
:100C1000039B08A803800823194200D06DE6073320
:100C200019400831413349011E4205D0334BC918E0
:100C30008B799B06DB0FE8E7304BC9188B79DB0615
:100C4000F8E70F230B4000D157E608200140009839
:100C5000084300D051E60833284A5B019B1832064E
:100C600002D520225A7153E66246FBE70F230B4060
:100C700000D142E6082001400098084300D03CE63D
:100C80005B01320613D51E491C4A9A185B182021B5
:100C9000D879084200D13BE659711B7A2B4200D12A
:100CA00036E613004022FF331A723E3ADAE7604616
:100CB0001349124A9A185B18D979014200D127E6E4
:100CC000202158711B7A0B4200D121E61300FF331B
:100CD00019720122C6E7002308A803800121F8E663
:100CE0009C1A0000D9030020080A0020FC1A00000A
:100CF00004000020DC000020C01A00000050004169
:100D0000FF50004110B5FFF70FFC0022034B1A7093
:100D10000223034A11780B43137010BDD80300203F
:100D20000050004110B50C000122FFF751FD2000DA
:100D300010BD10B50C000122FFF74AFD200010BDC8
:100D400070B504000D00FFF761FD03000020834231
:100D500004D0022229002000FFF7DAFC70BD70B534
:100D600005000C00FFF752FD002807D000230222E7
:100D700021002800FFF7D1FC200070BD0400FBE734
:100D800030B500232025934200DB30BD0C78002CC9
:100D900003D00131C4540133F5E72C00FAE7000019
:100DA000F8B580220C00050092000021200000F020
:100DB00066FE002D0CD13E224B49200000F056FE6D
:100DC000FF2355225B00E254484B9218E254F8BDD1
:100DD0007E2D24D86B1E3E2B00D93F3B002B11D01B
:100DE0001B02581C424D434EFF301A1F591CAA4289
:100DF00003D8B34211D08BB223800B00023481425E
:100E0000F3D1E4E7F0222100FF2022700A31621CB6
:100E10009142E5D010700132FAE7374BECE7822DB2
:100E200031D87F2DD3D130490B222B312000FFF751
:100E3000A7FF80272823314EE3727D3D3F03F368EF
:100E400020343800002B02D0180000F020FE030AE6
:100E50006377030C2077A377000E2B0AE077A57643
:100E6000E3760B2231002000FFF78AFF67224D2333
:100E700001355242ADB22274637422766376103625
:100E8000052DDCD1A3E72B00833B012B0CD81B4A9B
:100E90001B01D318DD68280000F0F9FD29000200CD
:100EA000200000F0E3FD92E7154B853D29029942B1
:100EB00000D98CE7134B144A2360144B6360FE2364
:100EC0005B00E2508023DB00A3618023A0688022C6
:100ED0009B0103432000A3600D4B52006561E1605C
:100EE0002261E3612030DCE70C1B0000FF01000001
:100EF000FF03000003040000FFFF0000C81B000008
:100F0000FFFF03005546320A306FB10A57515D9E0C
:100F1000882BED6870B516001D000A682E4B0C007A
:100F20009A4251D12D4B4A689A424DD1FE2252002D
:100F30002B4B8A589A4247D18B689A0403D5294A89
:100F4000C969914240D1DB0711D4802322695B003B
:100F50009A420CD1E068C3B2002B08D1224B234A3D
:100F6000C318934203D821002031FFF7F9F8002D70
:100F70002BD0A369002B28D029681D4A8B4206D0AC
:100F8000934201D8002901D001235B422B606369A1
:100F9000934219D80721012219408A40DB08EB1837
:100FA000197AD2B20A4204D168680A4301301A722F
:100FB00068606A682B689A4206D3002E04D10D4BF4
:100FC0001B681E330C4A136070BD002EFCD1094B08
:100FD0001B682D33FF33F5E75546320A57515D9EA6
:100FE000306FB10A882BED6800E0FFFFFFDF0300E0
:100FF00063040000000A0020040A0020F8B53A4DFE
:10100000AB68002B00D0FEE7FFF780FA374B1E6875
:10101000374BF218F8239B029A4213D8354B364AC5
:101020001968364C364B914232D11978354AC90786
:1010300002D4216891422BD0334B22601B68334A83
:1010400032331360FFF7B4F8BFF35F8F62B6FFF778
:1010500059FE4020FFF766FA80270A2301262C4D0F
:10106000FF012B70FFF7D2FB2A4C00280AD023780F
:10107000DBB2002B05D1254A38001360FFF752FA86
:101080002E7026702378002B24D000F0BDFAFCE7E8
:101090001B78DB07DB0F0DD00023802223601E4B63
:1010A00012041A6080239B011A6882F30888AB60DF
:1010B0003047C7E72168194A914201D12360C1E74F
:1010C0002168104B9942E7D0FA2022604000FFF7D8
:1010D00059F9E1E72378002BC4D1FF33C046013B27
:1010E000002BFBD1BEE7C04600ED00E0042000006D
:1010F00000E0FFFFB42000007CB0EE87FC7F002002
:1011000038040040EF6926F0000A0020040A00209D
:1011100000000020FC03002094440041EF6916F019
:1011200010B5054C12220021200000F0A8FCF0238D
:101130002370E63BE37110BD3B060020F8B50500C7
:101140000E0017000024AB68A34200D8F8BD802130
:10115000AA7833008900E868FFF7DFFA80235B0193
:10116000E01801223B00E968FFF7D4FE0134EAE70A
:1011700070B5130006000C00150000200A000121C4
:10118000FFF756FA0023984206D02B0022001F21B9
:101190003000FFF74DFA0123180070BD10B504228E
:1011A0000D210248FFF714FB10BDC0469A01002034
:1011B00010B50B480B494279037912021A4383791F
:1011C0001B041A43C3791B0613431A0A0B714A7195
:1011D0001A0C1B0E8A71CB71FFF7E0FF10BDC046E1
:1011E0001C0600209A01002070B504220D00FFF7B4
:1011F000EFFA164C85420FD0FFF792FF012304222D
:101200002373134B9A700022DA701A715A719A7113
:101210001A735A73FFF7CCFFFFF782FF0023237383
:10122000637A217A1B020B43A17A09040B43E17A0A
:1012300009061943491B0B0A217263720B0C090E34
:10124000A372E172FFF7B4FF70BDC0469A0100209F
:101250003B06002070B5184C142205000021200028
:1012600000F00DFC154A002D1FD021000823D07D71
:1012700008313F26527C32401C2A01D0B24205D1AF
:101280000F4A0C330A800522DBB2CA70191C834254
:1012900000D9011CC9B2002D0BD0023B9BB21B022E
:1012A00023802000FFF7A0FF70BDD07C211D042308
:1012B000DFE7013B2370F4E7000600201C06002056
:1012C0001C0A0000F0B5070000242B4B85B0597CA8
:1012D00003AAD170997C9170D97C5170197D1170DD
:1012E000997D02AAD170DB7D937053880193019B95
:1012F000A34208D8FFF714FF0022204B1A73FFF710
:1013000057FF05B0F0BDFFF781FA0028F9D0039B25
:101310001B4EE518002F1FD031002800FFF740FDBD
:101320008021042289003000FFF752FA134A013469
:10133000517A137A09021943937A1B041943D37A19
:101340001B060B430F495B18190A13725172190CD3
:101350001B0E9172D372CAE780213B003000052238
:101360008900FFF7DAF9084B3A0031002800FFF74F
:10137000D1FDFFF7B5F8D9E71C0600209A0100203F
:101380000004002000FEFFFF50060020F0B585B0ED
:1013900000F03CFB454E002205213000FFF7E8FE3F
:1013A000002858D0737A357A1B022B43B57A404C0B
:1013B0002D042B43F57A00272D061D432B0A63725B
:1013C0002B0CA3722B0E2572E372F37B1E2B1BD00A
:1013D00021D8122B41D013D8BB4215D0032B31D0CA
:1013E000FFF79EFE012305222373324B9A700022E1
:1013F000DA701A715A719A711A7320325A7307E0AF
:101400001A2B39D01B2BEBD1FFF78AFE0023237355
:10141000FFF7CEFE1FE0282B34D00BD8232B35D07E
:10142000252BDDD1802324489B024360234B0821D8
:1014300003600EE02F2BE7D05A2B21D02A2BCFD1DF
:10144000380020E0F37C191C122B00D91221194816
:10145000C9B2FFF7C9FE05B0F0BD194C194920000B
:1014600018220830FFF78CFCF37C191C242B00D9C0
:101470002421C9B22000ECE73800FFF7EBFEEAE7D1
:101480000120FAE70120FFF71DFFE4E70C260E49D3
:10149000320001A800F0EAFAB54203D92672677259
:1014A000A772E7720C2101A8D3E7C0461C060020F2
:1014B0009A0100203B0600201406002000003E7F19
:1014C000A8010020EA1A0000611C000072B6BFF3F8
:1014D0005F8F044B044A9A829A830022034B9A60DE
:1014E0007047C04600500041FF03000000ED00E0DF
:1014F000F0B5C7B00FAF0400FFF7E8FF44220021AA
:10150000380000F0BCFA9822002120A800F0B7FAB9
:1015100002230F21BB70A37862780B40A37063682D
:101520000A400893002307AD264E627009932B737F
:10153000012220ABE16824480796FFF7EBFC20AAC4
:1015400039002000FFF7FAFD627801230D21280001
:10155000FFF7F4F80196002607ADA1783A002800BD
:10156000FFF706FE002823D0019B03AE03936B68B0
:101570007360AB68B36000233373EB7B002B10D038
:101580002A2B1CD1ED8A02AB6DBA5D80ADB2A5608D
:1015900020AA39002000FFF7D1FDB3686D025D1B62
:1015A000B560627801230D213000FFF7C7F8D2E75C
:1015B000064B9E4201D9FEF709FF0136CCE7FEF744
:1015C00039FFEEE755534253FF0F0000F8240100A6
:1015D00030B5EFF30883054C2360036883F3088874
:1015E0004568A847236883F3088830BDC80D0020EC
:1015F00007B5010001226846FEF7CCFE08216846C7
:10160000FFF790FB07BD0000F7B57A230022804C5E
:10161000804922600B7000920193FFF7B7FE7E4D68
:1016200040212800FFF78CFB7C4B1860009B2B545B
:10163000002801D0FEF754FF794B009A1D60794BCA
:101640001A607848754B02681F68BA42E5D2744D3B
:1016500029680B78FF2B36D0734E232B00D0B3E0D4
:101660006C4B1B78532B33D133680132013102604C
:101670002960BA1A9A4200D91A006C4D20682A6073
:1016800000F0F4F9674829680368654ACB18013B04
:10169000036010684B1EC3181360634B644D1B68D6
:1016A0002970C9B28B4203D9591A2068FFF757FB3A
:1016B000C046584B019A1A705B4B009A1A60584A00
:1016C000136801331360574A136801331360B8E796
:1016D000522B04D131682068FFF72BFBE9E74F2B31
:1016E00003D1336822681370E3E7482B03D13368D2
:1016F00022681380DDE7572B0AD14E4B22689A42AD
:1017000002D14D48FEF70EFF236832681A60D0E719
:101710006F2B04D101212068FFF704FBC9E7682B78
:1017200005D1022123681B8833603000F4E7772B52
:1017300004D1236804211B683360F6E7472B09D1E5
:101740003068FFF745FF3D4B1B78002BB1D00121DE
:101750003B48E1E7542BACD04E2BAAD0562B02D1FC
:101760002A213848D8E7582B05D13068FEF7B6FC57
:1017700003213548D0E7592B0DD132682068334B0F
:10178000002A03D1186003213148C5E7920819687F
:10179000FEF7BCFCF7E75A2B8BD13768002625688B
:1017A000EF19AF4209D101212A48FFF7BBFA3000F7
:1017B000FFF71EFF03212848AEE728783100FEF727
:1017C000B7FD01350600ECE71A00303AD1B209291D
:1017D00004D833681B011343336070E71A00413AA1
:1017E000052A03D83268373B1201F4E71A00613A40
:1017F000052A03D83268573B1201ECE72C2B03D1A2
:1018000033682360009BE7E7024A1370FAE7C0469B
:10181000C40D0020780D0020800D0020700D0020E8
:10182000740D00207C0D0020CC0D0020D00D002078
:101830006C0D00200CED00E040004000E8060020A8
:10184000971C00006D1C0000991C0000EC06002095
:101850009D1C0000A11C0000A31C0000F8B50300A3
:10186000473304001A78402103000020FEF7E0FE11
:10187000002801D10020F8BD0023257923706BB228
:10188000002BF7DB3F272000A61DF38F2F404830A9
:10189000C018611D3A0000F0E9F83F23F08F9D4326
:1018A000C01980B2002D01D1F087E3E70023F38750
:1018B000E1E7F0B506000C001F0093B001923F2550
:1018C000AC4203DC2500002F00D140373B0002AAC8
:1018D0002B43137002AB31002A00581C00F0C6F8ED
:1018E0006B4640211A7902A80123FEF727FF7619DB
:1018F000641BE4D113B0F0BD030010B547331A7870
:10190000043148300023FFF7D4FF10BDF7B50400C1
:10191000FFF7A4FF002841D0230048339A88A06C29
:101920001A80002201385A80082865D800F094F8FF
:1019300015052327252A473E3700314E300000F099
:10194000A6F80500200031004C302A0000F08EF887
:1019500029002000FFF7D0FF20E00123E364FF33DC
:1019600023658023DB006365A0235B00A365254B13
:101970001421E365EDE7FEF729FD0021E9E7FEF715
:1019800059FDFAE720000021FFF7B6FF206D1E4B3E
:10199000984203D921005431FEF7E2FBF7BD210044
:1019A000626D5831206DFEF7A7FBE6E72000656DFC
:1019B000216D4C302A00FEF79FFBA900C9E70027E4
:1019C000236D666D5D1CFF35BE4201DC7100C0E712
:1019D00000216B1EFF3B5A1C18780192FEF7A8FCF1
:1019E000019B0100AB42F6D123007A004C33013554
:1019F00098520137FF35E7E701225A80BDE7C0461C
:101A0000F81B0000882BED68FF1F00000748062226
:101A1000030010B547331A70FFF778FF0448072218
:101A2000030047331A70FFF771FF10BDF006002066
:101A30007808002010B5E2B00400FFF747FDC4228B
:101A400000215200684600F01AF847236B441C70CE
:101A50006846FFF75BFFFBE702B47146490849009F
:101A6000095C49008E4402BC7047C046002310B593
:101A70009A4200D110BDCC5CC4540133F8E7030096
:101A80001218934200D1704719700133F9E700230F
:101A9000C25C0133002AFBD1581E70470CA08000A5
:101AA00040A0800044A0800048A0800012011002E5
:101AB000EF0201404F1B2A00014201020301000016
:101AC0000697FF0901A101150026FF007508954042
:101AD0000901810295400901910295010901B102B4
:101AE000C0537061726B46756E0053414D44323184
:101AF000204C6F526153657269616C0000000000F8
:101B0000E11A0000EA1A0000D9030020EB3C9055CE
:101B10004632205546322000020101000240007E7C
:101B20003EF03F0001000100000000000000000046
:101B300000002942004200535041524B46554E008E
:101B4000000046415431362020203C21646F6374EC
:101B50007970652068746D6C3E0A3C68746D6C3EEB
:101B60003C626F64793E3C7363726970743E0A6CC8
:101B70006F636174696F6E2E7265706C6163652846
:101B80002268747470733A2F2F7777772E73706191
:101B9000726B66756E2E636F6D2F70726F647563F6
:101BA00074732F313933313122293B0A3C2F73634F
:101BB000726970743E3C2F626F64793E3C2F68748A
:101BC0006D6C3E0A00000000494E464F5F5546329C
:101BD00054585400F81B0000494E4445582020201A
:101BE00048544D004A1B000043555252454E542064
:101BF000554632000000000055463220426F6F7497
:101C00006C6F616465722076332E342E302D38313E
:101C10002D67613637396462652053464857524F05
:101C20000D0A4D6F64656C3A2053414D44323120AA
:101C30004C6F526153657269616C0D0A426F61723B
:101C4000642D49443A2053414D44323147313841A3
:101C50002D4C6F526153657269616C2D76310D0A9E
:101C6000000000000800003E800200020076312ED5
:101C700031205B41726475696E6F3A58595A5D2024
:101C800046656220313320323032332031303A33EE
:101C9000333A35380A0D000600580A0D00590A0D6E
:081CA000005A00230A0D0000A8
:101CA80001C80000050F3900021810050038B608F1
:101CB80034A909A0478BFDA0768815B665000101F7
:101CC800001C100500DF60DDD88945C74C9CD26533
:101CD8009D9E648A9F00000306AA0002000000007F
:101CE8000902990005010080FA080B0002020201AE
:101CF800000904000001020201000524001001048B
:101D080024020605240600010524010301070583B2
:101D1800030800FF09040100020A0000000705810A
:101D28000240000007050202400000090402000208
:101D38000806500007058402400000070505024018
:101D4800000009040300020300000009210001004B
:101D5800012221000705860340000107050603400C
:101D680000010904040002FF2A0100070587034057
:101D780000010705070340000100000009040300F3
:101D8800020300000300000000C201000000080078
:101D98000A00000000000306AA0008000200040070
:101DA800A0001400030057494E555342000000009C
:101DB8000000000000008400040007002A0044001E
:101DC8006500760069006300650049006E007400D4
:101DD80065007200660061006300650047005500F9
:101DE800490044007300000050007B0039003200B5
:101DF8004300450036003400360032002D0039001B
:101E08004300370037002D003400360046004500F7
:101E18002D0039003300330042002D00330031001B
:101E280043004200390043003500420042003300BD
:101E3800420039007D000000000055534253000065
:101E480000000000000000000080020220000000E6
:101E5800000000000000000000000000000000007A
:0C1E68000000000000000000312E3030AF
:101FF00000000000351A0000F1140000F81B00007A
:00000001FF
