:020000021000EC
:10F000000C9490F80C94AFF80C94AFF80C94AFF803
:10F010000C94AFF80C94AFF80C94AFF80C94AFF8D4
:10F020000C94AFF80C94AFF80C94AFF80C94AFF8C4
:10F030000C94AFF80C94AFF80C94AFF80C94AFF8B4
:10F040000C94AFF80C94AFF80C94AFF80C94AFF8A4
:10F050000C94AFF80C94AFF80C94AFF80C94AFF894
:10F060000C94AFF80C94AFF80C94AFF80C94AFF884
:10F070000C94AFF80C94AFF80C94AFF80C94AFF874
:10F080000C94AFF80C94AFF80C94AFF80C94AFF864
:10F090000C94AFF80C94AFF80C94AFF80C94AFF854
:10F0A0000C94AFF80C94AFF80C94AFF80C94AFF844
:10F0B0000C94AFF80C94AFF80C94AFF80C94AFF834
:10F0C0000C94AFF80C94AFF80C94AFF80C94AFF824
:10F0D0000C94AFF80C94AFF80C94AFF80C94AFF814
:10F0E0000C94AFF80C94AFF80C94AFF80C94AFF804
:10F0F0000C94AFF80C94AFF80C94AFF80C94AFF8F4
:10F100000C94AFF80C94AFF80C94AFF80C94AFF8E3
:10F110000C94AFF80C94AFF80C94AFF80C94AFF8D3
:10F1200011241FBECFEFD1E4DEBFCDBF12E0A0E0BF
:10F13000B2E0EAE6F8EF01E00BBF02C007900D92E3
:10F14000A230B107D9F713E0A2E0B2E001C01D92EE
:10F15000AD30B107E1F70E94CCF90C9433FC0C946C
:10F1600000F8982F80910202813019F0823041F02E
:10F1700008958091C00085FFFCCF9093C60008954C
:10F180008091C80085FFFCCF9093CE0008951F9317
:10F19000982F9595959595959595905D8F708A305A
:10F1A00054F4182F105D892F0E94B1F8812F0E940E
:10F1B000B1F81F910895182F195A892F0E94B1F89C
:10F1C000812F0E94B1F81F910895EF92FF920F9343
:10F1D0001F9380910202813069F1823031F080E02A
:10F1E0001F910F91FF90EF900895EE24FF24870167
:10F1F0008091C80087FD17C00894E11CF11C011D17
:10F20000111D81E4E81682E4F8068FE0080780E02B
:10F21000180770F3E0910402F091050209958091BE
:10F22000C80087FFE9CF8091CE001F910F91FF901A
:10F23000EF900895EE24FF2487018091C00087FDA0
:10F2400017C00894E11CF11C011D111D81E4E81692
:10F2500082E4F8068FE0080780E0180770F3E09179
:10F260000402F091050209958091C00087FFE9CF63
:10F270008091C6001F910F91FF90EF9008951F930A
:10F280000E94E5F8182F0E94B1F8113634F41033BB
:10F290000CF01053812F1F9108951755812F1F9146
:10F2A00008951F930E943FF9182F0E943FF912956D
:10F2B000107F810F1F910895982F209102029923AA
:10F2C00039F0213031F0223061F091509923C9F7A3
:10F2D00008958091C00087FFFCCF8091C6009150B7
:10F2E000F5CF8091C80087FFFCCF8091CE00915070
:10F2F000EDCF1F93182F0E94E5F8803281F08091A6
:10F3000003028F5F80930302853011F01F910895EF
:10F31000E0910402F091050209951F91089584E19E
:10F320000E94B1F8812F0E94B1F880E10E94B1F8EB
:10F330001F9108950E94E5F8803271F080910302D8
:10F340008F5F80930302853009F00895E0910402F5
:10F35000F09105020995089584E10E94B1F880E1D9
:10F360000E94B1F8089540E951E08823A1F0299A5C
:10F3700028EE33E0FA013197F1F721503040D1F710
:10F38000299828EE33E0FA013197F1F72150304007
:10F39000D1F7815061F708950F931F93CF93DF93B7
:10F3A000000081E08093020280E18093C40010920B
:10F3B000C5001092C00086E08093C20088E180936F
:10F3C000C1006898709A219A86E00E94B3F90E9461
:10F3D000E5F88033B1F18133B9F1803409F454C0D8
:10F3E000813409F45AC0823409F469C0853409F4BF
:10F3F0006CC0803531F1823521F1813511F18535CF
:10F4000009F469C0863509F471C0843609F47AC0FC
:10F41000843709F4F5C0853709F455C1863709F4F6
:10F420004AC0809103028F5F80930302853079F692
:10F43000E0910402F091050209950E94E5F88033FD
:10F4400051F60E949AF9C3CF0E94E5F8803249F73D
:10F4500084E10E94B1F881E40E94B1F886E50E943F
:10F46000B1F882E50E94B1F880E20E94B1F889E427
:10F470000E94B1F883E50E94B1F880E50E94B1F8DE
:10F4800080E10E94B1F8A3CF0E94E5F88638C8F267
:10F490000E94E5F80E949AF99ACF0E94E5F8803818
:10F4A00009F4AAC0813809F4A3C0823809F420C144
:10F4B000883909F48CC080E00E9479F988CF84E112
:10F4C0000E945CF90E949AF982CF85E00E945CF963
:10F4D0000E949AF97CCF0E94E5F8809306020E9470
:10F4E000E5F8809307020E949AF971CF0E94E5F82F
:10F4F000803309F470C083E00E945CF980E00E94D0
:10F5000079F965CF0E94E5F8809309030E94E5F838
:10F510008093080380910C038E7F80930C030E94DC
:10F52000E5F8853409F4FCC0809108039091090343
:10F53000892B89F000E010E00E94E5F8F801E85F0F
:10F54000FD4F80830F5F1F4F809108039091090347
:10F550000817190788F30E94E5F8803209F061CF97
:10F5600080910C0380FFEEC02091060230910702CB
:10F57000220F331F30930702209306028091080365
:10F5800090910903892BE1F000E010E0F801E85FB9
:10F59000FD4FC90160810E9425FC20910602309137
:10F5A00007022F5F3F4F30930702209306020F5F41
:10F5B0001F4F80910803909109030817190730F332
:10F5C00084E10E94B1F880E10E94B1F800CF83E0AD
:10F5D0000E9479F9FCCE0E94E5F80E94E5F8182F08
:10F5E0000E94E5F8112309F420C1113009F494C0F8
:10F5F00081E00E9479F9EBCE82E00E9479F9E7CEB2
:10F600000E94E5F8809309030E94E5F880930803BF
:10F61000209106023091070237FD8EC080910C03C5
:10F620008D7F80930C03220F331F309307022093AA
:10F6300006020E94E5F8853409F478C080910C0335
:10F640008E7F80930C030E94E5F8803209F0BFCED4
:10F6500084E10E94B1F88091080390910903892BFD
:10F6600009F442C000E010E0209106023091070248
:10F6700017C0F90184910E94B1F8209106023091DF
:10F6800007022F5F3F4F30930702209306020F5F60
:10F690001F4F80910803909109030817190720F55F
:10F6A00080910C0380FD28C081FFE3CFC901A0E059
:10F6B000B0E080509040AF4FBF4FABBFFC0187918F
:10F6C0000E94B1F8DACF0E94E5F8803209F0A9CEA5
:10F6D00084E10E94B1F88EE10E94B1F887EA0E94AD
:10F6E000B1F881E00E94B1F880E10E94B1F86FCEDC
:10F6F00080E10E9479F96BCEC9010E941DFC0E9435
:10F70000B1F820910602309107022F5F3F4F3093EE
:10F71000070220930602BBCF87EA0E9479F957CEF1
:10F7200080910C03816080930C03FECE80910C03CA
:10F73000816080930C0387CF80910C03826080935B
:10F740000C0371CF8091070287FD73C010920B03E9
:10F7500080910B038BBF8091060290910702880F66
:10F76000991F90930702809306028091080380FFFF
:10F7700009C08091080390910903019690930903B1
:10F7800080930803F894F999FECF1127E0910602BF
:10F79000F0910702C8E0D2E080910803909109033C
:10F7A000103091F40091570001700130D9F303E05B
:10F7B00000935700E8950091570001700130D9F38C
:10F7C00001E100935700E8950990199000915700C6
:10F7D00001700130D9F301E000935700E8951395CB
:10F7E000103898F011270091570001700130D9F3BB
:10F7F00005E000935700E895009157000170013033
:10F80000D9F301E100935700E8953296029709F089
:10F81000C7CF103011F00296E5CF112484E10E9489
:10F82000B1F880E10E94B1F8D2CD8EE10E9479F961
:10F83000CECD81E080930B038BCFF999FECF92BDA3
:10F8400081BDF89A992780B50895262FF999FECFA2
:10F850001FBA92BD81BD20BD0FB6F894FA9AF99AED
:0AF860000FBE01960895F894FFCF43
:02F86A0080001C
:040000031000F000F9
:00000001FF
