:10000000A0D60020890500008505000085050000B8
:100010008505000085050000850500000000000042
:100020000000000000000000000000008505000046
:100030008505000000000000850500008105000026
:100040008505000085050000850500008505000088
:100050008505000085050000850500008505000078
:100060008505000085050000850500008505000068
:100070008505000085050000850500008505000058
:100080008505000085050000850500008505000048
:100090008505000085050000850500008505000038
:1000A0008505000085050000850500008505000028
:1000B0008505000085050000850500008505000018
:1000C0008505000085050000850500008505000008
:1000D00085050000850500008505000085050000F8
:1000E00085050000850500008505000085050000E8
:1000F0000000000085050000850500008505000062
:1001000085050000850500008505000085050000C7
:1001100085050000850500008505000085050000B7
:1001200085050000850500008505000085050000A7
:100130008505000085050000850500008505000097
:100140008505000085050000850500008505000087
:10015000850500008505000000000000000000008B
:10016000000000000000000000000000000000008F
:10017000000000000000000000000000000000007F
:100180008505000085050000850500008505000047
:1001900000000000850500008505000085050000C1
:1001A0008505000085050000850500008505000027
:1001B0008505000085050000850500008505000017
:1001C0008505000085050000850500008505000007
:1001D00085050000850500008505000085050000F7
:1001E00085050000850500008505000085050000E7
:1001F00085050000850500008505000085050000D7
:1002000085050000000000000000000085050000DA
:1002100085050000850500008505000085050000B6
:1002200085050000850500008505000085050000A6
:100230008505000085050000850500008505000096
:100240008505000085050000850500008505000086
:100250008505000085050000850500008505000076
:10026000000000000A49884211D80A4B10B44AF233
:1002700001545A8AD207FCD558619C805A8AD20709
:10028000FCD500F500508842F3D910BC7047704788
:10029000FFFF070000400041531E3AB1043851F8F7
:1002A000042B40F8042F013B5A1CF8D1704700BFC3
:1002B000F0B4194C23886FF305132380638ADD079C
:1002C000FCD54AF21553144DA3806B8ADC07FCD58C
:1002D000FAB1114C4FF0FF374AF2045C042A15467C
:1002E00028BF0425638ADB07FCD500239D4286BF17
:1002F00051F8236040F8236040F823700133042B49
:10030000F4D1AB00521B60611944A4F804C0184436
:10031000E4D1F0BC704700BF004000412DE9F04F30
:10032000584B87B01A8842F480421A801A8842F4E7
:1003300000421A8000AF4FEA50380B1F021F01F134
:10034000FC0C02E0634500F0918053F8045F52F822
:10035000044FA542F6D0DFF838A179611AF80830C9
:100360000646002B4AD148494FEA4812531820311B
:1003700011447A60BB6013F8012B26F4FF548B42C2
:1003800024F01F0405D0002A47D113F8012B8B421B
:10039000F9D1C7F810D0ADF5005DC7F80CD0002A30
:1003A00046D138494B8AD807FCD54AF20153354823
:1003B0004E618B80438AD907FCD501230AF80830A7
:1003C000D2B1FA68314B151BBA6802F1FF387A686E
:1003D0001A44914603E0C14504F580740CD018F826
:1003E000013F002BF7D0291920464022FFF760FF7C
:1003F000C14504F58074F2D1D7F810D07969402254
:100400003046FFF755FF1F4A538ADB07FCD51C37E0
:10041000BD46BDE8F08F8B4204D05A1C8A4203F1DE
:100420000203F8D1C7F810D0ADF5005DC7F80CD0C5
:10043000BB685D1EFB6803F5005BA4EB030903E0EA
:1004400003F580735B450FD015F8012F002AF7D014
:1004500009EB030118464FF4807201F0A7FD034633
:1004600003F580735B45EFD101229AE7064BC0F399
:10047000042003EB48181C37012308F80030BD4660
:10048000BDE8F08F00400041C80A0020E70A0020C4
:10049000880A002030B43248324B0188324A89B28F
:1004A000018093F8CE1041F0010183F8CE1093F84B
:1004B000B7100C2060F3030183F8B710137843F0F2
:1004C000010313705368DC07FCD440F6041326497B
:1004D00013624B68C3F38003002BFAD123492448ED
:1004E0000B770A46886292F82C30C3F30013002B76
:1004F000F9D11E4982F8203091F82C305807FBD4EE
:100500000B7F1A4A43F002030B7792F82C309907BD
:10051000FBD4536A1549536291F82C301A07FBD467
:100520009823124A81F820301369DB05FCD50E4A66
:1005300040F6063313625368C3F38003002BFAD1ED
:100540000C490D4A0D4801244C7140F2E735E02476
:100550000721556080F823409360116030BC7047DC
:100560000040004100800041001C0040001000409D
:1005700080BB01040008004010E000E000ED00E056
:1005800000F0D4B8FEE700BF154A16498A4208B504
:100590000ED0154B99420BD2013B5B1A23F003039B
:1005A0000433134452F8040B41F8040B9A42F9D176
:1005B0000E4A0F4B9A420AD2013B9B1A23F00303C7
:1005C00004331344002142F8041B9342FBD1094B2E
:1005D000094A23F07F03936000F0A2FEFEE700BF0C
:1005E0000C22000000000020D0010020D0010020DB
:1005F0009C1600200000000000ED00E0F0B5DFF8E0
:1006000050E0BEF80260DEB9AEF102070EF5FF7CE5
:1006100041F221053246082312F4004F03F1FF3363
:1006200085EA42049BB20ABF5200A2B292B2002BEA
:10063000F2D127F8022F06F580766745B6B2E9D1E8
:1006400080EA11203EF8103083EA012398B2F0BD11
:10065000D0010020BFF34F8F0449054BCA6802F454
:10066000E0621343CB60BFF34F8FFEE700ED00E085
:100670000400FA050003012804D9012300BF013357
:100680008342FBD1704700BF70B406461C24002093
:100690000AE07BB9B4B120B1154605F130033354FB
:1006A0000130043C231D0BD021FA04F303F00F03A7
:1006B000002AEED0092BDDB2EFDD05F13703EEE7BE
:1006C00070BC70472546E8E708B5024B024A1A603D
:1006D000FFF7C0FFFCFF0220EF6926F00B4A13680A
:1006E0006BB970B50A480B4D01682C68013140F2B6
:1006F000DC56016016600CB1A14203D270BD013B13
:10070000136070472B60FFF7DFFF00BFD8030020A6
:10071000C8120020CC12002008B5024B024A1A6011
:10072000FFF798FFFCFF0220EF6916F030B41A497A
:100730001A480B68026801330B604AB1A2F57A715E
:100740008B4223D0934201D10023036030BC704719
:10075000134913F0FF030A7811D11248124CA2F189
:100760000A034FF40035DBB28561F02B207802D903
:100770004042C0B2207002440A7030BC70479342BD
:10078000E4D1084B4FF400325A61DFE705494FF4DA
:1007900000348C61D6E700BFD0030020D4030020D2
:1007A000010000200080004100000020064B074AA5
:1007B0001B681168994206D2054903F5FA634FF4A4
:1007C0000030136048617047D0030020D40300203C
:1007D00000800041024B4FF400329A609A617047EA
:1007E00000800041704700BF30B43C4B3C4A93F856
:1007F00058003C4940F0010083F8580093F83C0051
:1008000000F0F00083F83C0093F83C0040F0070053
:1008100083F83C0093F8590040F0010083F8590038
:1008200093F83C0000F00F0083F83C0093F83C0084
:10083000402440F0700083F83C00C2F8A8400B69E7
:1008400043F480630B618B6943F001038B61536850
:100850005B07FCD44FF082421346117841F001014E
:100860001170997811F00101FBD11F4B1F481A68D4
:100870004FF0824302F01F041D8D1F2C08BF05247A
:1008800064F38A151D85C2F344141D8D1F2C08BF07
:100890001D2464F304051D85C2F382221C8D072AE2
:1008A00008BF032262F30E341C851A7861F3C71265
:1008B0001A701A7842F004021A7058621A8961F3A9
:1008C00083021A811A8922F001021204120C1A8181
:1008D00030BC4FF4807201F077BB00BF0080004154
:1008E000001C004000080040840080001413002019
:1008F0002DE9F0434FF0824483B006460F46D4F80A
:100900002480002B53D01D466B782878834239D33E
:10091000AB78510101EB0800A3B92C1D41F8084048
:10092000446863F30D044460446801F1824263F358
:100930009B34446092F80431012443F0400382F870
:100940000431AC7001F1824999F8072112F00104D9
:1009500014D04468AB78E4B2022B2C7031D0BC4286
:1009600028BF3C460EB36C7030462246291D01F06C
:100970001DFB0122002389F80721AB70204603B03C
:10098000BDE8F083C41ABC4228BF3C46002EF5D017
:10099000291D19443046224601F008FB6B78204699
:1009A00023446B7003B0BDE8F0836E70E1E7084D3F
:1009B000019202EB021305EB8305FFF78FFE019A0C
:1009C000A2E751F808102246281D01F0EFFAC6E709
:1009D0001414002071B1F8B5054617461E460C46A2
:1009E0002146284633463A46FFF782FF241A05443B
:1009F000F6D1F8BD704700BF70B54FF08245144680
:100A00006D6A0E4605EB4215DBB16B696FF3DF7360
:100A10006B6128616B6966F30D036B616B69620141
:100A200002F182426FF39B33022080216B6182F8D6
:100A3000070182F8051192F807319B07FBD5304674
:100A400070BD6B69C3F302730333012202FA03F32F
:100A50008B4207D86B69221F18BF012262F3DF7334
:100A60006B61D6E70421054A442313FB04131344A6
:100A700001463246184601F099FACAE714140020DC
:100A80000023FFF7B9BF00BF2DE9F04F4FF08244BC
:100A900097B0FFF723FEA58B15F008052AD0C44BAD
:100AA000C44E0820802240211125A083A27284F820
:100AB000005184F8051184F804215A68032565F370
:100AC0001E725A605A6965F31E72BB4D5A611E60F0
:100AD0001D615A68B94D60F39B325A605868002214
:100AE0006FF30D005860104684F804112A7017B097
:100AF000BDE8F08F94F80731DE0607D4AF4B1878C5
:100B0000003018BF012017B0BDE8F08FAC4EDFF801
:100B1000C0A296F809C0327A96F806B096F8079007
:100B2000F07AB17AB38842EA0C224FF0100C84F8C4
:100B300007C14BEA092740F2023C41EA00213FB2DB
:100B400012B24FF040086345AAF80010B8B21FFA7D
:100B500082FE84F8048100F0A18142D8B3F5817F40
:100B600000F0768123D8822B00F0348110D8802BBE
:100B700001D0812B5DD102294FF0000428BF022152
:100B80002346224604A8ADF81040FFF735FFB5E72D
:100B9000B3F5807F00F0ED8040F20112934248D11E
:100BA00000231A46194604A8FFF726FFA6E740F2DD
:100BB000A122934200F0E78036D9B3F5407F00F0E0
:100BC000D880EDD8B3F5307F33D1BEF1070F30D1E7
:100BD0000023AA2928BFAA211A467A48FFF70CFF4A
:100BE0008CE740F621129342DAD000F29A8040F26C
:100BF0008162934223D8B3F5D06F80F00B8140F22D
:100C0000A132934200F0BF80B3F5A06F11D1002351
:100C10001A46194604A8FFF7EFFE67F07F034FF06E
:100C20008242DBB2937269E740F2A112934200F074
:100C3000AA804FF08243202283F805215EE7B3F5B6
:100C4000086F00F0AC80B3F5106FF2D15B4E2B460D
:100C50002A46294604A83770FFF7CEFE544B5A495E
:100C6000032284F84021586C302662F31E705864C9
:100C700084F84581196484F820615F6B8020A1F1BC
:100C8000440C62F31E775F6384F82401C3F830C01C
:100C900084F860815F6F65F31E775F6784F8640195
:100CA00084F8A021D3F8A45001F1CC0762F31E759B
:100CB000C3F8A45084F8A581C3F8A07084F88061BB
:100CC000D3F894608831442562F31E76C3F89460AB
:100CD00084F88401C3F8901084F8C05184F8C4816A
:100CE00084F8C401D3F8C41062F31E71C3F8C410B1
:100CF000D3F8D41062F31E71C3F8D41084F8E05115
:100D000084F8E48184F8E401D3F8E41062F31E71FE
:100D1000C3F8E410D3F8F41062F31E71C3F8F410B2
:100D2000ECE642F2210293423FF43AAF16D942F286
:100D3000212293423FF434AF4FF6A16293421CD07C
:100D400042F2A11293427FF474AF0023082928BF16
:100D500008211A461D48FFF74FFECFE640F6212234
:100D600093423FF41DAF40F6213293423FF418AF57
:100D70005FE7202384F80531C0E601294FF0000425
:100D800028BF0121FCE60024082928BF082104A867
:100D900023462246CDE90444FFF72EFEAEE60129A4
:100DA00028BF01212B462A460448FFF725FEA5E669
:100DB00014130020D412002018140020DC0300209B
:100DC000D0120020F0000020A0140020E800002035
:100DD000020400201EF0080FADF81050C9D10EF02B
:100DE0000F0E4FEA4E1E0EF1824312F0500F93F891
:100DF00006414FF0000314BFC4F34014C4F30014C1
:100E0000022928BF02211A4604A8ADF81040FFF7B6
:100E1000F3FD73E6B0F5807F78D0B0F5007F7ED02B
:100E2000B9F1030F4FD0B9F10F0F00F08180B9F184
:100E3000210F00F08680B9F1220F7FF4FAAE002373
:100E4000212928BF21211A466248FFF7D5FD55E622
:100E50001EF00F033FF4EDAE0EF0080E014651EA0E
:100E60000E017FF4E6AE5B0103F1824312F0800FC6
:100E700093F806216ED1D1067FF592AE4FF01002A5
:100E800083F8042193F8072192067FF589AE20218B
:100E9000012283F8071183F8042181E61EF00F0375
:100EA0003FF4C7AE0EF0080E014651EA0E017FF482
:100EB000C0AE5B01150603F182434CBF2022102215
:100EC00083F805216CE6BBF1030F3FF6B2AE04AD2B
:100ED00028464822002101F077F88DF81190BBF1E7
:100EE000000F49D1042240F209438DF81020ADF8DB
:100EF0001230BAF800209DF810100023914228BF4C
:100F0000114628461A46FFF777FDF7E5122928BF54
:100F100012212B462A463048FFF76EFDEEE50023EE
:100F2000992928BF99211A462C48FFF765FDE5E568
:100F30000023392928BF39211A462948FFF75CFDCB
:100F4000DCE50023092928BF09211A462548FFF7B7
:100F500053FDD3E594067FF523AE202283F80421C8
:100F600093F8072150067FF51BAE4021022283F83B
:100F7000071183F8042113E61B4BDFF874800FCBB5
:100F80006C4684E80F00002754F8043B08EB070088
:100F900001221968FFF778FBA5420744F4D1B27922
:100FA000124B53F82240002308F80730204601F086
:100FB00013F8431C5B008DF810302278002A98D07B
:100FC0002346294601F8022F13F8012F002AF9D1F0
:100FD0008FE700BF0C200000F81F00004000002039
:100FE00004000020DC000020E81F0000602000005A
:100FF000E003002008B5FFF7F7FB054B4FF08242F6
:1010000000211970137843F00203137008BD00BF6C
:10101000DC03002010B500230C460122FFF7ECFC96
:10102000204610BDFFF7F6BF70B504460D46FFF72A
:101030002BFD00B970BD2946204600230222BDE8E1
:101040007040FFF755BC00BF70B505460E46FFF770
:101050001BFD60B14EB134462146284600230222D2
:10106000FFF746FC241A0544F6D1304670BD06460B
:10107000304670BD002A0FDD024405E000F8013B58
:10108000824201F1010107D00B78002BF6D1202319
:1010900000F8013B8242F7D1704700BFF8B54FF42A
:1010A000007204460F460846002100F08DFFDCB9AF
:1010B000594E3D4606F1300C34460FCC644528604D
:1010C0006960AA60EB60264605F11005F4D107CEF1
:1010D0003388AB815524AA2328606960AA6087F809
:1010E000FE4187F8FF31F8BD402C1FD8631E1F2B2F
:1010F00088BFA4F12103002B38D0C3EBC3501902E1
:1011000007EB40200B1F0830FC3140F2FF74B3F5B1
:10111000006F07D25A1DA34214BF92B24FF6FF725E
:1011200020F8132001339942F1D1F8BD442C28D97D
:10113000A4F14503012B61D9473C2102B1F5002FF1
:10114000D1D2364A364D37483A604FF400634FF4F7
:101150008072C7F8FC017C61F9607D60BB613A6117
:1011600007F12000BDE8F84000F020BFF0223A70FF
:1011700007F109003A46FF2102F8011F8242FBD124
:10118000BBE7412CAFD1352327493A4607F10B0085
:101190003BB1013102F8013B824204D00B78002BB5
:1011A000F7D12023F6E72823204E2148FB720225A1
:1011B0002B37A7F10B04F0B100F00EFFE06165835F
:1011C000324605E004F8013BBC4202F1010207D0BF
:1011D0001378002BF6D1202304F8013BBC42F7D151
:1011E0000135ADB2052D06F1100607F120073FF4D9
:1011F0007AAFF068DDE74FF48010DFE70B4A02EBCF
:101200000313DC68204600F0E7FE2146024638461C
:10121000BDE8F84000F0CABE702000005546320A12
:1012200057515D9E306FB10A9B20000018210000CD
:101230004821000030B536480C68844283B001D0A4
:1012400003B030BD00F1144000F52C104C6800F6DE
:1012500002308442F4D12F48D1F8FC418442EFD1CE
:101260000C468968C90703D42169B1F5807F30D065
:10127000002B41D0A16900293ED01868814208D0D6
:1012800040F66305A94201D800283FD04FF0FF3156
:101290001960616940F663008142D1D803EBD10542
:1012A000012001F0070100FA01F12C7A5868C9B257
:1012B0000C4203D121430130297258601B688342DC
:1012C000BED8002ABCD1144B144A1B681E331360CD
:1012D000B6E7E06810F0FF0FCAD1A0F58041B1F584
:1012E000F82FC5D204F12001CDE90023FFF716F84D
:1012F000DDE90023002BBDD1002AA1D1064B074A0E
:101300001B6803F59673136003B030BD1960C0E726
:101310005546320A306FB10AC8120020CC120020A4
:101320003B4B9B6803B1FEE780B500AFFFF752FA75
:1013300044F204031C68A4F58043B3F5F82F22D8C7
:1013400042F2B402334B12689A4244D0324B1B78BB
:1013500013F00102314B08D131491868884253D04B
:101360001868304A904249D12C4B00221A602E4A0C
:101370004FF480434FF4003151611A6882F30888BA
:10138000234A93602047294CFFF784F8BFF35F8F0F
:1013900062B6FFF72FFE4020FFF724FA244A254DBE
:1013A0000A2313700126FFF76FFB20B12B7803F09F
:1013B000FF0243B12E702B78002BF4D000F0E2FA3C
:1013C00000F0E0FAFAE74FF480402260FFF70AFAF3
:1013D000174B1E70EEE7104B1B78DB0704D40F4A47
:1013E000104B12689A42B1D00C4A0E49124B116050
:1013F0001B680E4C03F596732360C5E719604FF424
:10140000FA70FFF737F9AFE71A60084CBCE700BF86
:1014100000ED00E07CB0EE87000C0040FCFF0220F5
:10142000EF6916F0EF6926F000800041CC12002031
:101430000000002004040020C812002030B40B4A31
:101440000B490C4B52684A600022C3E90022C3E9F1
:101450000222F0250A240A731A821D70DC710846E4
:1014600004220D2130BCFFF70BBB00BF2406002077
:101470009C01002044060020F8B58368ABB11746F4
:101480000E46044600253346A278E0684FF400710A
:10149000FFF7A0FA3B4605F580500122E168FFF70F
:1014A000C9FEA3680135AB42EDD8F8BD2DE9F04F78
:1014B000DFF8DCA0BAF816309AF811209AF812106A
:1014C00083B05BBA8DF807201FFA83F99AF81320CE
:1014D000ADF802309AF814308DF806108DF805201A
:1014E0008DF80430B9F1000F30D08046254EDFF87A
:1014F000A4B0254F002410E02846FFF7CFFD0422BA
:101500004FF400713046FFF7BBFABB680134A3F516
:101510000073A145BB603B4619D0FFF7B5FA3146D1
:101520004346052250B3019D30462544B8F1000FD3
:10153000E2D14FF40071FFF74DFA5B464246314667
:101540002846FFF777FEFFF731F9DEE70E4B0F4C29
:10155000DAF804205A600C480022C4E90022F02680
:101560000A25C4E9022222821A730D210422267060
:10157000E57103B0BDE8F04FFFF782BA03B0BDE8F4
:10158000F08F00BF080400209C01002044060020CA
:10159000240600205806002070B4094B094C002294
:1015A000C3E90022C3E90222F0260A251A829870B4
:1015B000012299811E70DD71227370BC704700BFDB
:1015C000440600209C01002070B504220D46FFF760
:1015D00057FA854219D1144C144E154B7268A16804
:1015E00062600022C3E90022C3E90222491BF026FF
:1015F0000A251A821E70DD71A16022730A48042236
:101600000D21BDE87040FFF73BBA074C074E0021A3
:101610000420FFF7C1FF73686360204604220D2198
:10162000FFF72EFAD9E700BF9C0100202406002016
:10163000440600201A4A002370B4C2E90033C2E90C
:1016400002331361174C38B3E17D02F1080508231A
:10165000647C04F03F041C2C0CD03F2C0AD099422F
:1016600028BF194690B1023B1B0213800C4870BC86
:10167000FFF7AABF0C33DBB240F61C2605249942C3
:101680002E80EC7028BF19460028ECD1013B137066
:10169000034870BCFFF798BFE17C151D0423D7E712
:1016A000080600202406002070B513460C46154697
:1016B00006460A4600200121FFF71AF900B970BD5D
:1016C0002B46224630461F21FFF712F9012070BD3C
:1016D00080B50546E4B072B6BFF35F8F4FF082432A
:1016E000DFF8E0C0354E364F002440F2FF329A82D8
:1016F00021469A830DA8CCF80840442200F064FCEF
:1017000021464FF48C721EA800F05EFC6A78AB781C
:101710006868069002F00F0203F00F0302216A705E
:10172000AB708DF836101EABE9680794012240F6C5
:10173000FF708DF820400596FFF77CFD1EAA0DA9CD
:101740002846FFF799FE05A86A7801230D21FFF7C7
:1017500053F9002400E001340DAAA97805A8FFF789
:10176000A3FF20B9BC42F6D9FEF7AEFFF3E7DDE9EF
:1017700006019DF8233001960022CDE902018DF883
:1017800010208BB12A2B16D1BDF82A305BBA9CB23F
:10179000AC601EAA0DA92846ADF80230FFF76CFE1A
:1017A000039BA3EB4423039301236A780D2101A833
:1017B000FFF722F9CDE7FEF7AFFFF5E753425355A8
:1017C000F824010000ED00E070B5564C84B000F044
:1017D000C5FB204600220521FFF766FF002841D007
:1017E000514DE37BA668AE605A2B2FD8DFE803F09B
:1017F000402E2E432E2E2E2E2E2E2E2E2E2E2E2EE2
:101800002E2E4B2E2E2E2E2E2E2E585C2E2E5F2E52
:101810002E2E2E622E732E2E7E2E822E2E2E2E8673
:101820002E2E2E2E2E2E2E2E2E2E2E2E2E2E2E2ED8
:101830002E2E2E2E2E2E2E2E2E2E2E2E2E2E2E2EC8
:101840002E2E2E2E2E2E2E2E2E2E3C004FF40051FC
:101850000520FFF7A1FE636833486B6004220D2169
:10186000FFF70EF904B070BD0120FFF7E3FEF9E7C2
:10187000FFF7E4FDF6E7E17C2C48122928BF12218E
:10188000FFF7A2FEEEE7182229492A48FFF7F2FBEC
:10189000E17C2948242928BF2421FFF795FEE1E7B0
:1018A0000020FFF7C7FEDDE7FFF7C8FDDAE7FFF727
:1018B000C5FDD7E7214B93E807000C2E01AB83E869
:1018C000070088BF0C2218464FF00C0188BFAA60A1
:1018D000FFF77AFEC6E71A4B1A4A1A6018464FF409
:1018E000003208215A60FFF76FFEBBE70120FFF7C7
:1018F000DDFDB7E70020FFF7D9FDB3E70B4B6268CA
:101900006A600022C3E90022F0260A24C3E9022209
:101910001A822A730D21042203481E70DC71FFF71E
:10192000AFF89FE7240600209C0100204406002019
:1019300048200000B4010020AC010020C0210000BC
:101940001C06002000001F3F72B6BFF35F8F4FF0F0
:101950008243044940F2FF3200209A829A838860D1
:10196000704700BF00ED00E000B583B001460122E2
:101970006846FEF789FE68460821FFF74BFB03B077
:101980005DF804FB2DE9F04FA449DFF8CCB2DFF895
:10199000CC82A34EA34DDFF8AC9283B000227A2311
:1019A000C24600AF0A608BF80030FFF70DFF402100
:1019B0005046FFF739FB9C4B0024186008F80040A4
:1019C00018B9C6F800802860EFE7FEF7EFFE964BE7
:1019D000C6F8008019682C600029E6D023465446DA
:1019E0002078FF280ED0232819D0A0F13003DAB2D6
:1019F000092A43D8D9F8002043EA0213C9F8003075
:101A000001343460884A2B68116801338B422B60A3
:101A1000CBD234682078FF28F4D02328E5D19BF876
:101A20000020532A51D0522A74D04F2A46D0482A37
:101A300078D0572A7DD06F2A00F09380682A00F072
:101A4000B280772A00F0BA80472A00F09180542AA9
:101A50000DD04E2A0BD0562A00F0D080582A00F024
:101A6000D380592A00F0BC805A2A00F0F9807A22EB
:101A700000238BF80020C9F80030C1E7A0F1410332
:101A8000052B07D8D9F80030373840EA0310C9F8D9
:101A90000000B5E7A0F16103052B07D8D9F80030A5
:101AA000573840EA0310C9F80000A9E72C284AD0AB
:101AB00000238BF80000C9F80030A1E7574BD9F894
:101AC00000201B681A703468D1E7D9F80000013390
:101AD0002B60CB1A834228BF034601344F48346041
:101AE0002146524C006823601A4600F05FFA2368D2
:101AF0002A684F4C3068D9F8001023701A44013A14
:101B00002A605A1EDBB210449942306023D800BFCD
:101B10003468ACE7414BD9F800101868FFF782FA37
:101B20003468A4E73D4BD9F800201B681A8034685C
:101B30009DE73A4B3F4A1B6893424AD0D9F80020B0
:101B40001A60346893E7354AD9F8003013600023EF
:101B5000C9F8003054E7C91A304B1868FFF774FA17
:101B6000D5E72E4B01211868FFF754FA34687EE759
:101B7000D9F80030EFF308822F490A601A6882F31F
:101B80000888D3F804C0E0472B490B6883F3088822
:101B90002A4B1B78002B3FF46AAF01212848FFF73E
:101BA00039FA346863E71D4B26481B6802211B88FD
:101BB000C9F80030FFF72EFA346858E7174B214870
:101BC0001B6804211B68C9F80030FFF723FA34684A
:101BD0004DE74FF04010FEF705FE104B1B68ADE7D8
:101BE0000E4BD9F800201868002A59D1164B1860FE
:101BF00003211648FFF70EFA346838E72A21144803
:101C0000FFF708FA346832E7D9F80000FEF72AFB3C
:101C100003211048FFF7FEF9346828E78C160020EE
:101C20003C1600204416002038160020981600208C
:101C3000341600200CED00E0901600207007002004
:101C4000F8210000941600207407002000220000F4
:101C5000CC210000FC210000401600204816002086
:101C6000124BD9F800401B686CB11A1900242146A8
:101C70001C4614F8010B7A60FEF7C0FC7A689442A7
:101C80000146F6D1044601210948FFF7C3F9204671
:101C9000FFF76AFE03210748FFF7BCF93468E6E660
:101CA000054B92081968FEF703FBA1E78C1600208C
:101CB000042200000822000074070020F8B540212B
:101CC0000446034690F847200020FEF711FEC0B1FD
:101CD000267900273306277013D4B4F8443006F071
:101CE0003F0504F1480018442A46611D00F05EF9E2
:101CF000B4F8440016F0C00F284480B203D1A4F811
:101D000044000020F8BDA4F84470F8BD2DE9F04F60
:101D10003F2991B00C4682461D46D7B216DC0146DB
:101D20000DF101086E46002D08BF402522462543CF
:101D300040468DF8005000F039F93A46304601230C
:101D40004021FEF759FE11B0BDE8F08F43F03F0986
:101D50005FFA89F90DF1010803468DF80090C44639
:101D6000303019685A68CCF800109968CCF8042013
:101D7000DA68CCF80C2010338342CCF808100CF150
:101D8000100CEED119685A68CCF80010D3F808E0AE
:101D9000CCF804209A89997B8CF80E106E46ACF82A
:101DA0000C203046CCF808E001233A464021A244FA
:101DB0003F3CFEF721FE3F2CAAEB0401B3DD8DF87A
:101DC000009001F1300BC44608684A688B68D1F86E
:101DD0000CE0CCF80CE010315945CCF80000CCF800
:101DE0000420CCF808300CF1100CEDD10A684B68D7
:101DF0008868CCF80800CCF80020CCF80430B1F8A2
:101E00000CE08B7B8CF80E303A46012340213046A3
:101E1000ACF80CE03F3CFEF7EFFDCCE72DE9F047D6
:101E20000546FFF74BFF50B3AB6CB5F84C20A5F857
:101E30004820013B0022A5F84A2005F14807082B5D
:101E400006D8DFE803F05F737F1E081121475800B2
:101E50000123A5F84A3095F847203846002304218D
:101E6000BDE8F047FFF752BF3846002395F84720FA
:101E70000421FFF74BFF286DB0F5804F65D2BDE818
:101E8000F087FEF749FCE6E7D5E91432002A4FEA6D
:101E9000420915DD05F14A0603F5807A06EB0908CB
:101EA000AAF58074002114F8010BFEF7A7FB544536
:101EB0000146F8D126F8020FB0450AF5807AEFD135
:101EC00095F8472009F1040138460023BDE8F047A2
:101ED000FFF71CBFD5E9141405F14C002246FEF7AC
:101EE000DBF9A100043195F8472038460023BDE80E
:101EF000F047FFF70BBFD5E9140205F15801FEF7D3
:101F0000CBF9A8E701244FF480714FF400624FF43D
:101F1000A073C5E91523C5E91341384695F8472054
:101F200000231421BDE8F047FFF7F0BE0A4800F097
:101F300053F809490446024605F14C0000F036F812
:101F4000211DD0E7FEF7C0FB85E705F15401BDE890
:101F5000F047FEF7E3B900BF4821000008B5084B81
:101F60000622184683F84720FFF758FF054B072243
:101F700083F847201846BDE80840FFF74FBF00BF71
:101F8000780700200009002000B5E3B00446FFF701
:101F9000DBFC68464FF4C472002100F015F88DF8A0
:101FA00047406846FFF73AFFFBE700BF0A4491420B
:101FB00000F1FF3300D1704710B511F8014B03F861
:101FC000014F9142F9D110BD02440346934200D122
:101FD000704703F8011BF9E7034613F8012B002AA9
:101FE000FBD1181A01387047FC6180001060800036
:101FF000146080001860800012011002EF0201409E
:102000004F1B160001420102030100000697FF0961
:1020100001A101150026FF00750895400901810204
:1020200095400901910295010901B102C00000002B
:10203000537061726B46756E20456C656374726F88
:102040006E69637300000000537061726B46756EB9
:102050002053414D443531205468696E672B000090
:10206000000000003020000048200000E0030020B5
:10207000EB3C9055463220554632200002010100CB
:102080000240003E1FF82000010001000000000097
:102090000000000000002942004200353154484948
:1020A0004E47424F4F5446415431362020200000C5
:1020B0003C21646F63747970652068746D6C3E0AAE
:1020C0003C68746D6C3E3C626F64793E3C73637235
:1020D0006970743E0A6C6F636174696F6E2E72650D
:1020E000706C6163652822687474703A2F2F737066
:1020F00061726B66756E2E636F6D22293B0A3C2FF1
:102100007363726970743E3C2F626F64793E3C2F3A
:1021100068746D6C3E0A0000494E464F5F5546326A
:102120005458540048210000494E4445582020206E
:1021300048544D00B020000043555252454E5420A3
:10214000554632000000000055463220426F6F7441
:102150006C6F616465722076322E302E302D3334F0
:102160002D67613835393162372D64697274792091
:1021700053464857524F0D0A4D6F64656C3A2053D1
:102180007061726B46756E2053414D443531205459
:1021900068696E672B0D0A426F6172642D49443A7B
:1021A0002053414D4435314A3139412D53706172CC
:1021B0006B46756E2D5468696E672D76300D0A007A
:1021C0000000000800001F400200020076312E319E
:1021D000205B41726475696E6F3A58595A5D204DA3
:1021E000617220203820323031392031323A323891
:1021F0003A33360A0D00000006000000580A0D00B0
:0C220000590A0D005A000000230A0D00CE
:10220C0001C80000050F3900021810050038B60887
:10221C0034A909A0478BFDA0768815B6650001018D
:10222C00001C100500DF60DDD88945C74C9CD265C9
:10223C009D9E648A9F00000306AA00020000000015
:10224C000902990005010080FA080B000202020144
:10225C000009040000010202010005240010010421
:10226C002402060524060001052401030107058349
:10227C00030800FF09040100020A000000070581A1
:10228C00024000000705020240000009040200029F
:10229C0008065000070584024000000705050240AF
:1022AC0000000904030002030000000921000100E2
:1022BC0001222100070586034000010705060340A3
:1022CC0000010904040002FF2A01000705870340EE
:1022DC00000107050703400001000000090403008A
:1022EC00020300000300000000C20100000008000F
:1022FC000A00000000000306AA0008000200040007
:10230C00A0001400030057494E5553420000000032
:10231C000000000000008400040007002A004400B4
:10232C006500760069006300650049006E0074006A
:10233C00650072006600610063006500470055008F
:10234C00490044007300000050007B00390032004B
:10235C004300450036003400360032002D003900B1
:10236C004300370037002D0034003600460045008E
:10237C002D0039003300330042002D0033003100B2
:10238C004300420039004300350041004100330056
:10239C00420039007D0000000000000053425355FC
:1023AC00000000000000000000000000008002029D
:1023BC0020000000000000000000000000000000F1
:1023CC00000000000000000000000000312E303042
:103FF00000000000891F0000D116000048210000C9
:00000001FF
