:10000000E0DF0020710500006D0500006D050000B7
:100010006D0500006D0500006D050000000000008A
:100020000000000000000000000000006D0500005E
:100030006D050000000000006D050000690500006E
:100040006D0500006D0500006D0500006D050000E8
:100050006D0500006D0500006D0500006D050000D8
:100060006D0500006D0500006D0500006D050000C8
:100070006D0500006D0500006D0500006D050000B8
:100080006D0500006D0500006D0500006D050000A8
:100090006D0500006D0500006D0500006D05000098
:1000A0006D0500006D0500006D0500006D05000088
:1000B0006D0500006D0500006D0500006D05000078
:1000C0006D0500006D0500006D0500006D05000068
:1000D0006D0500006D0500006D0500006D05000058
:1000E0006D0500006D0500006D0500006D05000048
:1000F000000000006D0500006D0500006D050000AA
:100100006D0500006D0500006D0500006D05000027
:100110006D0500006D0500006D0500006D05000017
:100120006D0500006D0500006D0500006D05000007
:100130006D0500006D0500006D0500006D050000F7
:100140006D0500006D0500006D0500006D050000E7
:100150006D0500006D0500000000000000000000BB
:10016000000000000000000000000000000000008F
:10017000000000000000000000000000000000007F
:100180006D0500006D0500006D0500006D050000A7
:10019000000000006D0500006D0500006D05000009
:1001A0006D0500006D0500006D0500006D05000087
:1001B0006D0500006D0500006D0500006D05000077
:1001C0006D0500006D0500006D0500006D05000067
:1001D0006D0500006D0500006D0500006D05000057
:1001E0006D0500006D0500006D0500006D05000047
:1001F0006D0500006D0500006D0500006D05000037
:100200006D05000000000000000000006D0500000A
:100210006D0500006D0500006D0500006D05000016
:100220006D0500006D0500006D0500006D05000006
:100230006D0500006D0500006D0500006D050000F6
:100240006D0500006D0500006D0500006D050000E6
:100250006D0500006D0500006D0500006D050000D6
:1002600000000000B0F5801F0FD2084B4AF2015188
:100270005A8AD207FCD5586199805A8AD207FCD590
:1002800000F50050B0F5801FF2D3704700400041E8
:10029000531E3AB1043851F8042B40F8042F013BA7
:1002A0005A1CF8D1704700BFF0B4194C23886FF383
:1002B00005132380638ADD07FCD54AF21553144DDC
:1002C000A3806B8ADC07FCD502B3114C4FF0FF37DB
:1002D0004AF2045C042A154628BF0425638ADB071A
:1002E000FCD500239D4286BF51F8236040F823606F
:1002F00040F823700133042BF4D1521B606101EBF1
:100300008501A4F804C000EB8500E3D1F0BC704780
:10031000004000412DE9F04F5C4B87B01A8842F451
:1003200080421A801A8842F400421A8000AF0546C3
:100330000E464FEA50380B1F021F01F1FC0402E089
:10034000A34200F0968053F8040F52F8041F88422D
:10035000F6D0DFF844A11AF80830002B4FD14C49F1
:1003600025F4FF5201EB481322F01F023A614FEAD5
:100370004812BB6020317A6013F8012B01EB481161
:100380008B4205D0002A49D113F8012B8B42F9D1B9
:10039000C7F814D0ADF5005DC7F80CD0002A48D1DD
:1003A0003A494B8AD807FCD54AF2015337484D6188
:1003B0008B80438AD907FCD501230AF80830E2B1C3
:1003C000D7E90329A2EB0908BA68324B541E7A68B0
:1003D0001A44924603E0A24509F580790DD014F83D
:1003E000013F002BF7D008EB090148464022FFF7F8
:1003F0005BFFA24509F58079F1D1D7F814D04022EE
:1004000031462846FFF750FF204A538ADB07FCD5C8
:100410001C37BD46BDE8F08F8B4204D05A1C8A427F
:1004200003F10203F8D1C7F814D0ADF5005DC7F8A9
:100430000CD0F968BB683A695C1E01F5005B0B469D
:10044000A2EB010903E003F580735B450FD014F8BC
:10045000012F002AF7D009EB030118464FF48072F0
:1004600001F082FD034603F580735B45EFD1012265
:1004700096E7074BC5F3042503EB48181C37012307
:1004800008F80530BD46BDE8F08F00BF00400041D0
:10049000080C0020270C0020880B002030B42B49CA
:1004A0002B4A0B889BB20B80137843F00103137027
:1004B0005368DC07FCD440F60413254913624B68EB
:1004C0005807C3F38002FAD4224B23491A771A46FD
:1004D000996292F82C30C3F30010DB06F9D41D4961
:1004E00082F8200091F82C305D07FBD40B7F194A6D
:1004F00043F002030B7792F82C309C07FBD4536A2D
:100500001449536291F82C301807FBD49823114AF0
:1005100081F820301369D905FCD50D4A40F6063321
:1005200013625368C3F380015B07FAD40B4A0C4B88
:100530000C480124547140F2E735E02407225D6045
:1005400080F8234099601A6030BC70470040004139
:10055000001C00400010004080BB01040008004067
:1005600010E000E000ED00E000F0CEB8FEE700BFD4
:10057000154A16498A4208B50ED0154B99420BD23E
:10058000013B5B1A23F003030433134452F8040BBA
:1005900041F8040B9A42F9D10E4A0F4B9A420AD203
:1005A000013B9B1A23F0030304331344002142F858
:1005B000041B9342FBD1094B094A23F07F0393604C
:1005C00000F0BAFEFEE700BFD821000000000020C6
:1005D000D0010020D0010020DC1F0020000000001E
:1005E00000ED00E0F0B5DFF850E0BEF80260DEB9E3
:1005F000AEF102070EF5FF7C41F2210532460823D9
:1006000012F4004F03F1FF3385EA42049BB20ABFA4
:100610005200A2B292B2002BF2D127F8022F06F5B7
:1006200080766745B6B2E9D180EA11203EF81030F5
:1006300083EA012188B2F0BDD0010020BFF34F8FC3
:100640000449054BCA6802F4E0621343CB60BFF370
:100650004F8FFEE700ED00E00400FA0500030128DB
:1006600004D9012300BF01338342FBD1704700BF8F
:1006700030B405461C24002008E06BB904B110B169
:1006800030332B540130043C231D09D021FA04F3EC
:1006900003F00F03002AF0D0092BF1DD3733F0E728
:1006A00030BC704708B5024B024A1A60FFF7C6FF1C
:1006B000FCFF0320EF6926F00B4A13686BB970B595
:1006C0000A480B4D01682C6801314FF4FA6601604D
:1006D00016600CB1A14203D270BD013B136070479C
:1006E0002B60FFF7DFFF00BFD8030020081C0020AD
:1006F0000C1C002008B5024B024A1A60FFF79EFF4F
:10070000FCFF0320EF6916F01F4920480B680268C0
:1007100001330B6042B1A2F57A718B4220D0934233
:1007200004BF00230360704713F0FF030FD1184B81
:1007300018494FF400029A610B78A3F10A02D2B271
:10074000F02A18D8144A127813440B707047114AD3
:1007500012789A42E7D10E4B4FF400025A6170476B
:100760000B4910B493424FF400048C6101D1002373
:10077000036010BC7047084802785242D2B213445A
:1007800002700B70704700BFD0030020D40300201C
:10079000008000410100002000000020064B074AB5
:1007A0001B681168994206D2054903F5FA634FF4B4
:1007B0000000136048617047D0030020D40300207C
:1007C00000800041024B4FF400029A609A6170472A
:1007D00000800041704700BF30B43C4B3C4A93F866
:1007E00058003C4940F0010083F8580093F83C0061
:1007F00000F0F00083F83C0093F83C0040F0070064
:1008000083F83C0093F8590040F0010083F8590048
:1008100093F83C0000F00F0083F83C0093F83C0094
:10082000402440F0700083F83C00C2F8A8400B69F7
:1008300043F480630B618B6943F001038B61536860
:100840005B07FCD44FF082421346117841F001015E
:100850001170997811F00101FBD11F4B1F481A68E4
:100860004FF0824302F01F041D8D1F2C08BF05248A
:1008700064F38A151D85C2F344141D8D1F2C08BF17
:100880001D2464F304051D85C2F382221C8D072AF2
:1008900008BF032262F30E341C851A7861F3C71275
:1008A0001A701A7842F004021A7058621A8961F3B9
:1008B00083021A811A8922F001021204120C1A8191
:1008C00030BC4FF4807201F05DBB00BF008000417E
:1008D000001C00400008004084008000541C0020E0
:1008E0002DE9F8434FF0824C0746DCF824800E4691
:1008F0001546002B51D01C4663782278934238D39A
:10090000A278680108EB4513A2B9211D40F8081030
:10091000596862F30D015960596800F1824562F32C
:100920009B31596095F80421012142F0400285F87D
:100930000421A17000F1824999F8075115F00105D1
:1009400014D05D68A378EDB2022B25702DD0B5428E
:1009500028BF3546FFB1657038462A46211D01F093
:1009600003FB0122002389F80721A3702846BDE874
:10097000F883D51AB54228BF3546002FF6D0211D81
:10098000194438462A4601F0EFFA63782B44637025
:100990002846BDE8F8836770E3E7074C02EB0213D3
:1009A00004EB8304FFF788FEA6E750F808102A46F8
:1009B000201D01F0D9FACAE7541D002071B1F8B525
:1009C000054617461E460C462146284633463A46FB
:1009D000FFF786FF241A0544F6D1F8BD704700BF23
:1009E00070B54FF082440E46656A144605EB421519
:1009F000DBB16B696FF3DF736B6128616B6966F361
:100A00000D036B616B69600100F182406FF39B33F2
:100A1000022180226B6180F8071180F8052190F88F
:100A200007319B07FBD5304670BD6B69C3F302737A
:100A30000333012202FA03F38B4207D86B69221FAA
:100A400018BF012262F3DF736B61D6E7054A042108
:100A5000442313FB0413134401463246184601F0A5
:100A600083FACAE7541D00200023FFF7B9BF00BF77
:100A70002DE9F04F4FF0824499B0FFF71DFEA38B94
:100A800013F008032AD0C64BC64E0820802240210E
:100A90001125A083A27284F8005184F8051184F80E
:100AA00004215A68032565F31E725A605A6965F37A
:100AB0001E72BD4D5A611E601D615A68BB4D60F3C8
:100AC0009B325A60586800226FF30D005860104640
:100AD00084F804112A7019B0BDE8F08F94F807214A
:100AE000D60607D4B14B1878003818BF012019B0CA
:100AF000BDE8F08FAE4DDFF8CC8295F80BC06E7A72
:100B0000A97A95F806A0EF79287AAA8840F2013EE2
:100B100041EA0C214FF0100940EA06204AEA072C6E
:100B20004026724584F807910FFA80FBA8F8001060
:100B30000FFA8CF984F804617CD016DC40F20115C0
:100B4000AA4277D0B2F5817F59DB40F2A1239A42C5
:100B500000F0D68027DDB2F5307F00F0EF804FF057
:100B60008243202283F80521BCE7B2F5106F00F024
:100B70002B8165DD42F2A110824200F0088149DD3F
:100B800042F22120824255D04FF6A1639A42E6D12B
:100B90000023012928BF01211A4606A8ADF8183004
:100BA000FFF71EFF9EE740F2A1139A4200F0A880D3
:100BB000B2F5E07FD3D0B2F5817FD0D110F00F0332
:100BC000CDD000F008005CEA0002C8D15B0103F15F
:100BD00082431BF0800F93F8062140F0A481D106D8
:100BE00027D5102283F8042193F80721920620D5F7
:100BF0002021012283F8071183F8042119E0822AB9
:100C000000F0A88043DDB2F5807FA8D1202384F8CE
:100C1000053167E742F221018A420BD09FDC40F6A2
:100C200021239A4205D022F4007240F621139A4201
:100C300095D100231A46194606A8FFF7D1FE51E7C1
:100C4000B2F5A06F70D03DDD40F281639A422CDC9A
:100C5000B2F5D06F83DBBCF5807F5CD0BCF5007F44
:100C600000F04681032F00F020810F2F00F0498112
:100C7000212F00F04F81222F7FF471AF0023212913
:100C800028BF21211A464B48FFF7AAFE2AE7803ADF
:100C9000012A3FF664AF022928BF02211A4606A89E
:100CA000ADF81830FFF79CFE1CE7B2F5086F7FF433
:100CB00056AF0023012928BF01211A463B48FFF700
:100CC0008FFE0FE740F202339A4214D110F00F0367
:100CD0003FF445AF00F008005CEA00027FF43FAF4C
:100CE0005B011BF0800F03F1824314BF202210220E
:100CF00083F805219DE740F2A1339A427FF42FAF9C
:100D00000023082928BF08211A4606A8CDE9063382
:100D1000FFF766FEE6E60023122928BF12211A46D5
:100D20002548FFF75DFEDDE61A46194606A8FFF7DF
:100D300057FE69F07F03DBB2A372D3E607287FF486
:100D40000EAF0023AA2928BFAA211A461B48FFF785
:100D500047FEC7E605073FF559AF00F00F00400119
:100D600000F182431BF0500F93F806414FF000034F
:100D700014BFC4F34014C4F30014022928BF022195
:100D80001A4606A8ADF81840FFF72AFEAAE6082979
:100D900028BF08211A460A48FFF722FEA2E600BF34
:100DA000541C0020141C0020581D0020DC030020CF
:100DB000101C0020FC1F0000E81F0000F0000020B5
:100DC000E800002002040020764D01931A461946DF
:100DD00006A885F80090FFF703FE734A73480321C5
:100DE00084F84011556C302761F31E75556484F802
:100DF0004561106484F82071D2F834C08025A0F1D8
:100E0000440E61F31E7CC2F834C084F82451C2F849
:100E100030E084F86061D2F874C0019B63F31E7CFB
:100E2000C2F874C084F8645184F8A011D2F8A430D8
:100E300000F1CC0C61F31E73C2F8A43084F8A561F4
:100E4000C2F8A0C084F88071D2F89470442388302E
:100E500061F31E77C2F8947084F88451C2F8900050
:100E600084F8C03184F8C46184F8C451D2F8C40055
:100E700061F31E70C2F8C400D2F8D40061F31E7092
:100E8000C2F8D40084F8E03184F8E46184F8E451D5
:100E9000D2F8E43061F31E73C2F8E430D2F8F430D3
:100EA00061F31E73C2F8F4301CE6BAF1030F3FF68B
:100EB00056AE06AE30464822002101F063F88DF8A8
:100EC0001970BAF1000F40D1042240F209438DF8A5
:100ED0001820ADF81A30B8F800209DF8181000233B
:100EE000914228BF114630461A46FFF779FDF9E5D1
:100EF0000023992928BF99211A462D48FFF770FD34
:100F0000F0E50023392928BF39211A462948FFF77F
:100F100067FDE7E50023092928BF09211A4626486D
:100F2000FFF75EFDDEE594067FF583AE202283F8B1
:100F3000042193F8072150067FF57BAE4021022261
:100F400083F8071183F8042173E61C4BDFF87490D3
:100F50000FCB02AC84E80F00002754F8043B09EBE8
:100F6000070019680122FFF783FBA6420744F4D16A
:100F7000AA79134B53F82240002309F80730204682
:100F800001F008F8431C5B008DF818302278002A25
:100F9000A1D02346314601F8022F13F8012F002A71
:100FA000F9D198E7DC030020541C0020E01D00204C
:100FB0004000002004000020DC000020D81F0000BA
:100FC00020200000E003002008B5FFF705FC054BDA
:100FD0004FF0824200211970137843F0020313701E
:100FE00008BD00BFDC03002010B500230C46012221
:100FF000FFF7F6FC204610BDFFF7F6BF70B50446BC
:101000000D46FFF735FD00B970BD29462046002387
:10101000BDE870400222FFF763BC00BF70B5054613
:101020000E46FFF725FD60B14EB1344621462846F5
:1010300000230222FFF754FC241A0544F6D130465F
:1010400070BD0646304670BD002A0FDD024405E043
:1010500000F8013B824201F1010107D00B78002B1F
:10106000F6D1202300F8013B8242F7D1704700BF40
:101070002DE9F8434FF4007204460F46084600215C
:1010800000F080FFE4B9644E3D4606F1300C344672
:101090000FCC644528606960AA60EB60264605F1C4
:1010A0001005F4D107CE3388AB815524AA232860DC
:1010B0006960AA6087F8FE4187F8FF31BDE8F883D0
:1010C0007E2C20D8631E3E2B88BFA4F14003002B4A
:1010D0003ED0C3EBC352190207EB42200B1F08306E
:1010E000FC3140F6FF74B3F5805F07D25A1DA3426E
:1010F00014BF92B24FF6FF7220F8132001339942C9
:10110000F1D1BDE8F883822C2DD9A4F18303012B02
:1011100073D9853C2102B1F5801FCFD23F4A4048A8
:10112000404B7C613A604FF480547860C7F8FC31E2
:101130004FF400503C4BB8604FF48072F960BC61D2
:101140003A61FB6107F12000BDE8F84300F00CBFF5
:10115000F0223A7007F109003A46FF2102F8011F18
:101160008242FBD1B5E77F2CA8D14D232F493A46C7
:1011700007F10B003BB1013102F8013B824204D080
:101180000B78002BF7D12023F6E72823284E294897
:10119000FB7202252B376FF066094FF04D08A7F15F
:1011A0000B0438B300F0F6FEE06165833146224659
:1011B00005E002F8013BBA4201F1010107D00B78CA
:1011C000002BF6D1202302F8013BBA42F7D10135BA
:1011D000ADB2052D84F8109084F8118084F8189031
:1011E00084F8198006F1100607F120073FF466AF76
:1011F000F068D4E74FF40010D6E70D4A02EB031372
:10120000DC68204600F0C6FE214602463846BDE8AE
:10121000F84300F0A9BE00BF302000005546320A56
:1012200057515D9E306FB10A604411555B2000003C
:10123000E02000001021000030B50C46394920683C
:10124000884283B001D003B030BD01F11441606821
:1012500001F52C1101F602318842F4D13249D4F85B
:10126000FC018842EFD1A168880403D52F48E569C5
:101270008542E8D1CD0703D42169B1F5807F2CD018
:10128000002B3DD0A16900293AD01868814208D0CE
:1012900041F26305A94201D8002841D04FF0FF3147
:1012A0001960616941F263008142CCD803EBD1053A
:1012B00001202C7A01F0070100FA01F12142C8B2A5
:1012C00028D059681B688B42BDD8002ABBD1184B67
:1012D000184A1B681E331360B5E7E06810F0FF0F73
:1012E000CED1A0F58041B1F57C2FC9D204F1200107
:1012F000CDE90023FFF70EF8DDE90023002BC1D173
:10130000002AA0D10A4B0B4A1B6803F596731360A1
:1013100003B030BD04432C72596801315960D1E7E4
:101320001960BEE75546320A306FB10A6044115564
:10133000081C00200C1C0020F8B53D4B9B6803B135
:10134000FEE7FFF73FFA44F204031C68A4F580436C
:10135000B3F57C2F22D844F26822364B12689A42A9
:101360004AD0354B1B7813F00102344B08D1344975
:101370001868884258D01868324A90424ED12F4B94
:1013800000221A60304A4FF480434FF4000151614B
:101390001A6882F30888264A936020472B4CFFF78F
:1013A0007DF8BFF35F8F62B6FFF70EFE284F294D21
:1013B0004020FFF70FFA0A233B700126FFF758FB86
:1013C00020B12B7803F0FF027BB12E702B783BB954
:1013D0002B78002BF2D1FF2300BF013BFCD1EDE7BE
:1013E00000F0E2FA00F0E0FAFAE74FF48040226001
:1013F000FFF7F0F93E70E8E70F4B1B78DB0704D4EA
:101400000E4A104B12689A42ABD00C4A0D49124B4F
:1014100011601B680D4C32332360C0E719604FF434
:10142000FA70FFF71BF9AAE7084C1A60B7E700BF8C
:1014300000ED00E07CB0EE87000C0040FCFF0320D4
:10144000EF6916F0EF6926F0008000410C1C0020C7
:101450000000002004040020081C002030B40A4AC8
:101460000A480B4B526842600022C3E90022C3E9DC
:101470000222F0250A241A8202731D70DC7130BC2E
:1014800004220D21FFF7F0BA240600209C01002061
:1014900044060020F8B58368ABB104460E461746F3
:1014A0000025A278E06833464FF40071FFF786FA12
:1014B0003B4605F58050E1680122FFF7BDFEA368B9
:1014C0000135AB42EDD8F8BD2DE9F047DFF8E090EB
:1014D000B9F8163099F8112099F8121082B05BBA59
:1014E0008DF807201FFA83F899F81320ADF8023021
:1014F00099F814308DF806108DF805208DF8043019
:10150000B8F1000F32D0274FDFF8A8A0264D0646CD
:10151000002412E0019839462044FFF7A9FD042277
:101520004FF400713846FFF79FFAAB680134A3F51A
:101530000073A045AB602B4619D0FFF799FA84469B
:10154000334605224FF400713846BCF1000F25D018
:10155000002EDFD1FFF732FA01985346204432467D
:101560003946FFF769FEFFF719F9DEE70E4B0F4C1E
:10157000D9F804205A600C480022C4E90022C4E9CA
:101580000222F0260A2522821A730D2104222670D7
:10159000E57102B0BDE8F047FFF766BA02B0BDE8FA
:1015A000F08700BF080400209C01002044060020B2
:1015B000240600205806002030B4094B094C0022B4
:1015C0001A60F02598704FF02060DA609A601A82F5
:1015D000DA70998101221D705860227330BC704707
:1015E000440600209C01002070B504220D46FFF740
:1015F0003BFA854219D1144C144E154B7268A16800
:1016000062600022C3E90022C3E90222491BF026DE
:101610000A251A821E70DD71A16022730A48BDE896
:10162000704004220D21FFF71FBA074C074E00211E
:101630000420FFF7C1FF73686360204604220D2178
:10164000FFF712FAD9E700BF9C0100202406002012
:10165000440600201A4A002370B4C2E90033C2E9EC
:101660000233184C136138B3E17D02F108050823F9
:10167000647C04F03F041C2C0CD03F2C0AD099420F
:1016800028BF194690B1023B1B02138070BC0C4866
:10169000FFF7AABF0C33DBB240F61C2605249942A3
:1016A0002E80EC7028BF19460028ECD1013B137046
:1016B00070BC0348FFF798BFE17C151D0423D7E7F2
:1016C000080600202406002070B513460C46154677
:1016D00006460A4600200121FFF702F900B970BD55
:1016E0002B46224630461F21FFF7FAF8012070BD35
:1016F00080B50546ADF5247D72B6BFF35F8FDFF888
:10170000E8C0374E374F4FF08243002440F2FF329B
:101710009A8221469A830DA8CCF80840442200F012
:1017200031FC21464FF406721EA800F02BFC6A78AB
:10173000AB786868069002F00F0203F00F030221F5
:101740006A70AB708DF836101EABE9680794012201
:1017500040F6FF708DF820400596FFF76DFD1EAA3C
:101760000DA92846FFF796FE6A7805A801230D21EA
:10177000FFF736F9002400E00134A9780DAA05A886
:10178000FFF7A2FF20B9BC42F6D9FEF78BFFF3E7C3
:10179000DDE906019DF8233001960022CDE9020122
:1017A0008DF810208BB12A2B16D1BDF82A305BBAE8
:1017B0009CB2AC601EAA0DA92846ADF80230FFF716
:1017C00069FE039BA3EB442303936A7801230D2155
:1017D00001A8FFF705F9CDE7FEF78CFFF5E700BF9D
:1017E00055534253A086010000ED00E070B5564C01
:1017F00084B000F093FB204600220521FFF764FF30
:10180000002841D0514DE37BA668AE605A2B2FD8FB
:10181000DFE803F03C2E2E3F2E2E2E2E2E2E2E2EC7
:101820002E2E2E2E2E2E472E2E2E2E2E2E2E54586F
:101830002E2E5B2E2E2E2E5E2E6F2E2E792E7D2E90
:101840002E2E2E812E2E2E2E2E2E2E2E2E2E2E2E65
:101850002E2E2E2E2E2E2E2E2E2E2E2E2E2E2E2EA8
:101860002E2E2E2E2E2E2E2E2E2E2E2E2E2E95005F
:101870004FF400510520FFF79FFE636833486B600B
:1018800004220D21FFF7F0F804B070BDFFF7E6FD6C
:10189000FAE7E17C2E48122928BF1221FFF7A4FEA7
:1018A000F2E72C492C481822FFF7CEFBE17C2B48AD
:1018B000242928BF2421FFF797FEE5E70020FFF742
:1018C000C9FEE1E7FFF7CAFDDEE7FFF7C7FDDBE78B
:1018D000234B93E807000C2E01AB83E8070088BF79
:1018E0000C2218464FF00C0188BFAA60FFF77CFE5F
:1018F000CAE71C481C4B036008214FF400334360C7
:10190000FFF772FEC0E70120FFF7DEFDBCE7002015
:10191000FFF7DAFDB8E70E4B62686A600022C3E9A0
:101920000022C3E90222F0260A241A822A730D211A
:10193000042206481E70DC71FFF796F8A4E7012028
:10194000FFF788FEA0E700BF240600209C010020CE
:1019500044060020BC1F0000B4010020AC010020A0
:101960008C2100001C06002000003E7F72B6BFF3F1
:101970005F8F4FF08243044940F2FF3200209A8289
:101980009A838860704700BF00ED00E000B583B027
:10199000014601226846FEF76BFE68460821FFF704
:1019A00023FB03B05DF804FB2DE9F04FA249DFF8FB
:1019B000C4A2DFF8C482A14FA14EA24DDFF8A0B2AD
:1019C00000227A2383B00A608AF80030C146FFF70C
:1019D0000DFF40214846FFF711FB002408F80040A6
:1019E000386018B9C6F800802860F0E7FEF7D6FE28
:1019F0003968C6F800802C600029E8D023464C46A0
:101A00002078FF280ED0232818D0A0F13003DAB2B6
:101A1000092A42D8DBF8002043EA0213CBF8003051
:101A2000013434602B68396801338B422B60CED28D
:101A300034682078FF28F5D02328E6D19AF80020D2
:101A4000532A51D0522A73D04F2A46D0482A77D0F1
:101A5000572A7CD06F2A00F09280682A00F0B1806B
:101A6000772A00F0B980472A00F09080542A0DD0E0
:101A70004E2A0BD0562A00F0CF80582A00F0D28090
:101A8000592A00F0BB805A2A00F0F8807A220023FD
:101A90008AF80020CBF80030C2E7A0F14103052B03
:101AA00007D8DBF80030373840EA0310CBF80000E5
:101AB000B6E7A0F16103052B07D8DBF800305738F3
:101AC00040EA0310CBF80000AAE72C2849D00023F5
:101AD0008AF80000CBF80030A2E7574BDBF8002073
:101AE0001B681A703468D1E7DBF800000133CA1AAA
:101AF0002B60514B824228BF02461868524B611C32
:101B00001C461A60316000F02FFA23682A684F4C97
:101B10003068DBF8001023701A44013A2A605A1E1C
:101B2000DBB210449942306023D800BF3468ADE77F
:101B3000414BDBF800101868FFF75EFA3468A5E740
:101B40003D4BDBF800201B681A8034689EE73A4B57
:101B50003F4A1B6893424AD0DBF800201A60346881
:101B600094E7354ADBF8003013600023CBF80030EF
:101B700056E7C91A304B1868FFF750FAD5E72E4BD5
:101B800001211868FFF730FA34687FE7DBF800308E
:101B9000EFF308822F490A601A6882F30888D3F8A5
:101BA00004C0E0472B490B6883F308882A4B1B7855
:101BB000002B3FF46BAF29480121FFF715FA346879
:101BC00064E71D4B26481B6802211B88CBF80030B8
:101BD000FFF70AFA346859E7174B21481B680421BC
:101BE0001B68CBF80030FFF7FFF934684EE74FF081
:101BF0004010FEF7EFFD104B1B68ADE7DBF800204F
:101C0000002A5BD10C4B174A1B681360164803214E
:101C1000FFF7EAF9346839E714482A21FFF7E4F9B5
:101C2000346833E7DBF80000FEF71CFB10480321A3
:101C3000FFF7DAF9346829E7CC1F0020781F00206D
:101C40007C1F0020841F0020D81F0020741F00204C
:101C50000CED00E0D01F002070080020982100004B
:101C6000D41F002074080020A0210000AC21000037
:101C70009C210000801F0020881F0020134BDBF8F0
:101C800000401B686CB11A19002421461C4614F848
:101C9000010B0192FEF7A6FC019A94420146F6D18F
:101CA000044601210A48FFF79FF92046FFF76EFE20
:101CB00008480321FFF798F93468E7E6064B1968EE
:101CC000024B92081868FEF7EFFA9FE7CC1F00203E
:101CD000A4210000A821000074080020F8B54021CC
:101CE00090F84720044603460020FEF7F9FDD0B1E6
:101CF00094F9043027790026B342267013DBB4F838
:101D0000443007F03F0504F1480018442A46611D9D
:101D100000F02AF9B4F8440017F0C00F284480B24C
:101D200003D1A4F844000020F8BDA4F84460F8BD35
:101D30002DE9F0430D4691B01E4600EB0108D7B2E5
:101D400043F03F093F2DA8EB050113DC002E08BF2F
:101D500040262A462E430DF101008DF8006000F068
:101D600003F93A46684601234021FEF739FE11B0D7
:101D7000BDE8F0838DF8009001F1300E0DF1010403
:101D800008684A688B68D1F80CC0C4F80CC01031E0
:101D9000714520606260A36004F11004F0D10A680C
:101DA0004B688868A060226063608B7BB1F80CC0D0
:101DB000A3733A460123402168463F3DA4F80CC076
:101DC000FEF70EFEBEE700BF2DE9F0470446FFF721
:101DD00085FF50B3A36CB4F84C20A4F84820013B15
:101DE0000022A4F84A20082B06D8DFE803F0667D1D
:101DF00089200812234D5F000123A4F84A3094F88B
:101E0000472004F148000023BDE8F0470421FFF714
:101E10008FBF04F1480094F8472000230421FFF706
:101E200087FF206DB0F5804F6DD2BDE8F087FEF7DB
:101E300061FCE4E7D4E91463002BD8BF4FEA4309FF
:101E400017DD04F14A0706F5807607EB43084FEAF1
:101E50004309A6F5807500212878FEF7C3FB0135FC
:101E6000B5420146F8D127F8020FB84506F580764D
:101E7000EFD109F1040194F8472004F14800002350
:101E8000BDE8F047FFF754BFD4E9141504F14C0046
:101E90002A46FEF7FDF9A90094F8472004F148000E
:101EA0000431BDE8F0470023FFF742BFD4E9140234
:101EB00004F15801FEF7ECF9A1E701254FF4807019
:101EC0004FF480514FF4A072C4E91512C4E91350C5
:101ED000104BE36594F8472004F148000023BDE867
:101EE000F0471821FFF724BF0B4800F053F80A49C8
:101EF0000546024604F14C0000F036F8291DBAE709
:101F0000FEF7D0FB7BE704F15401BDE8F047FEF794
:101F100001BA00BF604411551021000008B5074800
:101F2000062380F84730FFF74FFF0548072380F866
:101F30004730BDE80840FFF747BF00BF78080020E2
:101F4000000A002000B5E3B00446FFF70FFD684625
:101F50004FF4C472002100F015F88DF84740684630
:101F6000FFF732FFFBE700BF0A44914200F1FF3365
:101F700000D1704710B511F8014B03F8014F9142A1
:101F8000F9D110BD02440346934200D1704703F8D3
:101F9000011BF9E7034613F8012B002AFBD1181A9D
:101FA00001387047537061726B46756E20456C65E1
:101FB0006374726F6E696373000000005370617226
:101FC0006B46756E204D6963726F4D6F642053418F
:101FD0004D44353100000000FC618000106080003D
:101FE000146080001860800012011002EF020140AE
:101FF0004F1B200001420102030100000697FF0968
:1020000001A101150026FF00750895400901810214
:1020100095400901910295010901B102C00000003B
:1020200000000000A41F0000BC1F0000E00300200F
:10203000EB3C90554632205546322000020101000B
:102040000240007E3EF03F00010001000000000061
:1020500000000000000029420042004D494D4F425F
:102060004F4F5400000046415431362020200000DC
:102070003C21646F63747970652068746D6C3E0AEE
:102080003C68746D6C3E3C626F64793E3C73637275
:102090006970743E0A6C6F636174696F6E2E72654D
:1020A000706C616365282268747470733A2F2F73A3
:1020B0007061726B66756E2E636F6D2F31363739B6
:1020C0003122293B0A3C2F7363726970743E3C2FA6
:1020D000626F64793E3C2F68746D6C3E0A000000AC
:1020E000494E464F5F554632545854001021000067
:1020F000494E44455820202048544D00702000008F
:1021000043555252454E54205546320000000000BF
:1021100055463220426F6F746C6F61646572207631
:10212000332E342E302D36352D67646638396131C3
:10213000662D64697274792053464857524F0D0AD0
:102140004D6F64656C3A20537061726B46756E20FA
:102150004D6963726F4D6F642053414D4435310DAD
:102160000A426F6172642D49443A2053414D44350F
:10217000314A3230412D537061726B46756E2D4D70
:102180006963726F4D6F640D0A0000000000000863
:1021900000003E800200020006000000580A0D0008
:1021A000590A0D005A000000230A0D0076312E3125
:1021B000205B41726475696E6F3A58595A5D2053BD
:1021C000657020323220323032302032303A3039AD
:0821D0003A35380A0D00000049
:1021D80001C80000050F3900021810050038B608BC
:1021E80034A909A0478BFDA0768815B665000101C2
:1021F800001C100500DF60DDD88945C74C9CD265FE
:102208009D9E648A9F00000306AA00020000000049
:102218000902990005010080FA080B000202020178
:102228000009040000010202010005240010010455
:10223800240206052406000105240103010705837D
:10224800030800FF09040100020A000000070581D5
:1022580002400000070502024000000904020002D3
:1022680008065000070584024000000705050240E3
:102278000000090403000203000000092100010016
:1022880001222100070586034000010705060340D7
:1022980000010904040002FF2A0100070587034022
:1022A80000010705070340000100000009040300BE
:1022B800020300000300000000C201000000080043
:1022C8000A00000000000306AA000800020004003B
:1022D800A0001400030057494E5553420000000067
:1022E8000000000000008400040007002A004400E9
:1022F8006500760069006300650049006E0074009F
:1023080065007200660061006300650047005500C3
:10231800490044007300000050007B00390032007F
:102328004300450036003400360032002D003900E5
:102338004300370037002D003400360046004500C2
:102348002D0039003300330042002D0033003100E6
:102358004300420039004300350042004200330088
:10236800420039007D000000000000005553425330
:1023780000000000000000000000000000800202D1
:102388002000000000000000000000000000000025
:10239800000000000000000000000000312E303076
:103FF00000000000451F0000F11600001021000025
:00000001FF
