:10000000D82D002089020000850200008702000030
:1000100000000000000000000000000000000000E0
:100020000000000000000000000000008502000049
:100030000000000000000000850200007D020000BA
:100040008502000085020000850200008502000094
:100050008502000085020000850200008502000084
:100060008502000085020000850200008502000074
:100070008502000085020000850200008502000064
:100080008502000085020000850200008502000054
:100090008502000000000000000000008502000052
:1000A0008502000085020000850200008502000034
:1000B00000000000074B1A7DD207FCD52022FF323A
:1000C0001A83054A4008D8611A801A7DD207FCD5E8
:1000D0007047C0460040004102A5FFFF70B5802573
:1000E0000400ED02AC4200D370BD20000134FFF7E4
:1000F000E1FFFF34F6E7002330B59A4200D130BD6E
:100100009C000D5901330551F7E70000F0B580253B
:10011000104C114E6368114FAB436360002A00D14D
:10012000F0BD1300102A00D91023D21A2680257D95
:10013000ED07FCD59B009C460023CD58C5500433E9
:100140006345FAD1C018C9182780237DDB07FCD589
:10015000E4E7C0460040004144A5FFFF04A5FFFFBF
:10016000802270B5002304000D005200E958E058C9
:10017000814203D104339342F8D170BD2000FFF7D0
:1001800099FF402229002000FFF7C0FFF5E700009B
:10019000024A53785BB2002BFBDB7047000C004037
:1001A00010230249CA681A42FCD070470008004078
:1001B0001E21F8B50226254A254C5368254D8B4350
:1001C00033435360A660FFF7E3FF234B6360FFF701
:1001D000DFFFAE84FFF7E4FF204B1B689B0E3F2B35
:1001E00000D1203B002602271D4A9B0213431D4AD3
:1001F000EA62AB62AE84FFF7D3FF1B4BAB84FFF721
:10020000CFFFAB8C3B43AB84FFF7CAFF3F22638831
:1002100093431F43802367806288DB01134363801D
:10022000A660FFF7B5FF114B6360FFF7B1FFC02178
:100230000F4A104B10485360036A09061B021B0A41
:100240000B430362072396601360F8BD0040004132
:10025000000C0040000800400600010024608000FF
:10026000FF01000080BB0A1C2405000000070300FA
:1002700010E000E0E703000000ED00E010B500F042
:10028000FBF810BDFEE7FEE72449254870B5814222
:100290000AD0244BC41E0022A34203D303331A1AEC
:1002A0009208920001F0DAFB1F48204BC11E002289
:1002B000994203D803331A1A92089200002101F0E0
:1002C000D6FBFF221A4B032193431A4A0C25936055
:1002D000022208243026184B18485A62C3788B43F0
:1002E0001343C370C378AB432343C370144B987B51
:1002F000B0430600202030439873987BA843044302
:100300009C73987B884302439A7380230D4A5168FB
:100310000B43536000F064FEFEE7C046781C00000B
:1003200000000020CC010020CC010020D40D0020D2
:100330000000000000ED00E0FC70004100500041B2
:100340000048004100400041F7B5134D01906B8813
:10035000002B18D1082738001A0292B214B2A44612
:1003600066465400A2B2002E02DA0C4A5440A2B2F1
:10037000013880B20028F1D158002A52802201337E
:1003800052009342E7D1019A0B0A53405800285A71
:100390000902484080B2FEBDCC01002021100000BF
:1003A00001230002984200D87047C0460133F9E7A4
:1003B00070B505001C2400200F260B00E3403340DD
:1003C000002A09D1002B07D1002C0BD0002809D11D
:1003D000043C231DF1D170BD092B03DD37332B54B1
:1003E0000130F5E73033FAE7054B064A1A60BFF3F0
:1003F0004F8F054B054ADA60BFF34F8FFEE7C046CB
:10040000FC7F0020EF6926F000ED00E00400FA0513
:1004100010B50B4A1368002B0ED10A4911600A4926
:100420000A6801320A6009490868002806D0824239
:1004300004D30B60FFF7D8FF013B136010BDC0462B
:10044000DC030020DC050000D8030020D0030020DE
:10045000054B064A1A60BFF34F8F054B054ADA6019
:10046000BFF34F8FFEE7C046FC7F0020EF6916F018
:1004700000ED00E00400FA0510B5194A19491368A7
:10048000013313600A68002A0CD017481018834201
:1004900003D18024154824028461934201D10023B2
:1004A0000B6010BD1248DBB20278002B10D1802106
:1004B0000E4B0902996111000A39C9B20D4BF0299E
:1004C00002D91978494219701B78D2180270E8E7EE
:1004D0009342E6D18022054B12025A61E1E7C04601
:1004E000CC030020D403002018FCFFFF004400418F
:1004F0000100002000000020074B084A1B6811681B
:10050000994207D2FA21C9005B1813608022044B7C
:1005100012025A617047C046CC030020D403002069
:10052000004400418022024B12029A609A61704797
:100530000044004170470000202370B5354A0F2069
:10054000D1690B43D361012233490B7813430B70FC
:10055000324B19788143197006211C782143197098
:100560002F490C7822430A701A7802401A706022D0
:1005700019780A431A702B4A2B4B53805378DB09A6
:10058000FCD10122294B19780A431A709A78D207B4
:10059000FCD41F2026490A68520B0240824200D137
:1005A00005221C8D234D024092012C4022431A85C6
:1005B0000A68920C02401F2A00D1023A1F24188DAB
:1005C0002240A043024307201A850A68D20D024048
:1005D000824200D10322198D0240174812030140C4
:1005E0000A437F211A851A7814480A401A70042297
:1005F00019780A430C211A7058621A898A431A81A1
:100600001A890B398A431A8180220021520001F095
:100610002EFA70BD00040040584400413C440041A3
:1006200059440041000C00400640000000500041C9
:10063000246080003FF8FFFFFF8FFFFF6C06002063
:10064000F7B51C00314B06005B6A0F0015000193E3
:10065000002C05D1443454432D4BE418FFF7D8FE49
:1006600063782278934210D2D51ABD4200D93D005A
:10067000002E08D0211DC9182A00300001F0EEF923
:1006800063785B1963702800FEBD019BA1786A0145
:10069000D318002911D1211D196059681D48890BF3
:1006A000890359605968014059601B495518402118
:1006B0002879014329710121A1701449002551189D
:1006C000019116495218127AD207DCD55D68A278DA
:1006D000EDB22570022A04D12A001968201D01F00C
:1006E000BDF9BD4200D93D00002E0CD02A003000DB
:1006F0006570211D01F0B2F90122019BFF331A72CE
:100700000023A370BFE76670F6E7C04600500041C3
:1007100028040020FF3F00F000510041FF5000413D
:1007200010B50023FFF78CFF10BDF8B505000C00D5
:1007300016001F00002C00D1F8BD210028003B004E
:100740003200FFF77DFF241A2D18F3E7F8B50D00EE
:100750001F4956014C6A3419002B1BD063695B009A
:100760005B08636120616369AA049B0B920C9B0385
:10077000134363616369174A174813406361321872
:1007800002238021160013729171327A1A42FCD032
:100790002800F8BD012163695B005B0F03339940BA
:1007A000A94209D8043A531E9A416369D1075B00F4
:1007B0005A080A436261D5E744275743074A04377A
:1007C000BF1801002A00380001F048F93800C9E7D5
:1007D00000500041FF3F00F0FF500041280400207E
:1007E00010B50023FFF7B2FF10BD000010B5054A99
:1007F0000B001188994200D919000022FFF7F0FF81
:1008000010BDC0466C07002007B500216B460A00EA
:10081000D81D0170FFF7E4FF07BD0000F0B5B94C2B
:100820009BB0FFF7F5FDA38B08211A000A40039245
:10083000B54A0B422ED080234020A183A372C0244E
:100840000931517090715371B04BB14D5968A40585
:10085000294021435960596929400C43AD495C61E5
:1008600004311960AC49AD4C196159680C408021C4
:100870008902214359605968890B89035960507175
:100880000022A74B1A70A64B1878431E9841C0B29D
:100890001BB0F0BD1020137A0342F4D09D4D1072AE
:1008A0006D899C48AC46664680799E4D0290994879
:1008B000984BC788C0792E80402501909B88954829
:1008C000994E00895571B34200D1B0E136DC8124E4
:1008D0006400A34200D1BFE115DC822B00D190E17E
:1008E00006DC803B012B00D886E120239371CAE708
:1008F000802149008B42F8D00221FF318B42F4D194
:10090000FFF782FFBFE7B02189008B4200D16DE184
:100910000EDC0139FF398B42E7D0A23B8349FF3B14
:100920000B42E2D1002308210893099308A8C4E0F0
:10093000C02189008B42D8D07D49DFE77D488342C2
:10094000DED000DD96E07C498B4212DC01398B421F
:1009500000DBACE079498B42E4D06031FF318B425F
:10096000C3D1FFF751FF80235B423B43DBB2A3724D
:1009700089E788216A4809018B4200D195E08031DE
:100980008B42B2D10770FFF73FFFA02303225B0029
:10099000E254C0225D4B5E49586C920508401043FA
:1009A00058644620FF30255465483027186490204D
:1009B00040002754586B802608401043586392200B
:1009C000400026545F481863B02040002554586FFB
:1009D00008405867B220400026543C307D3E2654E3
:1009E000FC3884469C44604606680E401643066008
:1009F000A626FF36A5551E005348A0363060C026F7
:100A00007600A7551F0094373E6880200E4016439D
:100A10003E60C2267600A0551E004C4F90363760CF
:100A2000E02644277600A7550436A555A055C019E1
:100A300084469C44604606680E4016430660D420F7
:100A400084469C44604606680E4016430660F026C5
:100A500080207600A7550436A555A0551C00E43427
:100A60002068F433084010432060186801400A43AE
:100A70001A6008E73648834200D122E10ADC354992
:100A80008B4200D13CE7344934480B40834200D1CB
:100A900036E72AE732498B4200D131E731498B42B0
:100AA00000D022E7002308A80380012105E080236D
:100AB0005B009F4204D112212B48FFF797FEE2E62C
:100AC00080239B009F4202D199212848F5E7019B92
:100AD000032B78D1029B032B00D906E708AC4822F0
:100AE0000021200000F0C3FF019B6370029B002BDC
:100AF0003ED1092204332370A270E37020002178D4
:100B0000DBE7C04600500041FF5000416C0600206A
:100B1000FFFFFF8FE00300202C040020FF3F00F0C8
:100B2000240400206C07002002030000FFFE0000E8
:100B3000010300002109000081060000A10300005C
:100B4000B404002070040020800500203C05002033
:100B5000A121000021200000FFFEFFFF210A00006C
:100B600021220000A1FE0000B81A00004000002071
:100B700004AE3200544B23CB23C200252F001B6848
:100B80001360AB00514AF358D01919680122FFF7DE
:100B90000FFC01353F18042DF3D100234B4AD355E8
:100BA0004B4B4C4A9B799B009D58280000F067FFF7
:100BB00023000130400020702A7802330135002ADA
:100BC0009CD01A70F8E7019B0F2B02D139214248C3
:100BD00073E7019B212B02D1092140486DE7019B5E
:100BE000222B00D081E621213D4866E7072800D06E
:100BF0007BE6AA213B4860E7039B08A8022103800B
:100C00005BE7084200D070E60F2350220340083310
:100C10005B01104206D0344A9B189B799B06DB0F80
:100C200008A8EBE7304A9B189B79DB06F7E70F240F
:100C300003002340204200D157E60140394300D051
:100C400053E6294A08335B019B18020602D520228D
:100C50005A7155E61022FBE70F240300234020427F
:100C600000D142E60140394300D03EE65B01020676
:100C700013D51E491C4A9A185B182021D8790842BE
:100C800000D13DE659711B7A2B4200D138E61300A2
:100C90004022FF331A723E3ADAE710201349124A13
:100CA0009A185B18D979014200D129E658711B7A4C
:100CB00001180B4200D123E61300FF330122197201
:100CC000C6E70B48F9E6C046A81A0000480600200F
:100CD000E0030020F01A000004000020DC000020E7
:100CE000CC1A0000F000002000500041FF500041ED
:100CF000E800002010B5FFF71FFC0022034B1A701C
:100D00000223034A11780B43137010BD2404002002
:100D10000050004110B50C000122FFF761FD2000DA
:100D200010BD10B50C000122FFF75AFD200010BDC8
:100D300070B504000D00FFF771FD03000020834231
:100D400004D0022229002000FFF7EAFC70BD70B534
:100D500005000C00FFF762FD002807D000230222E7
:100D600021002800FFF7E1FC200070BD0400FBE734
:100D700030B500232025934200DB30BD0C78002CD9
:100D800003D00131C4540133F5E72C00FAE7000029
:100D9000F8B580220C00050000212000920000F030
:100DA00066FE002D0CD13E2220004A4900F056FE7E
:100DB000FF2355225B00E254474B9218E254F8BDE2
:100DC0007E2D23D86E1E3E2E01D9403D2E00002ED2
:100DD00012D080253302581C404EFF30ED001A1F00
:100DE000591CAA4203D2B3420ED08BB223800B000F
:100DF00002348142F3D1E2E7F0230922FF2123707C
:100E0000601C00F034FEE4E7354BEFE7822D31D86B
:100E10007F2DD4D12F490B2220002B31FFF7A8FFC3
:100E2000802728232F4EE3727D3D3F03F0683B006F
:100E30002034002802D000F022FE03001A0A237793
:100E400062771A0C1B0EE3772B0A3100A277A57686
:100E50000B22E3762000FFF78BFF67224D2301353D
:100E60005242ADB222746374227663761036052D39
:100E7000DCD1A4E72B00833B012B0CD8194A1B01C2
:100E8000D318DD68280000F0FAFD290002002000D8
:100E900000F0E4FD93E78023853D2902DB029942BF
:100EA00000D38CE7104B114A2360114B2000636084
:100EB000FE235B00E2508023DB00A36180238022BD
:100EC0009B01A3600B4B52006561E1602261E3610D
:100ED0002030DDE7001B0000FF01000003040000DC
:100EE000FFFF0000AC1B00005546320A306FB10A0C
:100EF00057515D9E882BED6870B516001D000A687D
:100F00002F4B0C009A4252D12E4B4A689A424ED136
:100F1000FE2252002C4B8A589A4248D18B689A0480
:100F200003D52A4AC969914241D1DB0712D48023F3
:100F300022695B009A420DD1E068C3B2002B09D14F
:100F4000F822234B9202C318934203D2210020318E
:100F5000FFF706F9002D2BD0A369002B28D02968B4
:100F60001C4A8B4206D0934201D8002901D00123AC
:100F70005B422B606369934219D8072201211A4012
:100F80009140DB08EB181A7AC8B2114204D16968A3
:100F9000024301311A7269606A682B689A4206D36B
:100FA000002E04D10C4B1B681E330C4A136070BD1D
:100FB000002EFCD1084B1B682D33FF33F5E7C046EC
:100FC0005546320A57515D9E306FB10A882BED6845
:100FD00000E0FFFF63040000D8030020D0030020DE
:100FE000F8B53A4EB368002B00D0FEE7FFF79AFA47
:100FF000374B1D68374BEA18F8239B029A4213D8E7
:10100000354B364A1968364C364B914232D11978F5
:10101000354AC90702D4216891422BD0334B226054
:101020001B68334A32331360FFF7C2F8BFF35F8F98
:1010300062B6FFF75FFE4020FFF77CFA80270A23A5
:1010400001262C4DFF012B70FFF7E8FB2A4C0028EE
:101050000AD02378DAB2002B05D1254B38001A606C
:10106000FFF768FA2E7026702378002B25D000F049
:10107000BBFAFCE71B78DB07DA0F002B0DD000234F
:10108000802223601D4B12025A6180239B011A6843
:1010900082F30888B3602847C6E72168184B994255
:1010A00001D12260C0E721680F4A9142E7D0FA20BF
:1010B00023604000FFF774F9E1E72378002BC3D1E8
:1010C000FF33C046013B002BFBD1BDE700ED00E044
:1010D0000420000000E0FFFFB42000007CB0EE8799
:1010E000FC7F002038040040EF6926F0D803002080
:1010F000D0030020000000206E07002000440041C3
:10110000EF6916F010B5054C12220021200000F006
:10111000AEFCF0232370E63BE37110BDAB09002069
:1011200010B5FFF7EFFF0022014B1A7310BDC04648
:101130009A010020F7B580270400160000250191D0
:10114000BF00A368AB4200D8F7BD3900A278019B6D
:10115000E068FFF7EAFA80235B01E8180122330018
:10116000E168FFF7C9FE0135EBE770B51300060033
:101170000C00150000200A000121FFF761FA00238E
:10118000984206D02B0022001F213000FFF758FAAA
:101190000123180070BD000010B504220D21024883
:1011A000FFF71EFB10BDC0469A01002010B50B4C86
:1011B0000B4861792379A27909021943E379120472
:1011C00011431B060B431A0A037142711A0C1B0EC2
:1011D0008271C371FFF7E0FF10BDC0468C0900208B
:1011E0009A01002070B504220D00FFF7F9FA154CA2
:1011F00085420FD0FFF786FF012304222373124B91
:101200009A700022DA701A715A719A711A735A73AD
:10121000FFF7CCFFFFF784FF637A217A1B020B43B1
:10122000A17AE27A0904120619431143491B0B0AF9
:10123000217263720B0C090EA372E172FFF7B6FF05
:1012400070BDC0469A010020AB09002070B5184C53
:10125000142205000021200000F009FC154A002D91
:101260001FD021000823D07D08313F26527C324018
:101270001C2A01D0B24205D10F4A0C330A80052244
:10128000DBB2CA70191C834200D9011CC9B2002DFF
:101290000BD0023B9BB21B0223802000FFF7A2FF72
:1012A00070BD0423D07C211DDFE7013B2370F4E7F0
:1012B000700900208C0900201C0A0000F0B5040011
:1012C00000252A4B85B0597C03AAD170997C917076
:1012D000D97C5170197D1170997D02AAD170DB7D86
:1012E000937053880193019BAB4205D8FFF718FF19
:1012F000FFF75CFF05B0F0BDFFF790FA0028F9D0CA
:10130000039B1B4FEE18002C1FD039003000FFF755
:101310003FFD8021042238008900FFF761FA154A59
:101320000135507A137A917A00021843D37A09046E
:1013300008431B06104903435B18190A13725172C4
:10134000190C1B0E9172D372CDE780212300380057
:1013500005228900FFF7E9F9220039003000074B28
:10136000FFF7CAFDFFF7C8F8D9E7C0468C0900208F
:10137000700700209A01002000FEFFFFC009002036
:101380007FB500F031FB444E002205213000FFF70D
:10139000ECFE002849D0737A327AB57A1B021A43E0
:1013A000F37A2D041B0615433C4C1D432B0A637234
:1013B0002B0CA3722B0E2572E372F07B2F2827D8FB
:1013C000192815D8032827D012282FD0002840D05C
:1013D000FFF798FE012305222373314B9A700022F8
:1013E000DA701A715A719A711A7320325A7332E094
:1013F0001A381528ECD800F01DFB282CEBEB2CEB51
:10140000EBEBEB3FEB31EBEB39EB3DEBEBEBEB2CB1
:101410005A28DDD1012019E0F37C191C122B00D9C8
:1014200012211F48C9B2FFF7DDFE7FBD1D4C1E49CA
:10143000200018220830FFF79BFCF37C191C242B9A
:1014400000D924212000C9B2EDE70020FFF7FEFEFD
:10145000EBE7FFF765FEFFF7A9FEE6E780231348F9
:101460009B024360124B08210360DCE70120FFF779
:1014700025FFDAE70020FAE70C260E49320001A822
:1014800000F0ECFAB54204D9002326726372A3720D
:10149000E3720C2101A8C6E78C0900209A01002004
:1014A000AB090020A8010020951A00008409002043
:1014B00000003E7F321C000072B6BFF35F8F044B0A
:1014C000044A9A829A830022034B9A607047C0466E
:1014D00000500041FF03000000ED00E0F0B5C5B092
:1014E0000DAF0400FFF7E8FF44220021380000F0B0
:1014F000BEFA982200211EA800F0B9FA02230F219B
:10150000BB70A37862780B40A370264B0A4005930A
:10151000636805AD06930023E16807932248627073
:101520002B7301221EABFFF7E7FC390020001EAA37
:10153000FFF700FE280001230D216278FFF706F96E
:10154000002505AE3A003000A178FFF70EFE002816
:101550001ED0144B01AD0193069B6B60079BAB60E3
:1015600000232B73F37B002BE4D02A2B17D16B467F
:10157000B27D3900DA70F27D20009A705E881EAA72
:10158000A660FFF7D7FDAB6876029E1BAE60D1E781
:10159000064B9D4201D9FEF727FF0135D1E7FEF743
:1015A00057FFC7E755534253FF0F0000F8240100CF
:1015B00030B5EFF30883054C2360036883F3088894
:1015C0004568A847236883F3088830BDB80A00201F
:1015D00007B5010001226846FEF7EAFE08216846C9
:1015E000FFF798FB07BD0000F8B500237A227F4C77
:1015F00023607F4B1A70FFF7C3FE7E4D4021280009
:10160000FFF796FB7C4B186000232B54984201D0C7
:10161000FEF772FF0022794B1D60794B1A60784803
:10162000754B02681F68BA42E5D2744E31680B7878
:10163000FF2B36D0734D232B00D0B3E06C4B1B78BF
:10164000532B33D12B680132013102603160BA1A59
:101650009A4200D91A006C4D20682A6000F0FEF909
:10166000674829680368654ACB18013B0360106826
:101670004B1EC3181360634B644D1B682970C9B2BD
:101680008B4203D92068591AFFF761FBC0467A22C2
:10169000574B1A7000225B4B1A60584A136801338B
:1016A0001360574A136801331360B8E7522B04D113
:1016B00029682068FFF735FBE9E74F2B03D12B683A
:1016C00022681370E3E7482B03D12B68226813804C
:1016D000DDE7572B0AD14E4B22689A4202D14D4882
:1016E000FEF728FF23682A681A60D0E76F2B04D121
:1016F00001212068FFF70EFBC9E7682B05D1022105
:1017000023681B882B602800F4E7772B04D123681B
:1017100004211B682B60F6E7472B09D12868FFF7E7
:1017200047FF3D4B1B78002BB1D001213B48E1E73F
:10173000542BACD04E2BAAD0562B02D12A2138489C
:10174000D8E7582B05D12868FEF7C8FC0321354897
:10175000D0E7592B0DD12A682068334B002A03D1DA
:10176000186003213148C5E719689208FEF7CEFCDE
:10177000F7E75A2B8BD12F6800252668F719B74257
:1017800009D101212A48FFF7C5FA2800FFF720FFF9
:1017900003212848AEE729003078FEF7D5FD013651
:1017A0000500ECE71A00303AD1B2092904D82B68B9
:1017B0001B0113432B6070E71A00413A052A03D836
:1017C0002A68373B1201F4E71A00613A052A03D868
:1017D0002A68573B1201ECE72C2B03D12B682360BE
:1017E0000023E7E7024A1370FAE7C046B40A002074
:1017F000590A0020600A0020AC0A0020B00A00202C
:10180000A40A00205C0A0020C00A0020A80A0020C8
:101810000CED00E040004000580A00203E1C000093
:101820004E1C0000401C0000BC0A0020441C0000AC
:10183000481C00004A1C00000300F7B547330400B1
:101840001A78402103000020FEF7FAFE002801D19B
:101850000020FEBD00232370237901930423E35667
:10186000002BF5DB3F262000019FA51DEB8F3740A5
:101870004830C0183A00611D00F0F0F8E88F019B75
:10188000C01980B2B34301D1E887E1E70023EB87B9
:10189000DFE7F0B506000C001F0093B001923F2572
:1018A000AC4203DC2500002F00D140373B0002AAE8
:1018B0002B43137002AB31002A00581C00F0CEF805
:1018C0006B4640211A7902A80123FEF73FFF7619E3
:1018D000641BE4D113B0F0BD030010B547331A7890
:1018E000043100234830FFF7D4FF10BDF7B50400E2
:1018F000FFF7A2FF002842D0230048339A88A06C4B
:101900001A80002201385A80082865D800F09CF817
:1019100015052327252A483F3800314E300000F0B6
:10192000AEF80500200031002A004C3000F096F897
:1019300029002000FFF7D0FF21E00123E364FF33FB
:1019400023658023DB006365A0235B00A365254B33
:101950001421E365EDE7FEF747FD0021E9E7FEF717
:1019600077FDFAE720000021FFF7B6FF8023206D06
:101970009B01984203D321005431FEF7F1FBF7BDE0
:101980002100626D206D5831FEF7B5FBE5E72000C0
:10199000656D216D2A004C30FEF7ADFBA900C8E74C
:1019A0000026636D276D0193019BB34201DC590052
:1019B000BFE73D0000212B001878FEF7C5FC7B1C1B
:1019C0000135FF3301009D42F5D1230072004C33F5
:1019D0002F0098520136E7E701225A80BDE7C04642
:1019E000DC1B0000882BED6807480622030010B5B9
:1019F00047331A70FFF77AFF044807220300473382
:101A00001A70FFF773FF10BDC40A00204C0C0020B1
:101A100010B5E2B00400FFF74FFDC4220021684674
:101A2000520000F024F847236B441C706846FFF70F
:101A30005DFFFBE702B471464908490009564900B9
:101A40008E4402BC7047C04602B471464908490042
:101A5000095C49008E4402BC7047C046002310B5A3
:101A60009A4200D110BDCC5CC4540133F8E70300A6
:101A70008218934200D1704719700133F9E70023AF
:101A8000C25C0133002AFBD1581E7047537061724B
:101A90006B66756E00517769696320555342204229
:101AA00072696467650000000CA0800040A080009F
:101AB00044A0800048A0800012011002EF02014003
:101AC0004F1B240D01420102030100000697FF098C
:101AD00001A101150026FF0075089540090181024A
:101AE00095400901910295010901B102C000000071
:101AF000000000008C1A0000951A00004806002023
:101B0000EB3C905546322055463220000201010040
:101B10000240007E3EF03F00010001000000000096
:101B20000000000000002942004200535041524B87
:101B300046554E00000046415431362020203C21BD
:101B4000646F63747970652068746D6C3E0A3C68DC
:101B5000746D6C3E3C626F64793E3C736372697075
:101B6000743E0A6C6F636174696F6E2E7265706C7F
:101B7000616365282268747470733A2F2F777777C2
:101B80002E737061726B66756E2E636F6D2F2229D6
:101B90003B0A3C2F7363726970743E3C2F626F6422
:101BA000793E3C2F68746D6C3E0A0000494E464FEA
:101BB0005F55463254585400DC1B0000494E4445E2
:101BC0005820202048544D003E1B000043555252DF
:101BD000454E542055463200000000005546322044
:101BE000426F6F746C6F6164657220205346485772
:101BF000524F0D0A4D6F64656C3A205177696963E5
:101C000020555342204272696467650D0A426F6134
:101C100072642D49443A2051776969632D42726993
:101C20006467652D537061726B66756E2D76300D2D
:101C30000A000000000800003E80020002000600CA
:101C4000580A0D00590A0D005A00230A0D0076317A
:101C50002E31205B41726475696E6F3A58595A5D36
:101C6000204A756C20323520323032322032333AFD
:081C700035303A30360A0D0050
:101C780001C80000050F3900021810050038B60821
:101C880034A909A0478BFDA0768815B66500010127
:101C9800001C100500DF60DDD88945C74C9CD26563
:101CA8009D9E648A9F00000306AA000200000000AF
:101CB8000902990005010080FA080B0002020201DE
:101CC80000090400000102020100052400100104BB
:101CD80024020605240600010524010301070583E3
:101CE800030800FF09040100020A0000000705813B
:101CF8000240000007050202400000090402000239
:101D08000806500007058402400000070505024048
:101D1800000009040300020300000009210001007B
:101D2800012221000705860340000107050603403C
:101D380000010904040002FF2A0100070587034087
:101D48000001070507034000010000000904030023
:101D5800020300000300000000C2010000000800A8
:101D68000A00000000000306AA00080002000400A0
:101D7800A0001400030057494E55534200000000CC
:101D88000000000000008400040007002A0044004E
:101D98006500760069006300650049006E00740004
:101DA8006500720066006100630065004700550029
:101DB800490044007300000050007B0039003200E5
:101DC8004300450036003400360032002D0039004B
:101DD8004300370037002D00340036004600450028
:101DE8002D0039003300330042002D00330031004C
:101DF80043004200390043003500420042003300EE
:101E0800420039007D000000000055534253000095
:101E18000000000000000000008002022000000016
:101E280000000000000000000000000000000000AA
:0C1E38000000000000000000312E3030DF
:101FF00000000000111A0000DD140000DC1B0000CE
:00000001FF
