:10000000D82D0020810200007D0200007F02000048
:1000100000000000000000000000000000000000E0
:100020000000000000000000000000007D02000051
:1000300000000000000000007D02000075020000CA
:100040007D0200007D0200007D0200007D020000B4
:100050007D0200007D0200007D0200007D020000A4
:100060007D0200007D0200007D0200007D02000094
:100070007D02000000000000000000007D02000082
:100080007D0200007D0200007D0200007D02000074
:100090007D02000000000000000000007D02000062
:1000A0007D0200007D0200007D0200007D02000054
:1000B00000000000074B1A7DD207FBD52022FF323B
:1000C0001A83054A4008D8611A801A7DD207FCD5E8
:1000D0007047C0460040004102A5FFFF10B5041C58
:1000E000044B9C4205D8201C0134FFF7E3FFFF348A
:1000F000F6E710BDFFFF0300002330B5934204D0A4
:100100009C000D5901330551F8E730BD70B58025CD
:100110000F4B5C68AC435C60002A18D0141E102C96
:1001200000D910240B4D121B1D801D7DED07FCD541
:10013000A50000240E5906510434AC42FAD100192E
:100140000919054C1C801C7DE407FCD5E4E770BD53
:100150000040004144A5FFFF04A5FFFF38B5002380
:10016000CA58C458A24205D1802204335200934297
:10017000F6D108E00D1C041CFFF79CFF201C291C75
:100180004022FFF7C3FF38BD024B5B785BB2002B08
:10019000FADB7047000C0040024BDB68DB06FBD546
:1001A0007047C046000800401E21F8B50226254AC7
:1001B000254C5368254D8B4333435360A660FFF7AE
:1001C000E3FF234B6360FFF7DFFFAE84FFF7E4FF3D
:1001D000204B1B689B0E3F2B00D1203B00260227A3
:1001E0001D4A9B0213431D4AEA62AB62AE84FFF7CD
:1001F000D3FF1B4BAB84FFF7CFFFAB8C3B43AB84F0
:10020000FFF7CAFF3F22638893433B436380802309
:100210006288DB0113436380A660FFF7B5FF114BD3
:100220006360FFF7B1FFC0200F4A104B10495360C5
:100230000B6A00061B021B0A03430B62072396602E
:100240001360F8BD00400041000C00400008004071
:100250000600010024608000FF01000080BB0A1C32
:10026000240500000007030010E000E0E7030000A1
:1002700000ED00E008B500F0F3F808BDFEE7FEE78A
:100280002048214970B50023884201D11F4B07E067
:100290001F4CCA18A242F9D2C45804331460F7E7BD
:1002A0001C4A934202D2002204C3F9E7FF21022430
:1002B0000325194B194A8B430C2693600822184BCF
:1002C00018495C62CB78AB432343CB70CB78B34304
:1002D0001343CB703021144B987B8843103908436B
:1002E0009873997BB1431143997380219A7BAA43F8
:1002F00022439A730D4A53680B43536000F096FEF5
:10030000FEE7C0461C1D000000000020D0010020B8
:10031000D0010020D80D00200000000000ED00E01A
:10032000FC70004100500041004800410040004185
:10033000F0B50024104A5388A34215D108252302A2
:100340009BB21FB25E00B3B2002F02DA0B4B5E40CD
:10035000B3B2013DADB2002DF3D1650053538023FC
:1003600001345B009C42E9D10B0A58404000105A0E
:100370000902414088B2F0BDD001002021100000E8
:1003800001230002834202D2C0460133FAE77047DC
:10039000F0B5071C1C2500200C1C0F23EC401C4052
:1003A000002A05D1002C03D1002D01D000280AD04D
:1003B000261C431C9C4630363B18092C01DD373483
:1003C000261C60461E70043D2B1DE5D1F0BD0000CB
:1003D000054A064B1A60BFF34F8F054A054BDA609A
:1003E000BFF34F8FFEE7C046EF6926F0FC7F002089
:1003F0000400FA0500ED00E008B50B4A1368002B75
:100400000ED10A4911600A490A6801320A60094995
:100410000868002806D0824204D30B60FFF7D8FF9B
:10042000013B136008BDC046D8030020DC05000076
:10043000040A0020080A0020054A064B1A60BFF390
:100440004F8F054A054BDA60BFF34F8FFEE7C0467A
:10045000EF6916F0FC7F00200400FA0500ED00E0D3
:1004600010B5194A136801331360184A116800293E
:100470000CD017480818834203D180241548E400A3
:1004800084618B421FD1002313601CE0DBB2124A4F
:10049000002B11D180210F4BC900996114780F49AD
:1004A000201C0A38C0B2F02802D9087840420870EF
:1004B0000B78E318137006E012789A4203D1802279
:1004C000044BD2005A6110BDD0030020D403002099
:1004D00018FCFFFF00440041010000200000002044
:1004E000074B084A1B681168994207D2FA21C900D4
:1004F0005B1813608022044BD2005A617047C046DB
:10050000D0030020D4030020004400418022024B8D
:10051000D2009A609A617047004400417047000021
:10052000202110B50124334AD3690B43D361324AE9
:100530001A391378234313700F22304B18789043E5
:1005400018701878084318702D48017821430170FD
:1005500019780A4060211A701A780A431A70294BD8
:10056000294A5A805A78D209FCD10121274B1A789E
:100570000A431A709A78D207FCD42548026892037D
:10058000D20E1F2A00D11A3A1C8D9101214A224015
:100590001F240A431A8502685202D20EA24200D1D9
:1005A0001D22198D2240A1430A431A850268920137
:1005B000520F072A00D1043A188D1103164A02403F
:1005C0000A431A857F22197814480A4004211A70B8
:1005D0001A780A431A7058621A8908318A431A81B4
:1005E0001A890B398A431A8180220021520001F0B6
:1005F00078FA10BD00040040584400413C440041DA
:1006000059440041000C00400640000000500041E9
:10061000246080003FF8FFFFFF8FFFFF500A00209B
:10062000F7B51C1C314B071C5B6A0D1C161C019393
:10063000002C05D1443454432D4BE418FFF7DCFE65
:1006400061782378994210D25B1A9D4200D91D1C13
:10065000281C002F49D061180431381C2A1C01F0D5
:1006600037FA6378EB1863703EE0019BA178720162
:10067000D318002911D1211D19605968890B8903EC
:10068000596058681B490140402059601A49561862
:100690003179014331710121A170144900205118B1
:1006A000019116495218127AD2071ED55E68A278B7
:1006B000F6B22670022A04D11968201D321C01F0FE
:1006C00007FAB54200D9351C002F06D06570211DF0
:1006D000381C2A1C01F0FCF900E067700122019B24
:1006E000FF331A720023A370281CFEBD0050004186
:1006F000500B0020FF3F00F000510041FF5000412F
:1007000008B50023FFF78CFF08BDF8B5051C0C1CCD
:10071000161C1F1C002C08D0281C211C321C3B1C42
:10072000FFF77EFF241A2D18F4E7F8BDF8B50F1C6B
:10073000214955014C6A84462C19002B05D0636968
:10074000061C5B005B0863611BE0391C63695B008E
:100750005B0F0333D9400AD0043A531E9A41D307A2
:100760006269061C520052081A43626109E044267D
:100770007243124B6146D6180436301C3A1C01F005
:10078000A7F92661BB049A0C63699B0B9B03134377
:10079000636162690A4B13406361074BEA18094BB6
:1007A000ED1802232B727E33AB71131CFF331B7ABF
:1007B0009B07FAD5381CF8BD00500041500B0020B3
:1007C000FF3F00F0FF50004108B50023FFF7AEFFE8
:1007D00008BD000008B5044B1B88994200D9191CBC
:1007E0000022FFF7F1FF08BDE003002007B500215C
:1007F0006B460A1CD81DFFF7E7FF07BDF0B59FB099
:10080000FFF7FAFD0823D64CA28B1A4006920699F0
:10081000D44A002927D011214020C025A383783352
:10082000A372517090715371CF4BD0495C68AD0584
:100830000C402C435C605C69214029435961CC49E0
:100840001960CC4919615C68CB4921408024A4021D
:10085000214359605968890B8903596050710022FE
:10086000C64B1A704BE21026137A334200D146E28F
:10087000C34816720379079343799C46837905939D
:10088000C77905993B0219436B4601919B880293F6
:10089000417A037A090219436B4603919B890493B9
:1008A000C37A857A1B022B43B64D2B8040256346C5
:1008B000557107991B020B43B34907908B4200D136
:1008C000C0E131D881204000834200D1D2E114D868
:1008D000822B00D19CE108D8802B00D194E1812BA0
:1008E00000D00AE20CA80023A9E1802149008B4234
:1008F00000D102E20221FF31CBE0A4498B4200D1BA
:10090000F0E105D8A221FF318B4200D0F5E1E9E109
:10091000C02189008B4200D1EFE100D9EAE14039E2
:100920008B4200D16AE1E8E199498B4200D1E1E1D3
:1009300000D9A4E097498B4216D801398B4200D3E5
:10094000B9E095498B4200D1CCE16031FF318B4257
:1009500000D0D2E1FFF74AFF8023019A5B421343A4
:100960007F4ADBB29372CAE18821844809018B4235
:1009700000D1B5E180318B4200D0BEE16B461B79DE
:1009800030270370FFF732FFA0230322C0215B0052
:10099000E254754B754A586C8905104008435864F9
:1009A0004620FF3025547D48802618649020400062
:1009B0002754586B10400843586301966E469220A6
:1009C000367940002654764880261863B0204000CF
:1009D0002554586F1040586701966E46B2203679FC
:1009E0004000265403263C302654FC3884469C4460
:1009F0006046066816400E430660A626FF36A555DB
:100A00001E1C6848A0363060C0267600A7551F1C03
:100A100094373E68802016400E433E60C226760022
:100A2000A0551E1C604F90363760E02644277600A4
:100A3000A7550436A555A055C01984469C44604668
:100A4000066816400E430660D42084469C446046E7
:100A5000066816400E430660F02680207600A755F3
:100A60000436A555A0551C1CE4342068F43310400E
:100A700008432060186802400A431A603FE14B496E
:100A80008B4200D136E108D849498B4200D131E18F
:100A900048498B4200D12DE12FE147498B4200D1DB
:100AA00016E146498B4200D117E145498B4200D0FF
:100AB00023E144481AE1802302995B00994202D164
:100AC0004148122113E1802302999B00994202D1EF
:100AD0003E4899210BE1032F00D07FE0059B032BBB
:100AE00000D90AE10CAC201C0021482200F0F9FFDB
:100AF000059B6770002B05D1092204332370A27077
:100B0000E37029E008AE321C314B23CB23C2002511
:100B10002F1C1B6813602F4B0122D8197359043501
:100B20001968FFF735FC3F18102DF4D10025294B2B
:100B3000294ADD55079B9B799B009E58301C00F08D
:100B4000D8FF013040002070735D6A1C002B03D079
:100B500051006354151CF7E72178201CC7E0C046FC
:100B600000500041FF500041500A0020FFFFFF8F5E
:100B7000100A0020540B0020FF3F00F0DC0300208F
:100B80000C0A0020E003002002030000A102000084
:100B90002109000081060000A1030000DC0B0020F9
:100BA000980B0020A80C0020640C002021200000DD
:100BB000210A0000210B000021220000A1FE0000FC
:100BC000A1210000880100206C1B0000EC00002027
:100BD000001B0000E20300205C1B00000F2F02D16D
:100BE0004A48392183E0212F02D1494809217EE07A
:100BF000222F00D081E04748212178E0049B072B79
:100C00007BD14548AA2172E06B460CA81B8B16E0ED
:100C10006B461B8B0CA8038050230399049F19403B
:100C2000413B1F40072F68D83C4B08377F01FF1816
:100C3000BB79002901D09B0600E0DB06DB0F0380B7
:100C4000022154E00F23049F1F40029B002B54D12C
:100C50007B1E062B51D87F230399083799432F4BCE
:100C60007F01C9B2FF18002902D020237B7141E027
:100C70007E713FE00F23049F1F40029B002B3CD15D
:100C80007B1E062B39D87F230399254A9943234B92
:100C90007F01C9B2FB18BF1800290CD02022F979B6
:100CA000114227D07A713A7A2A4223D04022FF3368
:100CB0001A723E3A0AE0FA7932421BD020227E7143
:100CC000397A114216D0FF331A721F3A5A7111E065
:100CD0006A46144B12795A700CE000230CA803806A
:100CE000012104E000230CA80C930D930821FFF7C9
:100CF00071FD04E0FFF77AFD01E0202393710A4BB8
:100D00001878431E9841C0B21FB0F0BD0400002007
:100D100090010020101B0000400000200050004106
:100D2000FF500041DD030020DC03002008B5FFF781
:100D3000F7FB00230221044A1370044A5370044A4B
:100D400013780B43137008BDDC030020DD03002083
:100D50000050004110B50C1C0122FFF735FD201C8E
:100D600010BD10B50C1C0122FFF72EFD201C10BD7C
:100D700038B5051C0C1CFFF741FD031C0020834205
:100D800004D0281C211C0222FFF7BAFC38BD38B55C
:100D9000051C0C1CFFF732FD0023984205D0281CCF
:100DA000211C0222FFF7B1FC231C181C38BD031CB8
:100DB00010B51C1A944208DA0C78002C01D00131CD
:100DC00000E020241C700133F3E710BD802270B5D1
:100DD0009200051C0C1C081C002100F082FE002D56
:100DE0000CD13E22201C4C4900F072FEFF235522FC
:100DF0005B00E254494B9218E2548CE07E2D25D8DA
:100E00006B1E3E2B00D93F3B002B03D01B02591C0D
:100E1000FF3113E0F022211C22700A31621C8A4249
:100E2000F4D0FF2010700132F9E73D4883420BD027
:100E300093B22380131C02348A426CD039481D1FA0
:100E40005A1C8542F6D8F0E7374BF2E7822D33D8AB
:100E50007F2D60D13049201C2B310B22FFF7A7FFDB
:100E600028230026314DE3720C35286820340028F1
:100E700002D000F03EFE01E080200003291C030A9E
:100E80006377030CA377B31C9BB22077A376000E85
:100E90001B0AE077E3760B220C39201CFFF787FF53
:100EA00067224D23524201362274637422766376A0
:100EB0001035032ED9D12EE02B1C833B012B0AD8F1
:100EC0001A4A1B01D318DD68281C00F012FE291CE9
:100ED000021C201C1DE0164B853D290299421AD8A0
:100EE000144B154A2360154B6360FE235B00E250F0
:100EF0008023DB00A3618023A06880229B01034341
:100F0000201CA3600E4B52006561E1602261E36129
:100F1000203000F0DDFD70BD661C0000FF01000008
:100F200003040000FF030000FFFF0000A41C0000FA
:100F3000FFFF03005546320A306FB10A57515D9EDC
:100F4000882BED6870B530480C6884425AD12F4820
:100F50004C68844256D1FE2040000C582C488442F4
:100F600050D18868840403D52A4CCD69A54249D163
:100F70001C1C151C0E1CC30710D480230A695B00BF
:100F80009A420BD1C868C3B2002B07D1224BC218BA
:100F9000224B9A4202D82031FFF7E0F8002C29D0EA
:100FA000B369002B26D021681D4A994206D093428E
:100FB00001D8002901D001235B4223607369934269
:100FC00020D8072201211A409140DB08E318CAB259
:100FD000197A114204D10A431A72636801336360BB
:100FE000626823689A420DD3002D0BD10D4B1B680C
:100FF0001E3305E0002D05D10A4B1B682D33FF334E
:10100000094A136070BDC0465546320A57515D9E6D
:10101000306FB10A882BED6800E0FFFFFFDF0300AF
:1010200063040000040A0020080A002070B53B4D4C
:10103000AB68002B00D0FEE7FFF768FA384B1E685C
:10104000384BF218F8239B029A4237D8364B374A6E
:101050001968374C374B91420CD11978364AC90779
:1010600002D42168914205D0344B22601B68344A77
:10107000323308E01A78012313400FD12068314938
:101080002B4A884201D1136018E010682A4B98421D
:1010900004D0FA2011604000FFF772F9002380228B
:1010A0002360294BD2005A612848FFF737FA802382
:1010B0009B011A6882F30888AB603047FFF774F829
:1010C000BFF35F8F62B6FFF731FE4020FFF726FACD
:1010D0000A231F4C2370FFF791FB1E4D00280DD0F3
:1010E0002B78DBB2002B07D18020154AC00113609A
:1010F000FFF714FA0123237001232B702B78002BA8
:1011000002D000F0A9FAFCE72B78002BE3D1FF33E3
:10111000C046013B002BFBD1DDE7C04600ED00E0FF
:101120000420000000E0FFFFB42000007CB0EE8748
:10113000FC7F002038040040EF6926F0040A0020FC
:10114000080A0020EF6916F000440041400040000A
:10115000000000200304002010B5054C0021201CD5
:10116000122200F0BEFCF0232370E63BE37110BDB9
:10117000C406002008B5FFF7EFFF0022014B1A73E9
:1011800008BDC046C0010020F8B5051C0E1C171C88
:101190000024AB689C4210D28021AA78E8688900BC
:1011A000331CFFF7B2FA80235B01E018E9680122E3
:1011B0003B1CFFF7C7FE0134EBE7F8BD70B50D1C13
:1011C000141C061C231C002001212A1CFFF728FAEE
:1011D0000023984206D0231C301C1F212A1CFFF735
:1011E0001FFA0123181C70BD08B503480D21042205
:1011F000FFF7EAFA08BDC046C001002038B50B4D24
:101200000B4C6A792879AB79120202431B04134311
:101210001A1CEB791B0613431A0A237162711A0C0C
:101220001B0EA271E371FFF7DFFF38BD0C04002035
:10123000C001002038B504220D1CFFF7C5FA164C7A
:10124000A8420FD0FFF788FF012304222373134B1A
:101250009A700022DA701A715A719A711A735A735D
:10126000FFF7CCFFFFF786FF637A207AA17A1B0293
:10127000034309041A1C0B1CE17A134309061943A2
:10128000491B0B0A217263720B0C090EA372E172E7
:10129000FFF7B4FF38BDC046C0010020C4060020DF
:1012A00070B5194D0021041C1422281C00F019FCF3
:1012B000281C1649002C04D0021CCD7D08320823BE
:1012C00002E00423CD7C021D4E7C3F2131401C29CD
:1012D00001D03F2907D11C211170123951700C33F4
:1012E0000539D170DBB2191CAB4200D9291CC9B237
:1012F000002C04D0023B9BB21B02038001E0013BA7
:101300000370FFF797FF70BDD80600200C04002083
:10131000F7B52A4B01AA597C061CD170997C002490
:101320009170D97C5170197D11706A46951C9A7D17
:101330006A70DB7D2B702B889C4239D2FFF75EFAF6
:10134000002839D01E4F002E0BD0019B391CE0180D
:10135000FFF73CFD8021381C89000422FFF734FA96
:101360000FE08021381C89000522331CFFF7CDF9DE
:10137000019B391CE018321C124BFFF7E3FDFFF70D
:10138000AFF811480134427A077A837A12023A435D
:101390001B0413431A1CC37A1B0613430B4A9B18E6
:1013A0001A0A037242721A0C1B0E8272C372C2E7CF
:1013B000FFF7E0FEFFF722FFF7BDC0460C04002058
:1013C000C40400202C040020C001002000FEFFFF08
:1013D000F0B585B000F04CFB474E0521301C0022D3
:1013E000FFF7ECFE002800D183E0737A317AB47AFB
:1013F0001B020B4324041A1C231CF47A13432406F7
:101400001C433E4D230A6B72230CAB72230E2C72CD
:10141000EB72F37B00271E2B43D00CD8122B29D064
:1014200004D8BB423DD0032B1CD050E01A2B32D045
:101430001B2B36D04BE0282B36D00BD8232B37D0A4
:10144000252B44D180232E489B0243602D4B08213D
:1014500003601DE02F2B24D05A2B1ED02A2B36D10F
:10146000381C22E0F37C191C122B00D91221C9B2BE
:1014700025480DE0254C2649201C18220830FFF78E
:1014800096FCF37C191C242B00D92421201CC9B202
:10149000FFF7D0FE2DE0381C00E00120FFF700FF31
:1014A00027E0FFF767FE22E00120FFF731FF20E091
:1014B0000C2601A81749321C00F00AFBB44203D9DC
:1014C0002E726F72AF72EF7201A80C21E0E7FFF786
:1014D00043FE0123094A137305220B4B9A70002225
:1014E000DA701A715A719A711A7320325A73FFF7AF
:1014F00085FE05B0F0BDC0460C040020C0010020F0
:101500000404002000003E7FC40600209C0100204F
:10151000491B0000D41C000072B6BFF35F8F044B60
:10152000044A9A829A830022034B9A607047C0460D
:1015300000500041FF03000000ED00E0F0B5C7B02F
:101540000FAF041CFFF7E8FF00214422381C00F015
:10155000C8FA0021982220A800F0C3FA0223BB7029
:1015600062780D331A406270A27807AD1340A37001
:101570006368284E08930023274809932B73E1687A
:1015800020AB01220796FFF7DDFC201C391C20AAA6
:10159000FFF7FAFD6278281C0D210123FFF7C6F83A
:1015A0000196002507AEA178301C3A1CFFF706FE15
:1015B000002806D1194B9D4201D9FEF709FF0135DC
:1015C000F0E7019B03AD039373686B60B368AB6096
:1015D00000232B73F37B002B14D02A2B10D1B27D68
:1015E00002ABDA70F27D201C9A705E88391CA6600E
:1015F00020AAFFF7C9FDAB6876029E1BAE6001E032
:10160000FEF71AFF6278281C0D210123FFF78EF8E0
:10161000C7E7C04653425355FF0F0000F8240100AE
:1016200030B5EFF30883054C2360036883F3088823
:101630004568A847236883F3088830BDCC0D002097
:1016400007B5011C01226846FEF7A2FE6846082184
:10165000FFF780FB07BD000000237A22F0B5854C20
:1016600085B02360844B1A700193FFF7B1FE834D60
:101670004021281CFFF77CFB0022814B2A54186074
:101680000393904201D0FEF72BFF7E4B00211F1CDD
:101690007D4A1D6011607C4D039B2A681868824258
:1016A000E3D2784B19689C460B78FF2B00D1DBE026
:1016B000764E232B00D0B3E0019B1B78532B2CD10B
:1016C000904218D9634601311960336801322A60AB
:1016D000821A9A4200D91A1C6D4E2068326000F0BE
:1016E000F7F9694933680A689A180A603A68D218A3
:1016F0003A60684A13702B68013B2B603B68013BE2
:101700003B60644B1978614B1B68994203D2591AAC
:101710002068FFF73CFBC0467BE0522B04D12068D9
:101720003168FFF71EFB74E04F2B03D1336822684A
:1017300013706EE0482B03D133682268138068E091
:10174000572B0AD1544B22689A4202D15348FEF7D4
:10175000E5FE236832681A605BE06F2B01D12068D8
:1017600019E0682B05D12368301C1B8802213360E7
:101770004DE0772B05D12368301C1B6804213360B2
:1017800045E0472B09D13068FFF74AFF444B1B78EF
:10179000002B3ED04348012139E0542B39D04E2B49
:1017A00037D0562B02D140482A2130E0582B04D1A3
:1017B0003068FEF793FC3D4828E0592B0DD1326884
:1017C0003B4B002A02D122681A6004E0920820688C
:1017D0001968FEF79BFC374818E05A2B19D133687B
:1017E00000262568EB180293029B9D4206D02878BC
:1017F000311CFEF79DFD0135061CF5E701212E4841
:10180000FFF7A8FA301CFFF71BFF2C480321FFF756
:10181000A1FA7A23019A137000221C4B1A601FE070
:101820001A1C303AD1B2092902D833681B010CE0E6
:101830001A1C413A052A01D8373B04E01A1C613AC8
:10184000052A04D8573B32681201134307E02C2BBA
:1018500002D13368236001E0019A137000233360E2
:10186000084A136801331360074A13680133136091
:1018700011E7C046C80D00207C0D0020840D00201B
:10188000740D0020780D0020800D0020D00D002068
:10189000D40D0020700D00200CED00E04000400051
:1018A000F00600200A1D0000E01C00000C1D0000D6
:1018B000EC060020101D0000141D0000161D000085
:1018C000F8B5031C041C47331A7800204021231C60
:1018D000FEF7A6FE002801D100201AE0002325799A
:1018E00023706BB2002BF7DB3F27A61DF08F2F4034
:1018F00048302018611D3A1C00F0EAF83F23F08FB1
:101900009D43381880B2002D01D1F087E4E7002311
:10191000F387F8BDF0B5061C0C1C1F1C93B0019298
:101920003F25AC4203DC251C002F00D140372B1C87
:1019300002AA3B431370311C501C2A1C00F0C8F84B
:101940006B4602A81A7940210123FEF7EFFE7619B3
:10195000641BE5D113B0F0BD10B5031C041C473364
:1019600048341A780431201C0023FFF7D3FF10BD40
:10197000F7B5071CFFF7A4FF002872D03B1C4833C3
:101980009A88B86C1A80002201385A80082862D8D8
:1019900000F094F8130522256328453C3500314DAD
:1019A000281C00F0A6F8041C381C291C4C30221CF2
:1019B00000F08EF8381C211C51E00123FB64FF333A
:1019C0003B658023DB007B65A0235B00BB65264B6A
:1019D000381CFB65142142E0FEF7FAFC3DE0FEF7FF
:1019E0002BFD3AE0381C0021FFF7B6FF386D1F4B86
:1019F000984236D9391C5431FEF7B0FB31E0391C1E
:101A0000386D58317A6DFEF777FB26E0381C7C6D17
:101A1000396D4C30221CFEF76FFBA10019E03E1C13
:101A200000257B6D3C6D00934C36009B9D420FDA88
:101A30000021631CFF3301932078FEF779FC019BA2
:101A40000134011C9C42F7D1308001350236ECE7AD
:101A50005900381C03E001225A80381C0021FFF78E
:101A60007BFFF7BDF61B0000882BED68FF1F000011
:101A7000074808B5031C062247331A70FFF778FFA2
:101A800004480722031C47331A70FFF771FF08BD93
:101A9000F40600207C08002010B5E2B0041CFFF71B
:101AA0003BFDC42268460021520000F01AF847238B
:101AB0006B441C706846FFF75BFFFBE702B471469E
:101AC00049084900095C49008E4402BC7047C04681
:101AD000002310B5934203D0CC5CC4540133F9E722
:101AE00010BD031C8218934202D019700133FAE72B
:101AF00070470023C25C0133002AFBD1581E704797
:101B00000CA0800040A0800044A0800048A080007D
:101B10000697FF0901A101150026FF0075089540F1
:101B20000901810295400901910295010901B10263
:101B3000C0000000537061726B46756E20456C6585
:101B40006374726F6E696373005177696963204DC6
:101B50006963726F2053616D4432310000000000F0
:101B6000341B0000491B0000E20300201201100298
:101B7000EF0201404F1B1900014201020301000066
:101B80003C21646F63747970652068746D6C3E0AE3
:101B90003C68746D6C3E3C626F64793E3C7363726A
:101BA0006970743E0A6C6F636174696F6E2E726542
:101BB000706C6163652822687474703A2F2F73709B
:101BC00061726B66756E2E636F6D2F70726F6475C8
:101BD0006374732F313534323322293B0A3C2F731F
:101BE00063726970743E3C2F626F64793E3C2F686B
:101BF000746D6C3E0A0055463220426F6F746C6FF4
:101C0000616465722076332E342E302D35332D6786
:101C1000666264396264312D646972747920534656
:101C20004857524F0D0A4D6F64656C3A20517769E1
:101C30006963204D6963726F2053616D4432310DC9
:101C40000A426F6172642D49443A2053414D443237
:101C500031453138412D51776969634D6963726F40
:101C60002D76310D0A00EB3C905546322055463218
:101C70002000020101000240007E3EF83F0001000A
:101C80000100000000000000000080002942004226
:101C90000051776969634D6963726F004641543141
:101CA00036202020494E464F5F5546325458540046
:101CB000F61B0000494E44455820202048544D0052
:101CC000801B000043555252454E54205546320069
:101CD000000000000000000800003E80020002003A
:101CE00076312E31205B41726475696E6F3A5859B6
:101CF0005A5D204175672031322032303139203031
:101D0000393A34363A31340A0D000600580A0D00CB
:0C1D1000590A0D005A00230A0D000000C3
:101D1C0001C80000050F3900021810050038B6087C
:101D2C0034A909A0478BFDA0768815B66500010182
:101D3C00001C100500DF60DDD88945C74C9CD265BE
:101D4C009D9E648A9F00000306AA0002000000000A
:101D5C000A00000000000306AA00080002000400AC
:101D6C00A0001400030057494E55534200000000D8
:101D7C000000000000008400040007002A0044005A
:101D8C006500760069006300650049006E00740010
:101D9C006500720066006100630065004700550035
:101DAC00490044007300000050007B0039003200F1
:101DBC004300450036003400360032002D00390057
:101DCC004300370037002D00340036004600450034
:101DDC002D0039003300330042002D003300310058
:101DEC0043004200390043003500420042003300FA
:101DFC00420039007D00000000000000090299003B
:101E0C0005010080FA080B0002020201000904001F
:101E1C000001020201000524001001042402060541
:101E2C00240600010524010301070583030800FFB4
:101E3C0009040100020A00000007058102400000AD
:101E4C0007050202400000090402000208065000C7
:101E5C000705840240000007050502400000090444
:101E6C0003000203000000092100010001222100EF
:101E7C00070586034000010705060340000109041D
:101E8C00040002FF2A010007058703400001070533
:101E9C00070340000100000000C201000000080020
:101EAC00090403000203000003000000008002028A
:101EBC0020000000000000000000000000000000F6
:101ECC00000000000000000000000000312E303047
:101EDC0053425355000000000000000000000000B9
:101FF00000000000991A00003D150000F61B0000CB
:00000001FF
